:020000040800F2
:1000000048140024AD02000899780008796E0008B1
:1000100075760008B50B0008759800080000000010
:10002000000000000000000000000000DD83000868
:1000300047210008000000009B780008498900085B
:10004000C7020008C7020008C7020008C70200086C
:10005000C7020008C7020008C7020008C70200085C
:10006000C7020008C7020008C702000819170008E5
:1000700025170008311700083D1700084917000828
:100080005517000861170008C7020008C7020008DA
:10009000C7020008C7020008C7020008C70200081C
:1000A000C7020008C7020008C7020008C70200080C
:1000B000C7020008C7020008C7020008C7020008FC
:1000C000C7020008C7020008C7020008C7020008EC
:1000D000C7020008519800085D9800086998000858
:1000E000C7020008C702000800000000C70200089D
:1000F000378B0008C7020008C7020008C7020008C3
:10010000C7020008C7020008C7020008C7020008AB
:1001100027900008C70200081F8B00082B8B0008DF
:10012000C7020008C7020008C7020008C70200088B
:10013000C7020008C7020008C7020008C70200087B
:1001400000000000000000000000000000000000AF
:10015000C7020008C7020008C7020008C70200085B
:10016000C7020008C7020008C7020008C70200084B
:10017000C7020008C7020008C7020008C70200083B
:10018000C7020008C7020008C7020008C70200082B
:10019000C7020008C7020008C7020008C70200081B
:1001A000C7020008C7020008C7020008C70200080B
:1001B000C7020008C7020008C7020008C7020008FB
:1001C000C7020008C7020008C7020008C7020008EB
:1001D000C7020008C7020008C7020008C7020008DB
:1001E000C7020008C7020008C7020008C7020008CB
:1001F000C7020008C7020008C7020008C7020008BB
:10020000C7020008C7020008C7020008C7020008AA
:10021000C7020008C7020008C7020008C70200089A
:10022000C7020008C7020008C7020008000000005B
:10023000C7020008C702000800000000C70200084B
:10024000C7020008C7020008C7020008C70200086A
:10025000C7020008C7020008C7020008C70200085A
:10026000C7020008C7020008C7020008C70200084A
:10027000C7020008C7020008C7020008000000000B
:10028000C7020008C7020008C702000800000000FB
:1002900000000000C7020008DFF80CD000F05AFA96
:1002A000004800476D9C0008481400240648804719
:1002B00006480047FEE7FEE7FEE7FEE7FEE7FEE74B
:1002C000FEE7FEE7FEE7FEE7538A00089902000812
:1002D0002DE9F05F0546002092469B46884606467B
:1002E000814640241BE0284641464746224600F00E
:1002F00069F853465A46C01A914110D31146184620
:10030000224600F050F82D1A67EB01084F462246AE
:100310000120002100F047F817EB00094E41201E94
:10032000A4F10104DFDC484631462A464346BDE8D5
:10033000F09F40EA01039B0703D009E008C9121FA0
:1003400008C0042AFAD203E011F8013B00F8013B8F
:10035000521EF9D27047D2B201E000F8012B491EBB
:10036000FBD270470022F6E710B513460A46044652
:100370001946FFF7F0FF204610BD30B50B46014689
:1003800000202022012409E021FA02F59D4205D334
:1003900003FA02F5491B04FA02F52844151EA2F1DE
:1003A0000102F1DC30BD202A04DB203A00FA02F120
:1003B000002070479140C2F1200320FA03F3194353
:1003C00090407047202A04DB203A21FA02F00021F5
:1003D000704721FA02F3D040C2F120029140084355
:1003E000194670472DE9FE4F804681EA0300C00F91
:1003F0000C46009021F0004123F00045B8EB0200CC
:10040000A94105D24046214690461C460B4602466D
:1004100023F00040104347D0270DC7F30A00C3F371
:100420000A510290401A019040286BDAC3F313007E
:1004300040F4801B0098924620B10023D2EB030ABF
:1004400063EB0B0B01985946C0F140025046FFF791
:10045000AAFF06460D4650465946019A00F092F909
:1004600010EB08006141002487EA115284EAE77327
:100470001A4340D0009A62B3019A012A4FEA075208
:1004800015DC001B61EB02014FF0004202EA07524B
:10049000CDE90042001C41F5801132462B4600F0A8
:1004A00092F903B0BDE8F08F40462146F9E7001B02
:1004B00061EB0201001C41F5801300185B4120181C
:1004C000A2F5001747EB030140EAD570B6196D415C
:1004D00011E06D084FEA360645EAC0754FEA07524B
:1004E000001B61EB0201001C41F5801149084FEA35
:1004F00030000019514132462B4603B0BDE8F04FA1
:1005000000F052B90098012240000023D0EB020213
:1005100063EBE073009821464FEAE074B8EB00000B
:1005200061EB0401E9E783F000435BE781F0004100
:1005300058E72DE9FE4F81EA030404F0004421F05E
:10054000004100944FF0000B23F0004350EA0104F7
:100550005ED052EA03045BD0C3F30A54C1F30A55D8
:100560002C44A4F2F3340194A0FB0254C1F3130110
:1005700041F48011C3F3130343F4801301FB0244DD
:1005800000FB034E840A970A44EA815447EA8357E2
:10059000A4FB076802958D0A05FB07854FEA932C9B
:1005A00004FB0C542705029D4FEA065847EA16370C
:1005B000B5EB08056EEB070C870E920E47EA811724
:1005C00042EA8312A7FB0201B6EB0B0164EB0004C5
:1005D0002B0D43EA0C335E1844EB1C50DA465146AF
:1005E000E7FB0201C5F313044FEA0B3343EA14534C
:1005F0004FEA0432019C43EA0603A4F10C0402947E
:10060000009CCDE900B400F0DEF803B0BDE8F08F47
:1006100000200146F9E72DE9F04D81EA030404F0DA
:10062000004B21F0004514464FF0000A23F0004132
:1006300050EA050220D054EA01021DD0C5F30A5742
:100640000246C5F31303C1F31300C1F30A5640F485
:10065000801543F48013A7EB0608101BD64608F25A
:10066000FD3873EB050002D308F1010801E0921890
:100670005B41B8F1000F03DA00200146BDE8F08DC0
:1006800000204FF48011064684460EE0171B73EBE2
:10069000050705D3121B63EB050306434CEA010C67
:1006A00049084FEA300092185B4150EA0107EDD14A
:1006B00052EA030012D082EA040083EA05010843EB
:1006C00005D0101BAB4106D20122002306E0002218
:1006D0004FF0004302E06FF0010253101AEB0600E6
:1006E0004CEB085110EB0A0041EB0B01BDE8F04D5B
:1006F00000F05AB8C1F30A52C1F3130140F2FF33BC
:1007000041F480119A4202DA00200146704740F21B
:1007100033439A42A2F2334202DC5242FFF752BE06
:10072000FFF741BE30B5041E71F1000404DB4FF049
:100730000044404264EB0101141E73F1000405DB28
:100740001C464FF00043524263EB0403994208BF3A
:10075000904230BD1CB509480090094801900546FB
:10076000009C06E0E06840F0010394E80700984729
:100770001034AC42F6D3FFF793FD0000DCB2000862
:10078000FCB20008202A06DBCB17203A41FA02F01F
:1007900043EAE07306E041FA02F3D040C2F12002DE
:1007A000914008431946704710B5141E73F10004B8
:1007B00008DA401C41F1000192185B411A4301D153
:1007C00020F0010010BD2DE9F04D92469B4611B17D
:1007D000B1FA81F202E0B0FA80F220329046FFF7DF
:1007E000E2FD04460F4640EA0A0041EA0B01534687
:1007F0005A46084313D0114653EA010019D0C8F1F4
:1008000040025046FFF7DEFD05460E46504659466B
:100810004246FFF7C8FD084305D0012004E020460A
:100820003946BDE8F08D0020054346EAE0762C43CA
:1008300037430A986305E40AA0EB08000022FD0A8A
:1008400044EA47540A3002D500200146E9E7010591
:1008500010196941DDE9084500196941BDE8F04D0D
:10086000A2E770B58C1810F8015B15F0070301D1F1
:1008700010F8013B2A1106D110F8012B03E010F803
:10088000016B01F8016B5B1EF9D12B0705D4002326
:10089000521E0DD401F8013BFAE710F8013BCB1AC8
:1008A000921C03E013F8015B01F8015B521EF9D5BD
:1008B000A142D8D3002070BD2DE9F04385B00DF1E1
:1008C0001100009040F69000EF21C2F20040D022CB
:1008D000012301240194FF26029603F0A8F99DF854
:1008E0001100582840F0628140F69005EF21C2F2D5
:1008F00000458822012328460DF110080296CDE913
:10090000008403F094F9EF218922012328460DF198
:100910000F090296CDE9009403F089F99DF80F00C4
:1009200040F2B0479DF81010C2F200478A2201231E
:1009300041EA00203880EF212846CDE90084029664
:1009400003F075F9EF218B2201232846CDE90094AD
:10095000029603F06CF99DF80F009DF810108C22A0
:100960000123CDE9008441EA00207880EF21284668
:10097000029603F05CF9EF218D2201232846CDE990
:100980000094029603F053F99DF80F009DF81010A3
:100990008E220123CDE9008441EA0020B880EF21B6
:1009A0002846029603F043F9EF218F2201232846BF
:1009B000CDE90094029603F03AF99DF80F009DF8F6
:1009C000101090220123CDE9008441EA0020F88034
:1009D000EF212846029603F02AF9EF219122012304
:1009E0002846CDE90094029603F021F99DF80F0006
:1009F0009DF8101092220123CDE9008441EA0020E5
:100A00003881EF212846029603F011F9EF21932255
:100A100001232846CDE90094029603F008F99DF8D9
:100A20000F009DF8101094220123CDE9008441EAC3
:100A300000207881EF212846029603F0F8F8EF2194
:100A4000952201232846CDE90094029603F0EFF8A1
:100A50009DF80F009DF8101096220123CDE9008427
:100A600041EA0020B881EF212846029603F0DFF822
:100A7000EF21972201232846CDE90094029603F046
:100A8000D6F89DF80F009DF8101098220123CDE9AB
:100A9000008441EA0020F881EF212846029603F005
:100AA000C6F8EF21992201232846CDE90094029649
:100AB00003F0BDF89DF80F009DF810109A22012355
:100AC000CDE9008441EA00203882EF2128460296D1
:100AD00003F0ADF8EF219B2201232846CDE90094D5
:100AE000029603F0A4F89DF80F009DF810109C22C8
:100AF0000123CDE9008441EA00207882EF212846D5
:100B0000029603F094F8EF219D2201232846CDE9B7
:100B10000094029603F08BF89DF80F009DF81010DA
:100B20009E220123CDE9008441EA0020B882EF2112
:100B30002846029603F07BF8EF219F2201232846E6
:100B4000CDE90094029603F072F89DF80F009DF82D
:100B50001010E0220123029641EA0020F88240F2C0
:100B60000800EE21C2F20040CDE90004284603F05F
:100B700053F92F208DF812000DF11200EE21CDE96E
:100B80000004F42201232846029603F045F91020C0
:100B90008DF813000DF11300EE21CDE90004F522CC
:100BA00001232846029603F037F90024204605B0B9
:100BB000BDE8F083FEE700002DE9F0412DED0E8B3E
:100BC00040F2385040F68807C2F2004040F2105818
:100BD0009FED7B4BB0F90000C2F200479FED7AEB2E
:100BE00003EE100A40F23A50C2F20040C2F200484E
:100BF000B0EE408BB0F90000B8EEC33BB7EE00ABEF
:100C000005EE100A83EE043BBFEE00BBB8EEC55BF9
:100C100083EE00CB85EE044B98ED005B84EE00DBA9
:100C200081EE0E0B97ED001BA3EE015B98ED023BEE
:100C3000A4EE013BB0EE429BB0EE4A1BB0EE4B2B54
:100C400088ED005B88ED023B01F0DEFA89EE0E1BB9
:100C50003DEE409BB0EE410BB0EE4A1BB0EE4B2B8D
:100C600001F0D2FA3CEE001B41F24400C2F2004017
:100C700040F2E816C2F200460078F5280DD196ED54
:100C8000000B9FED532BB4EE420BF1EE10FA08DA95
:100C90009FED512B30EE020B01E0B6EE000B86ED1E
:100CA000000B40F6F84040F2D045C2F20040C2F2DC
:100CB000004540F2F04490EC042B85ED062BC2F287
:100CC0000044284697ED002B40F2205784ED063B68
:100CD000C2F2004721EE024B21EE423B29EE021BFD
:100CE000B0EE049B87ED021BB0EE491BB0EE482B23
:100CF00087ED004B01F030FAB0EE491B2046B0EE14
:100D0000482B96ED000B97ED023B01F025FA97EC8E
:100D1000040BB1EE400B85ED060B40F21005C2F25C
:100D20000045284684ED061B08F07EFF94ED060B77
:100D300040F24004C2F2004495ED0A9B204608F0C0
:100D400073FF40F2F01140F2F810C2F20041C2F21B
:100D50000040B0EE493B40F29042C2F2004294EDB6
:100D60000A0B91ED001B9FED1E2B90ED004B97EDB4
:100D7000025BA1EE023B30EE455BA4EE020B97ED69
:100D8000002B39EE422B82ED003BA2EE081B81EDD9
:100D9000001B40F21821C2F2004182ED020B0A78DA
:100DA000A5EE084B80ED004B2AB100200870C8E981
:100DB0000000C8E90200BDEC0E8BBDE8F08100BF69
:100DC000000000000088C3406666666666A64C4068
:100DD000333333333333F33F7B14AE47E17A943FFD
:100DE0009A9999999999B93F2DE9F04F81B02DEDD4
:100DF000088B96B040F2D01940F23047C2F2004959
:100E000040F27810C2F20047C2F2004099ED006B48
:100E1000D7E90664B0EE439B0594D7E908EC9FED53
:100E2000EE8BD7E90A5187ED043B90EC063B58EC7A
:100E3000110BCDE9085187ED021BCDF818E053ECFA
:100E4000162BCDF81CC0B0EE42BBB0EE40ABB0EEFE
:100E5000430BB0EE441BB0EE452BB0EE483B5AECD2
:100E600019BB8DE801090AA887ED006BCDE903A63F
:100E700008F0EEFFDDE912233A62149ABA62159A7D
:100E8000FA6240F23822C2F2004240F2E02697EDC8
:100E90000A3BDDE90A1092ED004BC2F20046786091
:100EA0000D98F86040F2D0007B6239600C99B9600F
:100EB000C2F200400E9939610F99796158EC143BE8
:100EC000D6E908EC52EC131BCDF81CC086ED023BB2
:100ED0008DE80608B0EE483B1A46434690ED000BFD
:100EE00090ED021B90ED042B1098B8611198F861F9
:100EF000D6E90A40CDE908400AA886ED004BD6E9BC
:100F0000067586ED049BCDE903A7CDE9055E08F0E3
:100F10009FFFDDE90A10129A326240F26822706087
:100F20000D98F06040F23010C2F2004240F2A0375B
:100F3000C2F20040149BB362159BF36299ED023B31
:100F4000C2F20047316096ED0A0B0C99B16082ED58
:100F5000000B0E99316190ED000B0F99716190EDCE
:100F6000021B139A726290ED042B1098B0611198D5
:100F7000F06151EC1B0B07F1180EFD6A87ED003B89
:100F80008DE8030853EC132B0AA8B0EE483B9EE80B
:100F9000404187ED02BBD7E909C487ED049BCDE949
:100FA0000845CDE903A6CDE9058ECDF81CC008F0B3
:100FB0004FFF129A3A62149ABA62159AFA62139A19
:100FC0007A6240F2382240F21036DDE90A10C2F2AD
:100FD000004278600D98F86040F2E800C2F20046E6
:100FE00097ED0A3BC2F20040396092ED024B0C993A
:100FF000B96090ED000B0E99396190ED021B0F99CD
:10100000796190ED042B1098B8611198F86151EC5A
:10101000130B06F1180EF56A86ED023B8DE8030806
:1010200053EC142B0AA8B0EE483B9EE8804186EDB5
:10103000004BD6E909C486ED049BCDE90845CDE90E
:1010400003A7CDE9058ECDF81CC008F001FFDDE94E
:101050000A10129A326240F2602270600D98F060BD
:1010600040F29010C2F2004240F26047C2F20040EB
:10107000149BB362159BF36299ED043BC2F20047E7
:10108000316096ED0A0B0C99B16082ED000B0E9960
:10109000316190ED000B0F99716190ED021B139A75
:1010A000726290ED042B1098B0611198F06151ECD0
:1010B0001A0B07F1180EFD6A87ED003B8DE8030857
:1010C00053EC132B0AA8B0EE483B9EE8404187ED55
:1010D00002ABD7E909C487ED049BCDE90845CDE90A
:1010E00003A6CDE9058ECDF81CC008F0B1FE129A1A
:1010F0003A62149ABA62159AFA62139A7A6240F2C4
:10110000382240F24036DDE90A10C2F2004278602F
:101110000D98F86040F20010C2F2004697ED0A3BCD
:10112000C2F20040396092ED044B0C99B96090ED29
:10113000000B0E99396190ED021B0F99796190EDCA
:10114000042B1098B8611198F86151EC130B06F15B
:10115000180EF56A86ED023B8DE8030853EC142B5C
:101160000AA8B0EE483B9EE8804186ED004BD6E9E8
:1011700009C486ED049BCDE90845CDE903A7CDE977
:10118000058ECDF81CC008F063FE40F27021129865
:10119000C2F200413062139870621498B0621598E0
:1011A000F0620A9830600B9870600C98B0600D98EF
:1011B000F0600E9830610F9870611098B0611198CE
:1011C000F06196ED0A0B012081ED000B16B0BDEC2D
:1011D000088B01B0BDE8F08F0000000000C0524055
:1011E0002DE9F04F81B02DED068B96B040F2082925
:1011F00040F2A000C2F2004940F28027C2F2004053
:10120000C2F2004799ED005BD7E90664B0EE429B5D
:101210000594D7E908EC90ED004BD7E90A5190ED21
:10122000023BCDE908519FED9C8BCDF818E087ED8E
:10123000042BCDF81CC090ED042B58EC100B87ED5F
:10124000020B53EC152BB0EE41ABB0EE440BB0EEFD
:10125000431BB0EE483B5AEC19BB8DE801090AA8C4
:1012600087ED005BCDE903A608F0F2FDDDE912236E
:101270003A62149ABA62159AFA6240F29042C2F245
:10128000004240F2D03697ED0A3BDDE90A1092EDBC
:10129000004BC2F2004678600D98F86040F24810AA
:1012A0007B6239600C99B960C2F200400E993961D5
:1012B0000F99796158EC143BD6E908EC52EC131BFA
:1012C000CDF81CC086ED023B8DE80608B0EE483B29
:1012D0001A46434690ED000B90ED021B90ED042B57
:1012E0001098B8611198F861D6E90A40CDE9084034
:1012F0000AA886ED004BD6E9067586ED049BCDE97C
:1013000003A7CDE9055E08F0A3FDDDE90A10129AF6
:10131000326241F2180270600D98F06040F2B8003D
:10132000C2F2004240F2B027C2F20040149BB36206
:10133000159BF36299ED023BC2F20047316096EDD6
:101340000A0B0C99B16082ED000B0E99316190EDA2
:10135000000B0F99716190ED021B139A726290ED70
:10136000042B1098B0611198F06151EC1A0B07F141
:10137000180EFD6A87ED003B8DE8030853EC132B34
:101380000AA8B0EE483B9EE8404187ED02ABD7E9A2
:1013900009C487ED049BCDE90845CDE903A6CDE955
:1013A000058ECDF81CC008F053FD129A3A62149ACB
:1013B000BA62159AFA62139A7A6240F2904240F247
:1013C0000046DDE90A10C2F2004278600D98F8602C
:1013D00040F26010C2F2004697ED0A3BC2F20040B4
:1013E000396092ED024B0C99B96090ED000B0E99AB
:1013F000396190ED021B0F99796190ED042B1098E3
:10140000B8611198F86151EC130B06F1180EF56AEA
:1014100086ED023B8DE8030853EC142B0AA8B0EECE
:10142000483B9EE8804186ED004BD6E909C486ED35
:10143000049BCDE90845CDE903A7CDE9058ECDF89C
:101440001CC008F005FD1298306213987062149861
:10145000B0621598F06296ED0A0B41F220010A98ED
:10146000B1EE400BC2F2004130600B9870600C98F6
:10147000B0600D98F0600E9830610F987061109810
:10148000B0611198F061012081ED000B16B0BDEC48
:10149000068B01B0BDE8F08F0000000000C0524094
:1014A0002DE9F04796B040F6880040F27034C2F261
:1014B0000040C2F200445EEC11CBD4E906A690EDE8
:1014C000003B40F21810C2F2004084ED020B90EC99
:1014D000044B90ED042BD4E9089851EC100BD4E99F
:1014E0000A7584ED041B8DE8035053EC132B0AA8F6
:1014F000CDF81890B0EE440BCDF81C80CDE90875FE
:10150000B0EE451BCDE904A684ED003B9FED143BF6
:1015100008F09EFC40F258211298C2F2004120626D
:10152000139860621498A0621598E0620A9820608F
:101530000B9860600C98A0600D98E0600E98206198
:101540000F9860611098A0611198E06194ED0A0B0A
:10155000012081ED000B16B0BDE8F08700BF00BF91
:101560000000000000C0524010B52DED088BB0EE19
:10157000449B40F2A240C2F20040B0EE418B0078A2
:10158000E0B140F20024C2F2004494F900000228C5
:1015900026DCB0EE490B41F22000C2F20040B0EE72
:1015A000483B90ED001B41F21800C2F2004090ED64
:1015B000002BFFF719FC2078013038E0B0EE490B22
:1015C000B0EE421BB0EE432BB0EE483BFFF70CFCF5
:1015D00040F258200021C2F20040C0E9001127E08B
:1015E000B0EE40ABB0EE080BB0EE461B28EE00BBF1
:1015F000B0EE450BB0EE4B2BFFF7F2FDB0EE490B12
:1016000041F22000C2F20040B0EE483B90ED001BDA
:1016100041F21800C2F2004090ED002BFFF7E4FB0E
:10162000B0EE4A0BB0EE4B1BFFF73AFF00202070E4
:101630000120BDEC088B10BD2DE9F04F81B0503872
:101640000F2800F26680884692464FF0340B4FF028
:10165000000903274024DFE800F008350E23271394
:101660001D202F2C0B5C5C5C5C164FF0300B25E0D2
:101670004FF0550B22E04FF0030A4FF0370B1DE0FF
:101680004FF0410B1AE040F6E070C2F20040D0F893
:1016900000B013E04FF0450B10E04FF0490B0DE0A8
:1016A0004FF03D0B2E240DE04FF0030A4FF03A0BA4
:1016B00004E04FF0510B01E04FF04D0B4FF00109EA
:1016C00004270024BAF1030F40F6BA5508BF574665
:1016D000C2F20045414605EB4B007A00FEF729FEB9
:1016E00040F624565846C2F20046394632689047C2
:1016F000B9F1000F0DD1BAF1030F0AD0B8F8060006
:101700003268012125F81400204601B0BDE8F04FF1
:10171000104701B0BDE8F08F40F23060C2F20040E7
:1017200001F032B940F2A860C2F2004001F02CB9D9
:1017300040F24050C2F2004001F026B940F2B850E9
:10174000C2F2004001F020B940F22070C2F2004025
:1017500001F01AB940F29870C2F2004001F014B9D9
:1017600040F61000C2F2004001F00EB940F20F4204
:10177000D0F800C0C4F20202944510DC6F22C4F21B
:101780000202944520DC3F22C4F20202944536DC7A
:101790001022C4F20202944554D028224EE040F2B6
:1017A0006F42C4F2020294451ADC40F23F42C4F296
:1017B000020294452ADC40F21042C4F2020294452F
:1017C00040D040F2284239E09F22C4F20202944500
:1017D00025DC7022C4F20202944533D088222DE029
:1017E00040F29F42C4F2020294451FDC40F2704274
:1017F000C4F20202944525D040F288421EE0402205
:10180000C4F2020294451DD0582217E040F2404233
:10181000C4F20202944515D040F258420EE0A022D4
:10182000C4F2020294450DD0B82207E040F2B8425B
:10183000C4F20202944505D040F2A042C4F2020272
:10184000944517D10CF0F8024AF6AB23103ACAF6C9
:10185000AA23A2FB033109A35F2AC1F302115B5C37
:1018600040F2FF312CEA0101C36588BF0431816574
:10187000084670472CF0FF01F9E700BF000610167C
:101880000006101645F257420168C5F60202914261
:101890000EDC45F22F42C5F60202914217DC45F2FA
:1018A0000842C5F60202914226D045F21C421FE0D2
:1018B00045F27F42C5F60202914211DC45F25842E0
:1018C000C5F60202914217D045F26C4210E045F293
:1018D0003042C5F6020291420ED045F2444207E082
:1018E00045F29442C5F60202914205D045F280428B
:1018F000C5F6020291421AD101F0FC014CF6CD422C
:101900000839CCF6CC42A1FB021245F60003C5F61D
:101910000203120903F1800103EB820302F01F02AC
:1019200003660123416603FA02F18166704710B530
:1019300001F0F8024AF6AB23103ACAF6AA23A2FB3A
:10194000032340F20F42C4F202024FF0080E4FEAA6
:10195000131C914202F1AA04624688BF0EEB1312D7
:1019600040F60003A142C4F2020303F1800128BF44
:101970006246BDE81040CFE70279511E072988BFB3
:10198000704710B545F2574C45F6FC0E0368C5F696
:10199000020CC5F6020E63450EF1440C0EDC45F256
:1019A0002F44C5F60204A34217DC45F20844C5F6ED
:1019B0000204A34226D045F21C441FE045F27F44B6
:1019C000C5F60204A34211DC45F25844C5F60204F0
:1019D000A34217D045F26C4410E045F23044C5F6FE
:1019E0000204A3420ED045F2444407E045F280448D
:1019F000C5F60204A34205D045F29444C5F602049C
:101A0000A3420BD10EEB8202C2660122C0F870C065
:101A100002FA01F14167BDE81040704740F6FC0E44
:101A2000C4F2020E0EF1440CECE770B540F26F44C4
:101A3000D0F800C0C4F20204D0F858E0A44517DC86
:101A40009F25C4F20205AC452DDC5725C4F20205E2
:101A5000AC4550DC1025C4F20205AC4500F08A808C
:101A60002825C4F20205AC4500F0848040256BE0D7
:101A700045F22F45C5F60205AC4527DC40F2B745D7
:101A8000C4F20205AC4542DC40F27045C4F20205E6
:101A9000AC456FD040F28845C4F20205AC4569D030
:101AA00040F2A04550E040F22745C4F20205AC45A3
:101AB0003CDCA025C4F20205AC455BD0B825C4F2DD
:101AC0000205AC4556D040F210453DE045F26B456D
:101AD000C5F60205AC453ADC45F23045C5F60205CF
:101AE000AC4547D045F24445C5F60205AC4541D06A
:101AF00045F2584539E05825C4F20205AC4539D0C5
:101B00007025C4F20205AC4534D088251CE040F2B3
:101B1000B845C4F20205AC452CD045F20845C5F6DF
:101B20000205AC4526D045F21C451EE040F2284592
:101B3000C4F20205AC451DD040F24045C4F2020596
:101B4000AC4517D040F25845C4F202050FE045F20B
:101B50006C45C5F60205AC450CD045F29445C5F67A
:101B60000205AC4506D045F28045C5F60205AC45F8
:101B700040F0CA80456EC66E002E866E6E601CBF39
:101B8000D0E91C566E60A44515DC9F24C4F2020403
:101B9000A4452BDC5724C4F20204A4454EDC1024D7
:101BA000C4F20204A44576D02824C4F20204A44559
:101BB00071D040246BE045F22F44C5F60204A445E1
:101BC00027DC40F2B744C4F20204A44542DC40F2F0
:101BD0007044C4F20204A4455DD040F28844C4F2CB
:101BE0000204A44557D040F2A04450E040F22744FC
:101BF000C4F20204A4453CDCA024C4F20204A445BF
:101C000049D0B824C4F20204A44544D040F21044A0
:101C10003DE045F26B44C5F60204A4454CDC45F2B8
:101C20003044C5F60204A44558D045F24444C5F6F4
:101C30000204A44552D045F258444BE05824C4F263
:101C40000204A44527D07024C4F20204A44522D083
:101C500088241CE040F2B844C4F20204A4451AD01F
:101C600045F20844C5F60204A44537D045F21C44A9
:101C700030E040F22844C4F20204A4450BD040F204
:101C80004044C4F20204A44505D040F25844C4F2D2
:101C90000204A44538D18468C06D00F01F003F25C0
:101CA00005FA00F0CEF80800DCF80000402C20F423
:101CB0008020CCF800001BE045F26C44C5F602041D
:101CC000A4450BD045F28044C5F60204A44505D0D6
:101CD00045F29444C5F60204A44515D1C46D01250E
:101CE00004F01F04806805FA04F4CEF8044040288C
:101CF000CCF8043004D1CCF80820CCF80C1070BD1E
:101D0000CCF80810CCF80C2070BD000000000000DA
:101D1000B0B540F2700440F688050328C2F20044D2
:101D2000C2F2004536D002282DD0012845D141F21B
:101D30002800C2F200409FED221B0078B2EE042B77
:101D400000EE100A40F23050B7EE004BC2F20040F5
:101D5000B8EE400B80EE011B90ED000B40F2A84066
:101D600034EE414BC2F2004090ED003B83EE023B6B
:101D700080EE022B23EE040BA2EE010B94ED0A1B66
:101D800085ED001B10E0B2EE040B40F23050C2F2C1
:101D9000004005E0B2EE040B40F2A840C2F2004061
:101DA00090ED001B81EE000B204607F03DFF012067
:101DB00094ED0A0B85ED000BB0BD0020B0BD00BF57
:101DC0000000000000005940B4EE410BF1EE10FAA3
:101DD00008DCB0EE401BB4EE420BF1EE10FA01DA73
:101DE000B0EE421BB0EE410B704700000000000057
:101DF00080B540F23C5040F23821C2F20040C2F2BD
:101E00000041008891ED001B04EE100A40F23050B2
:101E100091ED022BC2F2004091ED043BB8EE444B31
:101E200080ED004BFEF7C8FE40F2105040F2082152
:101E3000C2F20040C2F2004190ED000BB0EEC02BA8
:101E4000B1EE401B9FED0E0B81ED001BB4EE402B5D
:101E500090ED021BF1EE10FA81ED021B02DD002174
:101E6000C0E90011B0EEC11BB4EE401BF1EE10FA58
:101E700002DD0021C0E90211012080BD00BF00BFCA
:101E80000000000000005940B0B52DED0C8B92B061
:101E9000B0EE408B40F6DA6CC2F2004C9CF80010B9
:101EA000002946D0B3EE001B40F6BA51C2F2004101
:101EB00000229FED8B0B68310DF1300E9FED8A2BC8
:101EC00006AD6C469FED8A3B31F9020BB1F910303B
:101ED00004EE100AB1F9040005EE100A0EEB020040
:101EE000B8EEC44BB8EEC55B24EE004B25EE005BAC
:101EF00024EE014B80ED004B04EE103AA81825EEBD
:101F0000025BB8EEC44B80ED005BA018083224EEF3
:101F1000004B182A24EE034B80ED004BD4D19CF8E3
:101F20000000C00705D09CF8000000F0FE008CF80F
:101F300000009CF80000800705D59CF8000000F028
:101F4000FD008CF800009CF80000400705D59CF8C7
:101F5000000000F0FB008CF800009CF80000000777
:101F600005D59CF8000000F0F7008CF8000040F266
:101F7000302040F2D014C2F2004040F2B815C2F254
:101F80000044C2F200450178132924D8B3EE041BA3
:101F900040F22022C2F2004201319DED022B01707D
:101FA00082EE012B92ED003B33EE022B9DED000BF8
:101FB00082ED002B40F2282280EE010BC2F200429B
:101FC00092ED001B31EE000B82ED000B95ED02ABA4
:101FD00094ED000B2AE006A89DED0C0B9DED101B67
:101FE00085ED000B85ED041B90EC060B40F23820CC
:101FF000C2F200409DED0EAB80EC060B40F22820B3
:10200000C2F200409DEC041B90ED000B40F220203A
:1020100031EE400BC2F2004090ED001B85ED02ABAB
:1020200032EE411B9DED042B84EC060B9FED32BB81
:1020300020EE0B0B9FED2ECB80EE0C0B08F03CF846
:1020400094ED021B21EE0B1BB0EE409B81EE0C1BAE
:10205000B0EE410B07F0D8FF94ED021B21EE0B1BF5
:10206000A9EE40AB81EE0C1B9FED25DBB0EE410BE2
:102070002AEE0D9B95ED00AB08F01EF894ED021BC7
:1020800021EE0B1B3AEE000B81EE0C1B20EE0DAB8C
:10209000B0EE410B07F0B8FF94ED000B20EE0B0BF8
:1020A00080EE0C0B07F0B0FF2AEE080B40F6F8416B
:1020B000C2F200410120B2EE043B91EC041B29EE78
:1020C000084BA0EE031BA4EE032B81ED001B81ED5A
:1020D000022B12B0BDEC0C8BB0BD00BF00BF00BF27
:1020E000000000000000003F0000000000409F4092
:1020F0000000000000806640182D4454FB21094078
:102100001F85EB51B89E234080B50020502107F079
:10211000BDFB42F24910C0F6000007F0ACFB48F2EC
:102120002940C0F6000007F04FFC48F2E130C0F64D
:10213000000007F0C1FB062007F07FFC0B2007F032
:102140004EFC012080BD704701F0E0BBEFF3108032
:1021500072B600BFFEE700002DED048B9FED264B0D
:1021600021EE041B90ED008B21EE025BB7EE001B0D
:1021700081EE055B35EE015B81EE056B90ED065B54
:1021800033EE453B33EE487B23EE039BA6EE078BF5
:1021900080ED008B28EE087B9FED196B39EE078BE5
:1021A00080ED029BB5EE408BF1EE10FA0FD087EE7A
:1021B000087BB5EE407BF1EE10FA08DBB0EE416B28
:1021C000B4EE417BF1EE10FA01DCB0EE476B26EE87
:1021D000000B80ED046B20EE040B20EE020B81EE71
:1021E000000B30EE010B81EE000BA0EE035B80EDE7
:1021F000065BBDEC048B704700000060B81E094010
:102200000000000000000000B4EE410BF1EE10FAF7
:1022100008DCB0EE401BB4EE420BF1EE10FA01DA2E
:10222000B0EE421BB0EE410B704700002DE9F041CB
:10223000044601F058FC14B3054694F83500022812
:1022400020D140F20F472668C4F2020740F26F48DF
:10225000BE426FF00E00C4F2020816DC6F21C4F219
:1022600002018E4222DC3F21C4F202018E4238DCA0
:102270001021C4F202018E4257D0282150E00120E3
:10228000BDE8F081802060650DE146451ADC40F232
:102290003F41C4F202018E422ADC40F21041C4F2F6
:1022A00002018E4241D040F2284139E09F21C4F220
:1022B00002018E4225DC7021C4F202018E4234D02C
:1022C00088212DE040F29F41C4F202018E421FDCC2
:1022D00040F27041C4F202018E4226D040F28841A1
:1022E0001EE04021C4F202018E421ED0582117E0A8
:1022F00040F24041C4F202018E4216D040F25841F1
:102300000EE0A021C4F202018E420ED0B82107E0F7
:1023100040F2B841C4F202018E4206D040F2A04120
:10232000C4F202018E42314607D13146306820F0B6
:102330001E0041F8140B6FF080000A68464500EA61
:102340000200086017DC9F20C4F2020086422DDCE8
:102350005720C4F20200864250DC1020C4F2020072
:10236000864200F089802820C4F20200864200F0F4
:10237000838040206BE045F22F40C5F60200864284
:1023800027DC40F2B740C4F20200864242DC40F251
:102390007040C4F2020086426ED040F28840C4F21F
:1023A0000200864268D040F2A04050E040F2274050
:1023B000C4F2020086423CDCA020C4F20200864245
:1023C0005AD0B820C4F20200864255D040F21040E4
:1023D0003DE045F26B40C5F6020086423ADC45F22C
:1023E0003040C5F60200864246D045F24440C5F66C
:1023F0000200864240D045F2584039E05820C4F2ED
:102400000200864238D07020C4F20200864233D0E7
:1024100088201CE040F2B840C4F2020086422BD073
:1024200045F20840C5F60200864225D045F21C4020
:102430001EE040F22840C4F2020086421CD040F266
:102440004040C4F20200864216D040F25840C4F226
:1024500002000FE045F26C40C5F6020086420BD048
:1024600045F29440C5F60200864205D045F2804010
:10247000C5F60200864204D1206E016821F4807105
:102480000160306820F00100306000BF3068C00794
:102490000BD001F028FB401B0628F7D320206065F5
:1024A000032084F83500012018E120680821B84293
:1024B0004FF03F0210DC6F23C4F2020398421CDC91
:1024C0003F23C4F20203984232DC1023C4F2020319
:1024D000984251D028234AE040451ADC40F23F435D
:1024E000C4F2020398422ADC40F21043C4F2020311
:1024F000984241D040F2284339E09F23C4F20203BE
:10250000984225DC7023C4F20203984234D0882319
:102510002DE040F29F43C4F2020398421FDC40F2D8
:102520007043C4F20203984226D040F288431EE072
:102530004023C4F2020398421ED0582317E040F211
:102540004043C4F20203984216D040F258430EE0D2
:10255000A023C4F2020398420ED0B82307E040F251
:10256000A043C4F20203984206D040F2B843C4F23A
:102570000203984240F0B780D4E9163707F01F07EE
:10258000404502FA07F25A5017DC9F21C4F20201BB
:1025900088422DDC5721C4F20201884250DC102110
:1025A000C4F20201884200F089802821C4F20201AD
:1025B000884200F0838040216BE045F22F41C5F650
:1025C0000201884227DC40F2B741C4F2020188428E
:1025D00042DC40F27041C4F2020188426ED040F207
:1025E0008841C4F20201884268D040F2A04150E024
:1025F00040F22741C4F2020188423CDCA021C4F22F
:10260000020188425AD0B821C4F20201884255D052
:1026100040F210413DE045F26B41C5F602018842AF
:102620003ADC45F23041C5F60201884246D045F217
:102630004441C5F60201884240D045F2584139E094
:102640005821C4F20201884238D07021C4F202013C
:10265000884233D088211CE040F2B841C4F2020124
:1026600088422BD045F20841C5F60201884225D0A8
:1026700045F21C411EE040F22841C4F202018842AA
:102680001CD040F24041C4F20201884216D040F210
:102690005841C4F202010FE045F26C41C5F6020157
:1026A00088420BD045F29441C5F60201884205D01C
:1026B00045F28041C5F6020188420BD1616EA26EDF
:1026C000E06E4A6030B1016821F480710160D4E9A4
:1026D0001C014160012084F835000020002184F8AD
:1026E0003410BDE8F0810421012245E7F0B190F8F3
:1026F0003510022918D180B540F20F420168C4F2AA
:102700000202914214DC6F23C4F20203994224DCDA
:102710003F23C4F2020399423ADC1023C4F20203BD
:10272000994258D0282352E0802141650121C2E01E
:1027300040F26F43C4F2020399421ADC40F23F4375
:10274000C4F2020399422ADC40F21043C4F20203AD
:10275000994240D040F2284339E09F23C4F202035B
:10276000994225DC7023C4F20203994233D08823B6
:102770002DE040F29F43C4F2020399421FDC40F275
:102780007043C4F20203994225D040F288431EE010
:102790004023C4F2020399421DD0582317E040F2AF
:1027A0004043C4F20203994215D040F258430EE070
:1027B000A023C4F2020399420DD0B82307E040F2EF
:1027C000B843C4F20203994205D040F2A043C4F2D8
:1027D0000203994271D191424FF0040280F83520F2
:1027E00010DC6F20C4F20200814220DC3F20C4F2E2
:1027F0000200814236DC1020C4F20200814253D034
:1028000028204EE040F26F40C4F2020081421ADC00
:1028100040F23F40C4F2020081422ADC40F2104004
:10282000C4F2020081423FD040F2284039E09F20AC
:10283000C4F20200814225DC7020C4F20200814211
:1028400032D088202DE040F29F40C4F20200814245
:102850001FDC40F27040C4F20200814224D040F2FA
:1028600088401EE04020C4F2020081421CD0582063
:1028700017E040F24040C4F20200814214D040F21E
:1028800058400EE0A020C4F2020081420CD0B820D3
:1028900007E040F2B840C4F20200814204D040F2A6
:1028A000A040C4F202008142086820F001000860E4
:1028B0000021BDE88040084670470A6822F00E02F9
:1028C0000A6045F25742C5F6020291420A6822F0B8
:1028D00001020A600EDC45F22F42C5F60202914267
:1028E00017DC45F20842C5F60202914226D045F2B5
:1028F0001C421FE045F27F42C5F60202914211DC04
:1029000045F25842C5F60202914217D045F26C4298
:1029100010E045F23042C5F6020291420ED045F277
:10292000444207E045F29442C5F60202914205D0C6
:1029300045F28042C5F6020291421AD1D0E9181C34
:10294000D0E916E30A6822F480720A6003F01F01DE
:10295000012202FA01F1CEF80410816ECCF80410C5
:10296000C16E31B10A6822F480720A60D0E91C128B
:102970004A60012180F83510026D0021002A80F89C
:10298000341096D0904793E72DE9F04782B00021AC
:10299000019140F2A8110446C2F2004148F2B5127A
:1029A000C1F64E32A56D096840F26F490068C4F265
:1029B0000209A1FB021848452E68296815DC9F21F1
:1029C000C4F2020188422BDC5721C4F20201884282
:1029D0004FDC1021C4F20201884278D02821C4F2D1
:1029E0000201884273D040216CE045F22F42C5F6C7
:1029F0000202904227DC40F2B742C4F20202904247
:102A000043DC40F27041C4F2020188425FD040F2E0
:102A10008841C4F20201884259D040F2A04151E0FD
:102A200040F22741C4F2020188423DDCA021C4F2F9
:102A3000020188424BD0B821C4F20201884246D03C
:102A400040F210413EE045F26B42C5F60202904270
:102A500073DC45F23042C5F60202904200F08080FD
:102A600045F24442C5F60202904279D045F25842FE
:102A700071E05821C4F20201884228D07021C4F2CA
:102A80000201884223D088211CE040F2B842C4F2FF
:102A9000020290421BD045F20842C5F60202904263
:102AA0005ED045F21C4256E040F22841C4F20201D9
:102AB00088420CD040F24041C4F20201884206D064
:102AC00040F25841C4F20201884240F01183E16DA6
:102AD000082201F01F0140F20F4A8A40C4F2020AA4
:102AE000324200F0D18050454FF0040312DC6F27D2
:102AF000C4F20207B84264DC3F27C4F20207B842BE
:102B000000F392801027C4F20207B84200F0B080B0
:102B10002827A8E0484560DC40F23F47C4F202079E
:102B2000B84200F3888040F21047C4F20207B8426E
:102B300000F09E8040F2284795E045F26C42C5F6D1
:102B4000020290420CD045F28042C5F60202904249
:102B500006D045F29442C5F60202904240F0C88287
:102B60000268E36D03F01F0304279F400F4218BF64
:102B700012F004061BD102279F400F4218BF12F02B
:102B8000020639D1D940090740F1B28212F008019A
:102B900000F0AE82016821F00E010160012000FA10
:102BA00003F16960606584F83500E16C58E2110456
:102BB0006F6033D4910635D4016821F004010160BF
:102BC00030E09F27C4F20207B8423DDC7027C4F210
:102BD0000207B8424CD0882745E040F29F47C4F234
:102BE0000207B84237DC40F27047C4F20207B8422D
:102BF0003ED040F2884736E011046F6000F17B82DE
:102C0000910600F17C82016821F00A010160012037
:102C100084F83500002084F8340070E2D00301D439
:102C2000A16C5FE2216C5DE24027C4F20207B8426A
:102C30001ED0582717E040F24047C4F20207B842BE
:102C400016D040F258470EE0A027C4F20207B8425F
:102C50000ED0B82707E040F2A047C4F20207B842FE
:102C600006D040F2B847C4F20207B84218BF0823A2
:102C700007681F4208D0036823F004030360AA60BA
:102C8000626D42F00102626501228A4032426AD0DE
:102C9000504510DC6F23C4F2020398421CDC3F2332
:102CA000C4F20203984232DC1023C4F202039842B9
:102CB00051D028234AE048451ADC40F23F43C4F291
:102CC000020398422ADC40F21043C4F20203984205
:102CD00041D040F2284339E09F23C4F202039842D6
:102CE00025DC7023C4F20203984234D088232DE0FF
:102CF00040F29F43C4F2020398421FDC40F270434B
:102D0000C4F20203984226D040F288431EE04023DA
:102D1000C4F2020398421ED0582317E040F2404309
:102D2000C4F20203984216D040F258430EE0A023AA
:102D3000C4F2020398420ED0B82307E040F2A04349
:102D4000C4F20203984206D040F2B843C4F2020330
:102D5000984240F0D68143691B0604D5AA60626D93
:102D600042F00202626504228A4032426AD0504533
:102D700010DC6F23C4F2020398421CDC3F23C4F230
:102D80000203984232DC1023C4F20203984251D06D
:102D900028234AE048451ADC40F23F43C4F20203CC
:102DA00098422ADC40F21043C4F20203984241D018
:102DB00040F2284339E09F23C4F20203984225DC05
:102DC0007023C4F20203984234D088232DE040F2ED
:102DD0009F43C4F2020398421FDC40F27043C4F2E6
:102DE0000203984226D040F288431EE04023C4F2FA
:102DF000020398421ED0582317E040F24043C4F229
:102E00000203984216D040F258430EE0A023C4F2C9
:102E1000020398420ED0B82307E040F2A043C4F268
:102E20000203984206D040F2B843C4F2020398422B
:102E300040F0698103689B0704D5AA60626D42F087
:102E400004026265102202FA01F131427BD0504542
:102E50004FF0080210DC6F23C4F2020398421CDC1E
:102E60003F23C4F20203984232DC1023C4F202036F
:102E7000984251D028234AE048451ADC40F23F43AB
:102E8000C4F2020398422ADC40F21043C4F2020367
:102E9000984241D040F2284339E09F23C4F2020314
:102EA000984225DC7023C4F20203984234D0882370
:102EB0002DE040F29F43C4F2020398421FDC40F22F
:102EC0007043C4F20203984226D040F288431EE0C9
:102ED0004023C4F2020398421ED0582317E040F268
:102EE0004043C4F20203984216D040F258430EE029
:102EF000A023C4F2020398420ED0B82307E040F2A8
:102F0000A043C4F20203984206D040F2B843C4F290
:102F10000203984218BF04220368134213D0A96029
:102F200001684903016806D4C90506D4016821F087
:102F30000801016001E0080301D4216C00E0A16CEC
:102F400009B120468847E06D00F01F01202000FAFB
:102F500001F2324200F0A28020681023504510DCBC
:102F60006F27C4F20207B8421CDC3F27C4F20207F5
:102F7000B84232DC1027C4F20207B84251D02827E9
:102F80004AE048451ADC40F23F47C4F20207B84223
:102F90002ADC40F21047C4F20207B84241D040F2A6
:102FA000284739E09F27C4F20207B84225DC702782
:102FB000C4F20207B84234D088272DE040F29F4780
:102FC000C4F20207B8421FDC40F27047C4F20207A5
:102FD000B84226D040F288471EE04027C4F20207DC
:102FE000B8421ED0582717E040F24047C4F202070B
:102FF000B84216D040F258470EE0A027C4F20207AC
:10300000B8420ED0B82707E040F2A047C4F202074A
:10301000B84206D040F2B847C4F20207B84218BF1F
:10302000022307681F4239D0AA6094F83520042A89
:1030300002681BD122F016020260426922F080026F
:103040004261226C0AB9A26C1AB1026822F008022D
:1030500002603F208840A860012084F83500216D7F
:103060004FF0000084F83400E9BB41E051030168EF
:103070000CD4C9050ED4016821F0100101600120B3
:1030800084F83500002084F8340003E0080301D4FC
:10309000616C00E0E16B09B120468847606D38B390
:1030A000606DC0071DD0042084F8350020684FEA09
:1030B0009821026822F00102026000BF019A0132E9
:1030C00001928A4202D80268D207F7D10068C0078D
:1030D0004FF0030008BF012084F83500002084F879
:1030E0003400E16C21B1204602B0BDE8F04708474A
:1030F00002B0BDE8F087D00301D4616CF2E7E16B68
:10310000F0E702682FE602689CE600002DE9F04136
:10311000044600F0E8FC002C00F0AC8040F26F4860
:1031200005462068C4F20208404515DC9F21C4F220
:10313000020188422BDC5721C4F20201884251DC93
:103140001021C4F2020188427BD02821C4F202017E
:10315000884276D040216FE045F22F41C5F602014A
:10316000884227DC40F2B741C4F20201884245DCC4
:1031700040F27041C4F20201884262D040F28841BC
:10318000C4F2020188425CD040F2A04154E040F217
:103190002741C4F20201884240DCA021C4F20201AE
:1031A00088424ED0B821C4F20201884249D040F290
:1031B000104141E045F26B41C5F60201884200F33F
:1031C000AC8045F23041C5F60201884200F0B7807C
:1031D00045F24441C5F60201884200F0B08045F254
:1031E0005841A8E05821C4F20201884229D0702138
:1031F000C4F20201884224D088211DE040F2B84187
:10320000C4F2020188421CD045F20841C5F6020111
:10321000884200F0948045F21C418CE040F2284145
:10322000C4F2020188420CD040F24041C4F20201D3
:10323000884206D040F25841C4F20201884240F070
:10324000BA80022184F83510002184F83410016816
:1032500021F00101016000BF20680168C9070CD09E
:1032600000F041FC401B0628F6D3202060650320B7
:1032700084F835000120BDE8F08148F23F0204F1F6
:1032800008060168CFF61062114065694CCE114303
:10329000A2691943E3693143266A0D43616A2B43EE
:1032A000042943EA060343EA020303D1D4E90B6588
:1032B0002E43334341F20006C5F600463668B6F1A8
:1032C000005F0FD36568A5F129061F2E00F25D810E
:1032D0000127B7403F26CCF2C036374200F0558177
:1032E00043F4801303600429436923F0070341EA90
:1032F000030140F07B80D4E90A53002B41EA050129
:1033000074D0B2F5005F58D0002A62D1022D63D08C
:10331000012D58D0002D5FD068E045F26C41C5F614
:10332000020188420BD045F28041C5F60201884275
:1033300005D045F29441C5F6020188423BD104F123
:10334000080E022184F83510002184F83410016839
:10335000A3699EE80450A2F18005E769B5FA85F5F6
:1033600066696D09402A4FEA853543EA07026FF323
:10337000101142EA060208BF102541EADC0142EAC8
:103380000E02236A294341EAD20141EA131140F8AF
:103390000819C0B2CD2148433C2101EA9020E065E4
:1033A0002046FEF7E3F9E16D012201F01F0102FA68
:1033B00001F1416025E0402058E7032D16D8DFE8F1
:1033C00005F00E0B0E02A3F1C072B2FA82F252099E
:1033D00004E0032D03D309D1C3F3006232B14020CE
:1033E0006065012084F83500BDE8F0814161204628
:1033F000FEF7BCF9E16D3F2201F01F0102FA01F175
:1034000081602068404517DC9F21C4F20201884298
:103410002DDC5721C4F20201884250DC1021C4F295
:103420000201884200F089802821C4F2020188420A
:1034300000F0838040216BE045F22F41C5F6020188
:10344000884227DC40F2B741C4F20201884242DCE4
:1034500040F27041C4F2020188426ED040F28841CD
:10346000C4F20201884268D040F2A04150E040F22C
:103470002741C4F2020188423CDCA021C4F20201CF
:1034800088425AD0B821C4F20201884255D040F295
:1034900010413DE045F26B41C5F6020188423ADC3D
:1034A00045F23041C5F60201884246D045F244411A
:1034B000C5F60201884240D045F2584139E0582112
:1034C000C4F20201884238D07021C4F2020188425D
:1034D00033D088211CE040F2B841C4F20201884296
:1034E0002BD045F20841C5F60201884225D045F2AD
:1034F0001C411EE040F22841C4F2020188421CD067
:1035000040F24041C4F20201884216D040F25841D4
:10351000C4F202010FE045F26C41C5F60201884297
:103520000BD045F29441C5F60201884205D045F220
:103530008041C5F60201884220D12046FEF7A2F95B
:10354000A068802802D10020606000E06068C1B2FD
:1035500004F1600701388CCF072811605F6009D83B
:103560002046FEF709FA04F16C02002307CA036043
:103570004A6003E000206067C4E91B00002060652A
:10358000012184F83510BDE8F081A5F14F07042F23
:1035900038BF43F48013A5E638B1B0B5054690F8BE
:1035A0003400012803D10220B0BD01207047012062
:1035B00085F8340095F83500012828D1022085F8D7
:1035C0003500002068652868046824F00104046060
:1035D0002846FEF72AFA40F20F422868C4F2020297
:1035E00040F26F419042C4F2020118DC6F23C4F232
:1035F0000203984224DC3F23C4F2020398423ADCDF
:103600001023C4F20203984259D0282352E04FF409
:1036100000606865002085F834000120B0BD884254
:103620001ADC40F23F43C4F2020398422ADC40F223
:103630001043C4F20203984241D040F2284339E0DB
:103640009F23C4F20203984225DC7023C4F20203D4
:10365000984234D088232DE040F29F43C4F2020305
:1036600098421FDC40F27043C4F20203984226D015
:1036700040F288431EE04023C4F2020398421ED069
:10368000582317E040F24043C4F20203984216D098
:1036900040F258430EE0A023C4F2020398420ED039
:1036A000B82307E040F2B843C4F20203984206D0C0
:1036B00040F2A043C4F20203984240F01B81036829
:1036C0000B2464F3440303602B6C1BB108230468D0
:1036D00023430360884217DC9F23C4F2020398420D
:1036E0002DDC5723C4F20203984250DC1023C4F2AD
:1036F0000203984200F089802823C4F20203984212
:1037000000F0838040236BE045F22F43C5F60203AF
:10371000984227DC40F2B743C4F20203984242DCED
:1037200040F27043C4F2020398426ED040F28843E4
:10373000C4F20203984268D040F2A04350E040F245
:103740002743C4F2020398423CDCA023C4F20203E4
:1037500098425AD0B823C4F20203984255D040F29E
:1037600010433DE045F26B43C5F6020398423ADC54
:1037700045F23043C5F60203984246D045F2444331
:10378000C5F60203984240D045F2584339E0582329
:10379000C4F20203984238D07023C4F20203984264
:1037A00033D088231CE040F2B843C4F202039842AD
:1037B0002BD045F20843C5F60203984225D045F2C6
:1037C0001C431EE040F22843C4F2020398421CD07E
:1037D00040F24043C4F20203984216D040F25843EC
:1037E000C4F202030FE045F26C43C5F602039842AF
:1037F0000BD045F29443C5F60203984205D045F23A
:103800008043C5F6020398426ED12B6E1C68E40318
:1038100003D51C6844F480741C60EB6E1BB11D68FA
:1038200045F480751D60904210DC6F21C4F20201E6
:1038300088421CDC3F21C4F20201884232DC1021A4
:10384000C4F2020188424FD028214AE088421ADCA3
:1038500040F23F41C4F2020188422ADC40F21041AA
:10386000C4F2020188423FD040F2284139E09F2152
:10387000C4F20201884225DC7021C4F202018842B0
:1038800032D088212DE040F29F41C4F202018842EB
:103890001FDC40F27041C4F20201884224D040F2A1
:1038A00088411EE04021C4F2020188421CD0582108
:1038B00017E040F24041C4F20201884214D040F2C5
:1038C00058410EE0A021C4F2020188420CD0B82178
:1038D00007E040F2B841C4F20201884204D040F24D
:1038E000A041C4F202018842016841F00101016077
:1038F0000020B0BD0368052464F3430303602B6C10
:10390000002B3FF4E7AE0423E1E60000B0B5044627
:1039100000F0E9F840F2B2110546C2F20041621C23
:10392000097818BF0C4400BF00F0DDF8401BA0422E
:10393000FAD3B0BD2DE9F04F83B00F68002F00F02F
:10394000C88000F1264642F2004506F1FF76C5F632
:1039500002050A22A8424FEAB62540F2040C08BF2D
:10396000092200F120030093092DC5F6000C38BF91
:103970004FEAB622002400264FF00008019200BF53
:10398000012202FA08FE17EA0E0900F09780D1F82A
:1039900004B003220BF00307B2407D1E6FEA020A57
:1039A000012D11D88268CD6802EA0A02B5402A4387
:1039B0008260CBF30015426822EA0E0205FA08F590
:1039C0002A43426004E000BF032F01D103271FE018
:1039D000C2688D6802EA0A02B540022F42EA050277
:1039E000C26015D16FF0030204F01C0502EA580B07
:1039F000009A0F2352F80BE0AB400F692EEA030345
:103A0000AF403B4342F80B30D1F804B00BF0030752
:103A1000026807FA06F302EA0A021BF4403F42EA90
:103A2000030202604AD044F2F44340F2084EC5F665
:103A30000203C5F6000E0F251A6842F002021A6052
:103A40001A6802F00202029228F00302029B04F0BC
:103A50000C0352F80E709D40AF43019D05FA03F32D
:103A60003B4342F80E304FF0B04EDEF800204B687A
:103A700042EA0907DD0258BF22EA09079D02CEF893
:103A80000070DCF8002042EA090758BF22EA090763
:103A90009D03CCF80070DCF8802042EA090758BF8B
:103AA00022EA0907DB03CCF88070DCF87C2042EACC
:103AB000090758BF22EA0907CCF87C7008F1010811
:103AC0000F6837FA08F206F1020604F104047FF4E5
:103AD00057AF03B0BDE8F08F41F20000C5F60040DB
:103AE0000068000C704741F24000C2F200400068DC
:103AF000704790F84120202A03D190F84020012AF5
:103B000001D1022118E0242280F8412002681368C4
:103B100023F001031360136823F4805313601368C8
:103B200019431160116841F001011160202180F8F2
:103B30004110002180F840100846704790F841205D
:103B4000202A03D190F84020012A01D1022117E058
:103B5000242280F841200268136823F001031360D7
:103B6000136823F4706343EA01211160116841F086
:103B700001011160202180F84110002180F84010DF
:103B80000846704708B310B5044690F8410028B9BC
:103B9000002084F84000204600F030FA242084F809
:103BA000410094E80910E2680168012A21F001014E
:103BB000016023F070610161816821F4004181603E
:103BC00005D14CF4004181600AE001207047022ACF
:103BD0004CF40441816003D1416841F4006102E08A
:103BE000416821F40061416004F1100C416841F02A
:103BF000007141F400414160C16821F40041C1609D
:103C00009CE80E10114341EA0321C160216A41EA98
:103C10000C010160016841F0010101600020606455
:103C2000202184F84110206384F8420010BD2DE962
:103C3000F04F81B0044690F8410020280DD1DDF806
:103C40002880B8F1000F0AD0DDF82CB0BBF1000FCE
:103C500005D094F84000012806D1022516E04FF463
:103C600000706064012511E01E4617468A46012552
:103C700084F84050FFF737FF81464FF4004101229E
:103C800019230090204603F079F918B1284601B0B5
:103C9000BDE8F08F222084F84100402084F84200E3
:103CA00049F6000000256564CFF60040F1B2C4F883
:103CB00024806FF39F2AA4F82AB0834620686563A6
:103CC0004AEA01414268DDF8308002EA0B02114401
:103CD0004A4601F5005141602046414603F0C4F9CF
:103CE000B0B9012E206808D0390A816220464146C9
:103CF0004A4603F0B9F958B92068F9B28162402107
:103D0000002220464346CDF8009003F037F910B169
:103D100084F84050A6E7608D0026C0F2FF16B0F58B
:103D2000807F08D3206806F5105350F8041F01EA7D
:103D30000B02FF210AE0618D2068CAB250F8043FEF
:103D400003EA0B0343EA024206F592331A43FF27C4
:103D50000BF5806542EA0A020260218504210022F7
:103D600020464346CDF8009003F008F900287FF480
:103D700079AF2068616A406A0870218D606A0130FD
:103D80006062481E2085618D01396185618D31B386
:103D9000000424D18021002220464346CDF8009023
:103DA00003F0ECF800287FF45DAF608DB0F5807F04
:103DB00006D320682785324650F8041F29400AE0C0
:103DC000618D20682185C9B250F8042F2A4042EA4B
:103DD00001414FF00072114341EA0A010160608D18
:103DE0000028BBD1204641464A4603F011F900287D
:103DF0007FF438AF206820214EF600030025C16112
:103E0000CFF6006342681A40426084F8411084F89B
:103E1000425084F8405039E72DE9F04F81B0044614
:103E200090F8410020280DD1DDF82880B8F1000F6E
:103E30000AD0DDF82CB0BBF1000F05D094F840009B
:103E4000012806D1022516E04FF4007060640125B8
:103E500011E01E4617468A46012584F84050FFF7B8
:103E600042FE81464FF40041012219230090204672
:103E700003F084F818B1284601B0BDE8F08F212086
:103E800084F84100402084F84200F1B200256FF32D
:103E90009F2A6564C4F824804AEA0141A4F82AB044
:103EA00049F6004B2068CFF6004B6563ABF58063A5
:103EB0004268DDF830801A4011444A4641F0807172
:103EC00041F4005141602046414603F0CDF8B0B9BD
:103ED000012E206808D0390A8162204641464A46B0
:103EE00003F0C2F858B92068F9B28162802100223B
:103EF00020464346CDF8009003F040F810B184F816
:103F00004050A4E7608D0026C0F2FF16B0F5807F18
:103F100007D32068334650F8041F01EA0B02FF2143
:103F20000AE0618D2068CAB250F8043F03EA0B032F
:103F300043EA02424FF000731A43FF2742EA0A02A3
:103F400002602185204641464A4603F08DF800284C
:103F50007FF47DAF606A216810F8012B8A6260628D
:103F6000608D01386085208D01382085618D41B3D9
:103F7000000426D18021002220464346CDF800903F
:103F800002F0FCFF00287FF462AF608DB0F5807F07
:103F900007D320682785324650F8041F01EA0B0139
:103FA0000BE0618D20682185C9B250F8042F02EA28
:103FB0000B0242EA01414FF00072114341EA0A014B
:103FC0000160608D0028BDD1204641464A4603F07D
:103FD0001FF800287FF43BAF206820214EF6000335
:103FE0000025C161CFF6006342681A40426084F840
:103FF000411084F8425084F840503CE7B0B5B8B066
:10400000044633A81421FCF7ADF902A8B821083002
:10401000FCF7A8F945F600012068C4F200018842C7
:104020002FD10820029002A80024039400F09AFAED
:1040300008B1FEF78BF844F2E04533A9C5F6020556
:10404000286840F002002860286800F00200019013
:1040500001984FF4406033901220CDE934040420DD
:10406000379040F200403694C5F60200FFF762FC3C
:10407000A86840F48000A860A86800F4800001905F
:10408000019838B0B0BD40F2B21041F24001C2F226
:104090000040C2F2004100780A681044086070478E
:1040A00080B5032000F0F2F801F08AF844F21841DC
:1040B0004BF2A403C5F60201C0F600030A68C2F37E
:1040C00003229A5C096801F00F0102F01F02595C9B
:1040D000D04040F2AC12C2F2004201F01F0120FABF
:1040E00001F1116040F2A811C2F200410860032002
:1040F00000F007F808B1012080BD00F078F800203A
:1041000080BDB0B540F2B211C2F200410978F9B1F8
:10411000044640F2A810C2F200404FF47A72B2FB9B
:10412000F1F10068B0FBF1F001F068FB0F2C4FF0EB
:1041300001050ED868B94FF0FF3000222146002556
:1041400000F077F840F2B410C2F20040046000E0E2
:1041500001252846B0BD10B54EF6985E4378CEF2E4
:10416000000E90F800C0CEF80030DEF8083023F0E2
:104170000103CEF808304368CEF80430037BC27ADE
:10418000817A447B120642EA0372837B42EAC14190
:10419000C27B41EA8441447A41EA4341007A41EAE0
:1041A000024141EA042141EA400040EA0C00CEF815
:1041B000080010BD4EF62450CEF20000BFF35F8F12
:1041C000016821F4803101600021016770474EF6DB
:1041D000245140F00100CEF200010867086840F465
:1041E00080300860BFF34F8FBFF36F8F704781B08F
:1041F00044F2F440C5F60200016841F0020101609A
:10420000006800F0020000900520009901B000F065
:104210003DB800280CD400F01F01012202FA01F180
:104220004EF20012C0F34A10CEF2000242F8201003
:10423000704770B54EF60C5C4FF0FF36CEF2000CB6
:1042400000F1604505F56445DCF80030C3F3022E4B
:104250008EF00703042B28BF0423BEF1030406FAE3
:1042600003F321EA030100F00F0338BF0024043BED
:104270000028634406FA04F048BF03F10C05A1408E
:1042800022EA000008430001287070BD4EF60C5170
:104290004FF6FF03CEF200010A681A4060F30A22CB
:1042A00042F0806040F0FD7008607047B0B544F6A1
:1042B0000C05C5F6020529684907296805D401F0EF
:1042C0000701081A18BF0120B0BD21F007010843FB
:1042D0002860FFF708FC044655F8080C800407D452
:1042E000FFF701FC001BB0F57A7FF5D90120B0BDC6
:1042F0000020B0BD80B500F016FF44F220414BF223
:10430000A402C5F60201C0F600020968C1F3021159
:10431000515C01F01F01C84080BD000080B544F22F
:10432000004EC5F6020EDEF82830DEF82810DEF862
:104330002C20C1F3053CDEF83C10BCF1000F15D079
:10434000C908D20601EAE2716FF35F3100EE101A7C
:1043500003F003010229B8EE400A0BD069B9DEF878
:10436000001089060CD49FED341A17E00021C0E933
:1043700000115BE09FED2F1A10E09FED2D1A0DE06C
:10438000DEF8001049F20002C0F2D032C1F3C101E0
:1043900022FA01F101EE101AB8EE411ADEF83810D7
:1043A0009FED263A6FF35F2102EE101ADEF8381007
:1043B000C1F34621B8EE422A00EE032A00EE10CAED
:1043C000B7EE003AB8EE400A81EE000A32EE031A68
:1043D00002EE101AB8EE422A20EE010A32EE031A5B
:1043E00080EE011ABCEEC11A80ED001ADEF838101A
:1043F000C1F3064101EE101AB8EE411A31EE031A6C
:1044000080EE011ABCEEC11A80ED011ADEF83810F8
:10441000C1F3066101EE101AB8EE411A31EE031A2B
:1044200080EE010ABCEEC00A10EE101A816080BD59
:104430000024744A20BCBE4B0024744C0000003998
:1044400080B544F2004EC5F6020EDEF82830DEF8E4
:104450002810DEF82C20C1F3055CDEF84410BCF116
:10446000000F15D0C908D20501EAE2716FF35F3180
:1044700000EE101A03F003010229B8EE400A0BD037
:1044800069B9DEF8001089060CD49FED341A17E0E4
:104490000021C0E900115BE09FED2F1A10E09FEDB5
:1044A0002D1A0DE0DEF8001049F20002C0F2D03201
:1044B000C1F3C10122FA01F101EE101AB8EE411A5E
:1044C000DEF840109FED263A6FF35F2102EE101ADE
:1044D000DEF84010C1F34621B8EE422A00EE032A6E
:1044E00000EE10CAB7EE003AB8EE400A81EE000ABC
:1044F00032EE031A02EE101AB8EE422A20EE010A3A
:1045000032EE031A80EE011ABCEEC11A80ED001AD9
:10451000DEF84010C1F3064101EE101AB8EE411A60
:1045200031EE031A80EE011ABCEEC11A80ED011AB9
:10453000DEF84010C1F3066101EE101AB8EE411A20
:1045400031EE031A80EE010ABCEEC00A10EE101A1A
:10455000816080BD0024744A20BCBE4B0024744C92
:10456000000000392DE9F0470446C07844F21048B5
:104570000007C5F6020824D5A06E4FEA3051032982
:1045800037D8DFE801F002090F17D8F81C1041F402
:104590000031C8F81C100DE004F10800022103F0FE
:1045A0007DF904E004F12800022103F0FBF906463E
:1045B00040B9A06ED8F8401021F440110843C8F863
:1045C000400000266078C00701D135462AE0A06D82
:1045D000042800F21B813546DFE800F003130D19B3
:1045E0001900D8F81C00354640F40030C8F81C000B
:1045F0000DE00126E6E704F12800002103F0D2F9DE
:1046000004E004F10800002103F048F905462F46B4
:104610004DB9D8F84000A16D20F0070000250843EF
:10462000C8F8400037466078800728D5E06D4FEA2B
:10463000B010042800F2ED80DFE800F003100A1645
:104640001600D8F81C0040F40030C8F81C000BE03D
:1046500004F12800002103F0A5F904E004F10800AA
:10466000002103F01BF905462E464DB9D8F840004D
:10467000E16D20F4E07000250843C8F840003E4694
:10468000607840072AD5D4F8A8004FEA7050042873
:1046900000F2C280DFE800F003100A161600D8F816
:1046A0001C0040F40030C8F81C000BE004F12800A6
:1046B000002103F077F904E004F10800002103F081
:1046C000EDF80546A94655B9D8F84800D4F8A81021
:1046D00020F4600000250843C8F84800B14660781F
:1046E00000072AD5D4F8AC004FEA3060042800F265
:1046F0009780DFE800F003100A161600D8F81C00B7
:1047000040F40030C8F81C000BE004F12800002140
:1047100003F048F904E004F10800002103F0BEF8BA
:1047200005462F4655B9D8F84800D4F8AC1020F00B
:10473000E06000250843C8F848004F46E07880074D
:1047400020D5E06C4FEA3010032830D8DFE800F0C5
:104750000F02090FD8F81C0040F40030C8F81C0004
:1047600005E004F10800022103F098F805462E4602
:104770004DB9D8F83C00E16C20F03000002508432A
:10478000C8F83C003E466078C0062AD5206E4FEA45
:104790003030042847D8DFE800F003130D19190062
:1047A000D8F81C0040F40030C8F81C000EE00125C9
:1047B0000126E8E704F12800002103F0F3F804E003
:1047C00004F10800002103F069F805462F464DB9B1
:1047D000D8F84000216E20F4E04000250843C8F8D6
:1047E000400037466078800631D5606E4FEA304031
:1047F000052800F23F83DFE800F01F03191F1F1F89
:1048000004F10800012103F049F814E00125012713
:1048100009E70125012633E701254FF001095EE78D
:10482000012501278AE701250127DBE704F128009C
:10483000012103F0B7F805462E464DB9D8F84000DF
:10484000616E20F4E02000250843C8F840003E4691
:104850006078400623D5D4F8B0004FEA30700528C0
:1048600000F20B83DFE800F00F03090F0F0F04F1D4
:104870000800012103F012F804E004F128000121EE
:1048800003F090F805462F4655B9D8F84800D4F8FB
:10489000B01020F0E04000250843C8F84800374633
:1048A000607800061FD5206F90B1B0F1005F09D08D
:1048B000B0F1805F29D1D8F81C0040F40030C8F86E
:1048C0001C0005E004F10800012102F0E7FF0546A5
:1048D0002E464DB9D8F84000216F20F040500025F9
:1048E0000843C8F840003E46E078C00721D0A06CDD
:1048F00003284FD8DFE800F012020C12D8F81C0091
:1049000040F40030C8F81C0008E001250126EBE760
:1049100004F10800022102F0C1FF0546A9464DB985
:10492000D8F83C00A16C20F0030000250843C8F82B
:104930003C00B146A078400601D44F4616E0D8F8B6
:10494000F00340F48070C8F8F003FFF7CCF8064697
:10495000D8F8F003C00507D4FFF7C5F8801B64281A
:10496000F6D90325032701E02F46BDB12078C00703
:1049700056D0E06F4FEAF000052800F28182DFE8B0
:1049800000F044033E44444404F10800012102F0D5
:1049900085FF39E001254FF00109CBE7D8F8601019
:1049A000D4F8B400414011F4407F11D0D8F8601021
:1049B000D8F8602042F48032C8F86020D8F860202F
:1049C00021F4407122F48032C8F86020C8F86010E9
:1049D000B0F5807F40F06882FFF785F8064641F227
:1049E000883A0325032700BFD8F86000800700F14C
:1049F0005982FFF778F8801B5045F5D9B6E704F1E6
:104A00002800012102F0CEFF05462E464DB9D8F808
:104A10004400E16F20F0380000250843C8F8440046
:104A20003E46207880071FD5A06F052800F22B8214
:104A3000DFE800F00F03090F0F0F04F10800012158
:104A400002F02CFF04E004F12800012102F0AAFF8B
:104A500005462F464DB9D8F84400A16F20F0070055
:104A600000250843C8F8440037462078400721D580
:104A7000D4F89400052800F20982DFE800F00F0363
:104A8000090F0F0F04F10800012102F007FF04E0F5
:104A900004F12800012102F085FF05462E4655B994
:104AA000D8F84800D4F8941020F0070000250843F7
:104AB000C8F848003E462078800623D5D4F89000F8
:104AC0004FEA3070052800F2E481DFE800F00F03C0
:104AD000090F0F0F04F10800002102F0DFFE04E0CF
:104AE00004F12800022102F05DFF05462F4655B96A
:104AF000D8F84400D4F8901020F0E0400025084396
:104B0000C8F8440037462078400623D5D4F89C00E6
:104B10004FEAB020052800F2BF81DFE800F00F0364
:104B2000090F0F0F04F10800002102F0B7FE04E0A6
:104B300004F12800022102F035FF05462E4655B942
:104B4000D8F84800D4F89C1020F4E0500025084321
:104B5000C8F848003E462078000623D5D4F8A000C7
:104B60004FEA7030052800F29A81DFE800F00F0369
:104B7000090F0F0F04F10800002102F08FFE04E07E
:104B800004F12800022102F00DFF05462F4655B919
:104B9000D8F84800D4F8A01020F46040002508435D
:104BA000C8F8480037462068010716D5D4F88400B5
:104BB000B0F5805F09D104F12800022102F0F2FE75
:104BC000002818BF0127D4F88400D8F8441021F435
:104BD00040510843C8F844002068C10616D5D4F8EF
:104BE0009800B0F5807F09D104F12800022102F07D
:104BF000D9FE002818BF0127D4F89800D8F848102B
:104C000021F440710843C8F848002068000322D509
:104C1000D4F8A400B0F5003F11D0B0F5803F08D023
:104C2000002840F01F8104F10800002102F036FE48
:104C300004E004F12800022102F0B4FE05462E46ED
:104C400055B9D8F84800D4F8A41020F44030002515
:104C50000843C8F848003E46A078400724D5D4F859
:104C60008800B0F5401F13D0B0F5001F0AD0B0F592
:104C7000801F40F0FA80D8F81C0040F40030C8F8DB
:104C80001C0005E004F12800012102F08BFE05461E
:104C90002F4655B9D8F84400D4F8881020F44010B5
:104CA00000250843C8F844003746A078C00701D162
:104CB0003E461FE0206DB0F5803F07D0C0B9D8F860
:104CC0001C0040F40030C8F81C0005E004F10800A6
:104CD000022102F0E3FD05462E465DB9D8F83C00FE
:104CE000216D20F4803000250843C8F83C00DFE740
:104CF000012501262168880001D4606809E004F1DB
:104D00002800022102F04EFE002818BF0126D4E937
:104D100000108A031BD5D4F880206FF0010303EB49
:104D20003223022B0BD34FEA322343B1012B40F045
:104D30009F80D8F81C3043F40033C8F81C303DB9CC
:104D4000D8F8443023F440731A43C8F84420354659
:104D5000CA0207D5D8F84020636F22F000421A43F8
:104D6000C8F84020CA0008D5D8F80020D4F8B830D8
:104D700022F480421A43C8F800208A0207D5D8F8E6
:104D80004020E36E22F080721A43C8F840204A00A7
:104D90000CD5D8F8002022F40042C8F80020D4F83E
:104DA000BC20D8F800301A43C8F80020CA0F07D03A
:104DB000D8F83C20636D22F040521A43C8F83C20DA
:104DC000090208D5D8F84410D4F88C2021F4400109
:104DD0001143C8F84410C10708D004F108000021AD
:104DE00002F05CFD002818BF05466068810708D501
:104DF00004F10800012102F051FD002818BF05460A
:104E00006068410708D504F10800022102F046FD60
:104E1000002818BF05466068010708D504F128007E
:104E2000002102F0BFFD002818BF05466068C106DA
:104E300008D504F12800012102F0B4FD002818BFB4
:104E400005466068800607D504F12800022102F0BB
:104E5000A9FD002818BF0125002D18BF01252846EF
:104E6000BDE8F08701250126F6E6012501271CE7AC
:104E700001256DE701250126EAE4012501270FE55B
:104E800001250126CDE501250127EEE501250126B5
:104E900011E60125012736E6012501265BE60125FD
:104EA000012780E6D4F8B4004FF6CF73D8F800207D
:104EB000C0F2FF0300F4407122F47C5203EA1013A5
:104EC0006FF31F30B1F5407F08BF1A430025C8F8C3
:104ED0000020D8F860100843C8F860002DE50000F5
:104EE0002DE9F04381B0002800F0198142F200085A
:104EF0000446C5F200288946D8F8000000F00F00EB
:104F000088420ED2D8F8000020F00F0040EA0900D5
:104F1000C8F80000D8F8000000F00F00484540F045
:104F2000FE80206844F210474107C5F602070AD503
:104F30002169BA6802F07002914204D9BA6822F07D
:104F400070021143B96001070AD56169FA6802F07D
:104F50007002914204D9FA6822F070021143F9609C
:104F6000C1060AD5A169FA6802F4E062914204D947
:104F7000FA6822F4E0621143F96081060AD5E1691A
:104F80003A6902F07002914204D93A6922F0700243
:104F90001143396110F002010AD0E268BB6803F0E6
:104FA0000F039A4204D9BB6823F00F031A43BA6077
:104FB000C20736D0B86820F47061D4E90102114309
:104FC000B960012857F8101C09D0032804D0022822
:104FD00008D1890309D4A2E0890106D49FE0C9055C
:104FE00003D49CE0490740F19A80396821F0070119
:104FF00008433860FEF777FD064641F2883500BF6A
:105000003868616800F03800B0EBC10F06D0FEF7D9
:105010006AFD801BA842F3D9032081E0206800F0DC
:10502000020151B1E168BA6802F00F02914204D264
:10503000BA6822F00F021143B960D8F8001001F0ED
:105040000F0149450DD9D8F8001021F00F0141EAB0
:105050000901C8F80010D8F8001001F00F01494507
:105060005DD141070AD52169BA6802F07002914208
:1050700004D2BA6822F070021143B96001070AD560
:105080006169FA6802F07002914204D2FA6822F073
:1050900070021143F960C1060AD5A169FA6802F4E9
:1050A000E062914204D2FA6822F4E0621143F960AE
:1050B00080060AD5E069396901F07001884204D29E
:1050C000396921F070010843386100F079F8B96856
:1050D0004BF2A402C0F60002C1F30321515CBB688D
:1050E00003F00F0301F01F01D25C20FA01F102F07E
:1050F0001F0040F2AC12C2F2004221FA00F0106030
:1051000040F2B41040F2A812C2F20040C2F20042D3
:105110000068116001B0BDE8F043FEF7F2BF012066
:1051200001B0BDE8F08380B500F04AF844F21841C0
:105130004BF2A403C5F60201C0F600030A68C2F3ED
:1051400003229A5C096801F00F0102F01F02595C0A
:1051500020FA02F201F01F0040F2AC11C2F200414D
:1051600022FA00F0086040F2A811C2F200410A6081
:1051700080BD80B5FFF7D7FF44F21C414BF2A4027B
:10518000C5F60201C0F600020968C1F30211515CC4
:1051900001F01F01C84080BD80B5FFF7C4FF44F295
:1051A0001C414BF2A402C5F60201C0F600020968D8
:1051B000C1F30221515C01F01F01C84080BD000015
:1051C00044F20041C5F602010869C0F3C200032899
:1051D00014D002280DD080BB0868800649F2000078
:1051E000C0F2D03058BF70470968C1F3C101C84050
:1051F000704747F64000C0F27D1070478A6A886A9F
:10520000C0F3051CC86ABCF1000F4B6B1AD000F04C
:105210000100404200EAD3006FF35F3000EE100A55
:1052200002F003000228B8EE400A0DD078B90868F1
:1052300080060FD49FED231A19E040F60010C0F24B
:105240003D007047002070479FED1D1A0FE09FED55
:105250001B1A0CE0086849F20002C0F2D032C0F319
:10526000C10022FA00F001EE100AB8EE411A086BF4
:105270009FED153A6FF35F2002EE100A086BC0F342
:105280004620B8EE422A013000EE032A00EE10CA92
:10529000B7EE003AB8EE400A81EE000A32EE031A89
:1052A00020EE010A01EE100AB8EE411A80EE010A62
:1052B000BCEEC00A10EE100A704700BF0024744A0A
:1052C00020BCBE4B0024744C0000003958B3F0B52C
:1052D00081B00446007844F20046C007C5F60206D5
:1052E00023D12078800740F1B380306910F0380175
:1052F000B06A3ED0182908BF5FEA807039D0E068F4
:10530000316800285ED021F0190108433060FEF7B3
:10531000EAFB05463068400745D4FEF7E4FB401B36
:105320000228F7D981E101207047306900F0380187
:10533000B06A102905D018290AD100F0030002280C
:1053400006D130688003CCD560680028C9D142E11D
:105350006168306800295BD0B1F5A02F43D0B1F56A
:10536000803F44D020F480303060306820F48020CA
:105370003FE030684007E06802D5002800F02B814C
:10538000316821F0190108433060FEF7ACFB054697
:105390003068400707D4FEF7A6FB401B02284FF0F9
:1053A0000300F5D942E1FEF797FB41F20301884281
:1053B00044D820697168402821F47C3145D141F4FA
:1053C000003044E021F001003060FEF78CFB054620
:1053D000306840073CD5FEF786FB401B02284FF0A3
:1053E0000300F5D922E140F480203060306840F4B9
:1053F00080303060FEF777FB054600BF30688003E1
:105400003FF56FAFFEF76FFB401B6428F6D90CE148
:1054100020F480303060306820F480203060FEF767
:1054200062FB0546306880037FF55BAFFEF75BFBF0
:10543000401B64284FF00300F4D9F7E0706821693D
:1054400020F0FE4040EA016001E041EA0030706077
:105450002078C00654D5306900F03801B06A0829B8
:1054600005D0182919D100F00300012815D13068A2
:10547000C00503D5E069802840F0AD80FEF72CFB25
:1054800041F2030188421ED8206A7168202821F069
:10549000F84132D141F0804031E0E06900283068C5
:1054A00019D040F080003060FEF71DFB054600BFBC
:1054B0003068C005E2D4FEF716FB401B02284FF00F
:1054C0000300F5D9B2E0F068216A20F07C5040EA90
:1054D0000160F06014E020F080003060FEF703FB14
:1054E000054600BF3068C0050AD5FEF7FCFA401B30
:1054F00002284FF00300F5D998E041EA806070601F
:105500002078000754D42078800666D4207840079D
:1055100078D4656A002D49D0306900F03800182829
:1055200040F0BA80012DB16A306B54D001F0030213
:10553000A36A9A424FD1C1F30511E26A91424AD15E
:105540000146226B6FF35F21013A914243D1C0F3D0
:105550004622616B01398A423DD1C0F30642A16BFC
:1055600001398A4237D1C0F30660E16B01398842C4
:1055700031D1706BA16CC0F3CC00814216D0F06ABF
:1055800020F00100F062FEF7AEFA0546FEF7ABFA36
:10559000A842FBD0706B4FF6F871A26C884340EACA
:1055A000C2007063F06A40F00100F06200203DE04C
:1055B00060690028706F3BD040F001007067FEF713
:1055C00092FA0546706F80079DD4FEF78CFA401B57
:1055D0000228F7D929E0012028E0A06900283068D6
:1055E00047D040F480503060FEF77DFA054600BF9A
:1055F000306880043FF58AAFFEF775FA401B022839
:10560000F6D912E0D6F8000440F48070C6F8000421
:10561000FEF769FA054600BFD6F80004C00519D4A4
:10562000FEF761FA401B6428F6D9032001B0F0BDF3
:1056300020F001007067FEF756FA0546706F80078C
:105640007FF561AFFEF74FFA401B02284FF00300D1
:10565000F4D9EBE7A168306F002957D005293DD078
:1056600001293FD020F001003067306F20F00400A6
:105670003AE020F480503060FEF735FA054600BF6E
:10568000306880047FF542AFFEF72DFA401B0228F8
:105690004FF00300F4D9C9E7306820F08070306023
:1056A000FEF721FA022D05460CD100BF30688001BB
:1056B00044D5FEF718FA401B02284FF00300F5D935
:1056C000B4E700BF306880017FF570AFFEF70BFADA
:1056D000401B02284FF00300F4D9A7E740F0040074
:1056E0003067306F40F001003067FEF7FCF9054687
:1056F00041F28837306F80073FF50BAFFEF7F3F9C3
:10570000401BB8424FF00300F4D98FE720F00100AE
:105710003067306F20F004003067FEF7E4F905468B
:1057200041F28837306F80077FF5F3AEFEF7DBF983
:10573000401BB8424FF00300F4D977E704F1280783
:10574000B06A40F2F33188438ECF0843591E40EAD5
:1057500002104FF47E426FF35F21B06202EB4720EC
:105760004FF4FE0280B2E36B0844A16B02EB0141EF
:105770004FF0FE4201F4FE0102EB0362084402F026
:10578000FE4108443063F06A4FF6F87120F00100E2
:10579000F062706BA26C884340EAC2007063F06AEA
:1057A000216C20F00C000843F062F06A616C20F07C
:1057B00002000843F062F06A40F48030F062F06A60
:1057C00040F40030F062F06A40F48020F062F06A49
:1057D00040F00100F062306840F080703060FEF709
:1057E00082F90446306880013FF5E0AEFEF77BF9B0
:1057F000001B02284FF00300F4D917E7411E0020D8
:10580000B0EB116F01D0012070474EF21002F0236F
:10581000CEF2000251604EF62351CEF200010B7021
:10582000072190601160704770477047704790F88B
:105830003C20012A4FF002025CD0B0B580F83D2038
:1058400040F2004C0268C4F2010C42F480636345EC
:105850005368D2F808E002BF23F470034C68234376
:1058600041F2FF740D68C4F2000423F07003A242F9
:1058700043EA050353600BDC40F2FF73C4F20003FC
:105880009A4215DCB2F1804F27D040F2004317E076
:1058900040F2FF33C4F201039A4216DC41F60003E2
:1058A000C4F200039A4218D00023C4F2010309E0B5
:1058B00040F60003C4F200039A420ED040F60043C3
:1058C000C4F200039A4208D00CE044F20003C4F290
:1058D00001039A4201D0624504D12EF08003896809
:1058E000194391600022012180F83D1080F83C208E
:1058F000BDE8B0401046704760B310B5044690F85C
:105900003D0028B9002084F83C00204600F024F82F
:10591000022084F83D002068211D03F012F90120C7
:1059200084F8480084F83E0084F83F0084F8400082
:1059300084F8410084F8420084F8430084F844006D
:1059400084F8450084F8460084F8470084F83D0058
:10595000002010BD0120704780B582B0006800F1C2
:1059600040404FEAB020072812D8DFE800F00411C9
:1059700011112713113B44F2E840C5F602000168FB
:1059800041F001010160006800F001000190019800
:1059900002B080BD44F2E8400022C5F60200016872
:1059A00041F0200101600068022100F02000019018
:1059B00001983720FEF73DFC372026E044F2E8400E
:1059C0000122C5F60200016841F010010160006883
:1059D000022100F01000019001983620FEF729FC0A
:1059E000362012E044F2E8400022C5F602000168C9
:1059F00041F0800101600068002100F0800001900A
:105A000001982C20FEF715FC2C2002B0BDE8804048
:105A1000FEF7FFBB90F83D10012919D1022180F853
:105A20003D10016841F2FF70C4F200008142C86875
:105A300040F00100C8600DDC40F2FF70C4F20000CD
:105A4000814215DCB1F1804F29D040F2004017E0CF
:105A50000120704740F2FF30C4F20100814212DCA5
:105A600041F60000C4F20000814218D0002012E08C
:105A700040F60000C4F20000814210D040F6004021
:105A8000C4F2000009E044F20000C4F201008142C7
:105A900005D040F20040C4F2010081420BD1072240
:105AA0008868C0F2010202400020062A18BFB2F541
:105AB000803F00D17047086840F001000860002076
:105AC00070470146006841F21113C26822F00102DA
:105AD000C260026A1A4208D1026A40F244431A4282
