:020000040800F2
:10000000A8090024AD020008ED4E0008B54B000819
:10001000E94E0008E90300084960000800000000FC
:10002000000000000000000000000000FF50000879
:100030002F0C000800000000EF4E00085D51000882
:10004000C7020008C7020008C7020008C70200086C
:10005000C7020008C7020008C7020008C70200085C
:10006000C7020008C7020008C7020008CD04000844
:10007000D9040008C7020008C7020008C702000828
:10008000C7020008C7020008C7020008C70200082C
:10009000C7020008C7020008C7020008C70200081C
:1000A000C7020008C7020008C7020008C70200080C
:1000B000C7020008C7020008C7020008C7020008FC
:1000C000C7020008C7020008C7020008C7020008EC
:1000D000C70200083D600008C7020008C702000808
:1000E000C7020008C702000800000000C70200089D
:1000F000C7020008C7020008C7020008C7020008BC
:10010000C7020008C7020008C7020008C7020008AB
:1001100017580008C7020008C7020008C7020008F5
:10012000C7020008C7020008C7020008C70200088B
:10013000C7020008C7020008C7020008C70200087B
:1001400000000000000000000000000000000000AF
:10015000C7020008C7020008C7020008C70200085B
:10016000C7020008C7020008C7020008C70200084B
:10017000C7020008C7020008C7020008C70200083B
:10018000C7020008C7020008C7020008C70200082B
:10019000C7020008C7020008C7020008C70200081B
:1001A000C7020008C7020008C7020008C70200080B
:1001B000C7020008C7020008C7020008C7020008FB
:1001C000C7020008C7020008C7020008C7020008EB
:1001D000C7020008C7020008C7020008C7020008DB
:1001E000C7020008C7020008C7020008C7020008CB
:1001F000C7020008C7020008C7020008C7020008BB
:10020000C7020008C7020008C7020008C7020008AA
:10021000C7020008C7020008C7020008C70200089A
:10022000C7020008C7020008C7020008000000005B
:10023000C7020008C702000800000000C70200084B
:10024000C7020008C7020008C7020008C70200086A
:10025000C7020008C7020008C7020008C70200085A
:10026000C7020008C7020008C7020008C70200084A
:10027000C7020008C7020008C7020008000000000B
:10028000C7020008C7020008C702000800000000FB
:1002900000000000C7020008DFF80CD000F08CF866
:1002A00000480047E9630008A80900240648804781
:1002B00006480047FEE7FEE7FEE7FEE7FEE7FEE74B
:1002C000FEE7FEE7FEE7FEE7675200089902000836
:1002D0002DE9F05F0546002092469B46884606467B
:1002E000814640241BE0284641464746224600F00E
:1002F00053F853465A46C01A914110D31146184636
:10030000224600F03AF82D1A67EB01084F462246C4
:100310000120002100F031F817EB00094E41201EAA
:10032000A4F10104DFDC484631462A464346BDE8D5
:10033000F09F40EA01039B0703D009E008C9121FA0
:1003400008C0042AFAD203E011F8013B00F8013B8F
:10035000521EF9D27047D2B201E000F8012B491EBB
:10036000FBD270470022F6E710B513460A46044652
:100370001946FFF7F0FF204610BD202A04DB203A83
:1003800000FA02F1002070479140C2F1200320FAE8
:1003900003F3194390407047202A04DB203A21FAE6
:1003A00002F00021704721FA02F3D040C2F120028E
:1003B00091400843194670471CB509480090094808
:1003C00001900546009C06E0E06840F0010394E8D7
:1003D000070098471034AC42F6D3FFF761FF0000E6
:1003E000B4660008D4660008FEE700002DE9F04F6F
:1003F00081B050380F2800F26680884692464FF050
:10040000340B4FF0000903274024DFE800F00835E3
:100410000B1014191C1F2225285C5C5C5C2B4FF010
:10042000300B25E04FF0030A4FF0370B20E04FF080
:100430003D0B2E2420E04FF0030A4FF03A0B17E05B
:100440004FF0410B14E04FF0450B11E04FF0490B1A
:100450000EE04FF04D0B0BE04FF0510B08E04FF06A
:10046000550B05E040F29850C2F20040D0F800B0C1
:100470004FF0010904270024BAF1030F40F2703550
:1004800008BF5746C2F20045414605EB4B007A00D3
:10049000FFF74FFF40F268365846C2F20046394631
:1004A00032689047B9F1000F0DD1BAF1030F0AD0AD
:1004B000B8F806003268012125F81400204601B082
:1004C000BDE8F04F104701B0BDE8F08F40F2580092
:1004D000C2F2004000F066BF40F2D000C2F200401D
:1004E00000F060BF40F20F42D0F800C0C4F2020238
:1004F000944510DC6F22C4F20202944520DC3F22B6
:10050000C4F20202944536DC1022C4F20202944581
:1005100054D028224EE040F26F42C4F202029445C9
:100520001ADC40F23F42C4F2020294452ADC40F257
:100530001042C4F20202944540D040F2284239E011
:100540009F22C4F20202944525DC7022C4F202020A
:10055000944533D088222DE040F29F42C4F202023B
:1005600094451FDC40F27042C4F20202944525D04B
:1005700040F288421EE04022C4F2020294451DD09F
:10058000582217E040F24042C4F20202944515D0CE
:1005900040F258420EE0A022C4F2020294450DD06F
:1005A000B82207E040F2B842C4F20202944505D0F6
:1005B00040F2A042C4F20202944517D10CF0F802B6
:1005C0004AF6AB23103ACAF6AA23A2FB033109A3C9
:1005D0005F2AC1F302115B5C40F2FF312CEA01019A
:1005E000C36588BF04318165084670472CF0FF0160
:1005F000F9E700BF000610160006101645F2574234
:100600000168C5F6020291420EDC45F22F42C5F6A2
:100610000202914217DC45F20842C5F602029142FD
:1006200026D045F21C421FE045F27F42C5F6020289
:10063000914211DC45F25842C5F60202914217D0B0
:1006400045F26C4210E045F23042C5F6020291429A
:100650000ED045F2444207E045F29442C5F602024C
:10066000914205D045F28042C5F6020291421AD16C
:1006700001F0FC014CF6CD420839CCF6CC42A1FB8E
:10068000021245F60003C5F60203120903F18001C8
:1006900003EB820302F01F0203660123416603FAA3
:1006A00002F18166704710B501F0F8024AF6AB23FB
:1006B000103ACAF6AA23A2FB032340F20F42C4F267
:1006C00002024FF0080E4FEA131C914202F1AA04F5
:1006D000624688BF0EEB131240F60003A142C4F23B
:1006E000020303F1800128BF6246BDE81040CFE756
:1006F0000279511E072988BF704710B545F2574C43
:1007000045F6FC0E0368C5F6020CC5F6020E6345FD
:100710000EF1440C0EDC45F22F44C5F60204A34250
:1007200017DC45F20844C5F60204A34226D045F280
:100730001C441FE045F27F44C5F60204A34211DCCD
:1007400045F25844C5F60204A34217D045F26C4462
:1007500010E045F23044C5F60204A3420ED045F243
:10076000444407E045F28044C5F60204A34205D0A4
:1007700045F29444C5F60204A3420BD10EEB82026B
:10078000C2660122C0F870C002FA01F14167BDE8FB
:100790001040704740F6FC0EC4F2020E0EF1440CFD
:1007A000ECE770B540F26F44D0F800C0C4F2020428
:1007B000D0F858E0A44517DC9F25C4F20205AC45EB
:1007C0002DDC5725C4F20205AC4550DC1025C4F2DF
:1007D0000205AC4500F08A802825C4F20205AC452C
:1007E00000F0848040256BE045F22F45C5F60205F8
:1007F000AC4527DC40F2B745C4F20205AC4542DC0B
:1008000040F27045C4F20205AC456FD040F2884515
:10081000C4F20205AC4569D040F2A04550E040F278
:100820002745C4F20205AC453CDCA025C4F2020514
:10083000AC455BD0B825C4F20205AC4556D040F2B9
:1008400010453DE045F26B45C5F60205AC453ADC86
:1008500045F23045C5F60205AC4547D045F2444562
:10086000C5F60205AC4541D045F2584539E058255A
:10087000C4F20205AC4539D07025C4F20205AC457E
:1008800034D088251CE040F2B845C4F20205AC45DE
:100890002CD045F20845C5F60205AC4526D045F2F8
:1008A0001C451EE040F22845C4F20205AC451DD0AF
:1008B00040F24045C4F20205AC4517D040F258451D
:1008C000C4F202050FE045F26C45C5F60205AC45E1
:1008D0000CD045F29445C5F60205AC4506D045F26C
:1008E0008045C5F60205AC4540F0CA80456EC66E2F
:1008F000002E866E6E601CBFD0E91C566E60A4454B
:1009000015DC9F24C4F20204A4452BDC5724C4F256
:100910000204A4454EDC1024C4F20204A44576D09F
:100920002824C4F20204A44571D040246BE045F2AF
:100930002F44C5F60204A44527DC40F2B744C4F2B4
:100940000204A44542DC40F27044C4F20204A4450F
:100950005DD040F28844C4F20204A44557D040F26E
:10096000A04450E040F22744C4F20204A4453CDC19
:10097000A024C4F20204A44549D0B824C4F202045D
:10098000A44544D040F210443DE045F26B44C5F626
:100990000204A4454CDC45F23044C5F60204A445EB
:1009A00058D045F24444C5F60204A44552D045F25D
:1009B00058444BE05824C4F20204A44527D07024C4
:1009C000C4F20204A44522D088241CE040F2B844BA
:1009D000C4F20204A4451AD045F20844C5F6020444
:1009E000A44537D045F21C4430E040F22844C4F21C
:1009F0000204A4450BD040F24044C4F20204A445D2
:100A000005D040F25844C4F20204A44538D18468A9
:100A1000C06D00F01F003F2505FA00F0CEF8080079
:100A2000DCF80000402C20F48020CCF800001BE013
:100A300045F26C44C5F60204A4450BD045F280444F
:100A4000C5F60204A44505D045F29444C5F6020457
:100A5000A44515D1C46D012504F01F04806805FA72
:100A600004F4CEF804404028CCF8043004D1CCF88B
:100A70000820CCF80C1070BDCCF80810CCF80C2075
:100A800070BD000070B589B040F2904CC2F2004CCD
:100A90009CF80000002842D0B3EE000A40F2703EFD
:100AA000002106AA03AB6846C2F2004E9FED4D1A24
:100AB0009FED4D2A9FED4D3A0EEB010402310629C0
:100AC000B4F96850B4F96E60B4F97A4004EE105A83
:100AD00005EE106A06EE104AB8EEC44AB8EEC55AE2
:100AE000B8EEC66A24EE014A25EE015A26EE016AE6
:100AF00024EE004AA2EC014A25EE024AA3EC014A88
:100B000026EE034AA0EC014AD6D19CF80000C007AB
:100B100005D09CF8000000F0FE008CF800009CF866
:100B20000000800705D59CF8000000F0FD008CF85F
:100B300000009CF80000400705D59CF8000000F07C
:100B4000FB008CF800009CF80000000705D59CF81D
:100B5000000000F0F7008CF8000040F210009DED5E
:100B6000060AC2F20040B7EEC00A9DED071A40F235
:100B7000280180ED000B9DED080AB7EEC11AB7EE13
:100B8000C00AC2F2004180ED021B9DED041A80ED07
:100B9000040B40F240009DED030AC2F20040B7EEA4
:100BA000C00AB7EEC11A80ED000B9DED050AB7EE45
:100BB000C00A80ED040B9DED000AB7EEC00A80ED7F
:100BC000021B9DED011A012081ED000B9DED020A33
:100BD000B7EEC11AB7EEC00A81ED021B81ED040B1E
:100BE00009B070BD000000380000FA440000344332
:100BF00080B50020502105F033FA062005F010FBE7
:100C00000B2005F0DFFA40F63140C0F6000005F099
:100C10001CFA45F24910C0F6000005F0C8FA45F28A
:100C20000110C0F6000005F031FA012080BD7047C8
:100C300001F072BBEFF3108072B600BFFEE7000058
:100C40002DE9F041044601F052FC14B3054694F836
:100C50003500022820D140F20F462768C4F2020670
:100C600040F26F48B7426FF00E00C4F2020816DC83
:100C70006F21C4F202018F4222DC3F21C4F2020143
:100C80008F4238DC1021C4F202018F4257D0282154
:100C900050E00120BDE8F081802060650DE147450E
:100CA0001ADC40F23F41C4F202018F422ADC40F2DA
:100CB0001041C4F202018F4241D040F2284139E094
:100CC0009F21C4F202018F4225DC7021C4F202018F
:100CD0008F4234D088212DE040F29F41C4F20201BE
:100CE0008F421FDC40F27041C4F202018F4226D0D5
:100CF00040F288411EE04021C4F202018F421ED022
:100D0000582117E040F24041C4F202018F4216D050
:100D100040F258410EE0A021C4F202018F420ED0F1
:100D2000B82107E040F2B841C4F202018F4206D078
:100D300040F2A041C4F202018F42394607D1394640
:100D4000386820F01E0041F8140B6FF080000A682C
:100D5000474500EA0200086017DC9F20C4F2020049
:100D600087422DDC5720C4F20200874250DC10205D
:100D7000C4F20200874200F089802820C4F20200F9
:100D8000874200F0838040206BE045F22F40C5F69B
:100D90000200874227DC40F2B740C4F202008742DB
:100DA00042DC40F27040C4F2020087426ED040F252
:100DB0008840C4F20200874268D040F2A04050E070
:100DC00040F22740C4F2020087423CDCA020C4F27B
:100DD000020087425AD0B820C4F20200874255D0A0
:100DE00040F210403DE045F26B40C5F602008742FC
:100DF0003ADC45F23040C5F60200874246D045F263
:100E00004440C5F60200874240D045F2584039E0E0
:100E10005820C4F20200874238D07020C4F2020089
:100E2000874233D088201CE040F2B840C4F2020070
:100E300087422BD045F20840C5F60200874225D0F4
:100E400045F21C401EE040F22840C4F202008742F6
:100E50001CD040F24040C4F20200874216D040F25B
:100E60005840C4F202000FE045F26C40C5F60200A3
:100E700087420BD045F29440C5F60200874205D068
:100E800045F28040C5F60200874204D1206E016819
:100E900021F480710160386820F00100386000BFE3
:100EA0003868C0070BD001F022FB401B0628F7D39F
:100EB00020206065032084F83500012016E12068B9
:100EC000B04210DC6F21C4F2020188421CDC3F21D9
:100ED000C4F20201884232DC1021C4F202018842CD
:100EE00051D028214AE040451ADC40F23F41C4F28B
:100EF000020188422ADC40F21041C4F20201884219
:100F000041D040F2284139E09F21C4F202018842D9
:100F100025DC7021C4F20201884234D088212DE002
:100F200040F29F41C4F2020188421FDC40F270414E
:100F3000C4F20201884226D040F288411EE04021DE
:100F4000C4F2020188421ED0582117E040F240410D
:100F5000C4F20201884216D040F258410EE0A021AE
:100F6000C4F2020188420ED0B82107E040F2B84135
:100F7000C4F20201884206D040F2A041C4F202014C
:100F8000884240F0B880D4E9161202F01F023F23D5
:100F900003FA02F28A60404517DC9F21C4F2020185
:100FA00088422DDC5721C4F20201884250DC102116
:100FB000C4F20201884200F089802821C4F20201B3
:100FC000884200F0838040216BE045F22F41C5F656
:100FD0000201884227DC40F2B741C4F20201884294
:100FE00042DC40F27041C4F2020188426ED040F20D
:100FF0008841C4F20201884268D040F2A04150E02A
:1010000040F22741C4F2020188423CDCA021C4F234
:10101000020188425AD0B821C4F20201884255D058
:1010200040F210413DE045F26B41C5F602018842B5
:101030003ADC45F23041C5F60201884246D045F21D
:101040004441C5F60201884240D045F2584139E09A
:101050005821C4F20201884238D07021C4F2020142
:10106000884233D088211CE040F2B841C4F202012A
:1010700088422BD045F20841C5F60201884225D0AE
:1010800045F21C411EE040F22841C4F202018842B0
:101090001CD040F24041C4F20201884216D040F216
:1010A0005841C4F202010FE045F26C41C5F602015D
:1010B00088420BD045F29441C5F60201884205D022
:1010C00045F28041C5F6020188420BD1616EA26EE5
:1010D000E06E4A6030B1016821F480710160D4E9AA
:1010E0001C014160012084F835000020002184F8B3
:1010F0003410BDE8F081D4E9161202F01F0201237A
:1011000003FA02F24A6046E7F0B190F8351002297E
:1011100018D180B540F20F420168C4F20202914238
:1011200014DC6F23C4F20203994224DC3F23C4F28F
:10113000020399423ADC1023C4F20203994258D0C8
:10114000282352E0802141650121C2E040F26F4333
:10115000C4F2020399421ADC40F23F43C4F2020394
:1011600099422ADC40F21043C4F20203994240D073
:1011700040F2284339E09F23C4F20203994225DC60
:101180007023C4F20203994233D088232DE040F249
:101190009F43C4F2020399421FDC40F27043C4F241
:1011A0000203994225D040F288431EE04023C4F256
:1011B000020399421DD0582317E040F24043C4F285
:1011C0000203994215D040F258430EE0A023C4F226
:1011D000020399420DD0B82307E040F2B843C4F2AD
:1011E0000203994205D040F2A043C4F2020399429F
:1011F00071D191424FF0040280F8352010DC6F204D
:10120000C4F20200814220DC3F20C4F2020081428D
:1012100036DC1020C4F20200814253D028204EE078
:1012200040F26F40C4F2020081421ADC40F23F40BB
:10123000C4F2020081422ADC40F21040C4F20200F3
:1012400081423FD040F2284039E09F20C4F20200A2
:10125000814225DC7020C4F20200814232D0882015
:101260002DE040F29F40C4F2020081421FDC40F2B8
:101270007040C4F20200814224D040F288401EE057
:101280004020C4F2020081421CD0582017E040F2F6
:101290004040C4F20200814214D040F258400EE0B7
:1012A000A020C4F2020081420CD0B82007E040F236
:1012B000B840C4F20200814204D040F2A040C4F21F
:1012C00002008142086820F0010008600021BDE8AA
:1012D0008040084670470A6822F00E020A6045F214
:1012E0005742C5F6020291420A6822F001020A60E2
:1012F0000EDC45F22F42C5F60202914217DC45F2A0
:101300000842C5F60202914226D045F21C421FE077
:1013100045F27F42C5F60202914211DC45F2584285
:10132000C5F60202914217D045F26C4210E045F238
:101330003042C5F6020291420ED045F2444207E027
:1013400045F29442C5F60202914205D045F2804230
:10135000C5F6020291421AD1D0E9181CD0E916E371
:101360000A6822F480720A6003F01F01012202FA67
:1013700001F1CEF80410816ECCF80410C16E31B1C9
:101380000A6822F480720A60D0E91C124A600121C6
:1013900080F83510026D0021002A80F8341096D0B4
:1013A000904793E72DE9F04782B00021019140F288
:1013B00000010446C2F2004148F2B512C1F64E32B5
:1013C000A56D096840F26F490068C4F20209A1FBEB
:1013D000021848452E68296815DC9F21C4F20201D5
:1013E00088422BDC5721C4F2020188424FDC1021D5
:1013F000C4F20201884278D02821C4F20201884256
:1014000073D040216CE045F22F42C5F602029042B3
:1014100027DC40F2B742C4F20202904243DC40F2C1
:101420007041C4F2020188425FD040F28841C4F2A8
:101430000201884259D040F2A04151E040F22741D8
:10144000C4F2020188423DDCA021C4F202018842BC
:101450004BD0B821C4F20201884246D040F210417C
:101460003EE045F26B42C5F60202904273DC45F263
:101470003042C5F60202904200F0808045F24442BC
:10148000C5F60202904279D045F2584271E05821E7
:10149000C4F20201884228D07021C4F202018842BD
:1014A00023D088211CE040F2B842C4F202029042EC
:1014B0001BD045F20842C5F6020290425ED045F2CA
:1014C0001C4256E040F22841C4F2020188420CD08E
:1014D00040F24041C4F20201884206D040F2584135
:1014E000C4F20201884240F01183E16D082201F04C
:1014F0001F0140F20F4A8A40C4F2020A324200F051
:10150000D18050454FF0040312DC6F27C4F202076C
:10151000B84264DC3F27C4F20207B84200F392806D
:101520001027C4F20207B84200F0B0802827A8E0D4
:10153000484560DC40F23F47C4F20207B84200F37E
:10154000888040F21047C4F20207B84200F09E8043
:1015500040F2284795E045F26C42C5F602029042FF
:101560000CD045F28042C5F60202904206D045F208
:101570009442C5F60202904240F0C8820268E36DD0
:1015800003F01F0304279F400F4218BF12F0040608
:101590001BD102279F400F4218BF12F0020639D11B
:1015A000D940090740F1B28212F0080100F0AE8282
:1015B000016821F00E010160012000FA03F1696069
:1015C000606584F83500E16C58E211046F6033D433
:1015D000910635D4016821F00401016030E09F27B5
:1015E000C4F20207B8423DDC7027C4F20207B842D9
:1015F0004CD0882745E040F29F47C4F20207B8422A
:1016000037DC40F27047C4F20207B8423ED040F2E5
:10161000884736E011046F6000F17B82910600F18B
:101620007C82016821F00A010160012084F8350004
:10163000002084F8340070E2D00301D4A16C5FE292
:10164000216C5DE24027C4F20207B8421ED0582741
:1016500017E040F24047C4F20207B84216D040F209
:1016600058470EE0A027C4F20207B8420ED0B827B0
:1016700007E040F2A047C4F20207B84206D040F2A9
:10168000B847C4F20207B84218BF082307681F42D0
:1016900008D0036823F004030360AA60626D42F07F
:1016A0000102626501228A4032426AD0504510DC54
:1016B0006F23C4F2020398421CDC3F23C4F20203EE
:1016C000984232DC1023C4F20203984251D02823FE
:1016D0004AE048451ADC40F23F43C4F20203984214
:1016E0002ADC40F21043C4F20203984241D040F297
:1016F000284339E09F23C4F20203984225DC70237B
:10170000C4F20203984234D088232DE040F29F4374
:10171000C4F2020398421FDC40F27043C4F2020399
:10172000984226D040F288431EE04023C4F20203D0
:1017300098421ED0582317E040F24043C4F20203FF
:10174000984216D040F258430EE0A023C4F20203A0
:1017500098420ED0B82307E040F2A043C4F202033F
:10176000984206D040F2B843C4F20203984240F0D7
:10177000D68143691B0604D5AA60626D42F002025D
:10178000626504228A4032426AD0504510DC6F23E1
:10179000C4F2020398421CDC3F23C4F202039842C5
:1017A00032DC1023C4F20203984251D028234AE0CD
:1017B00048451ADC40F23F43C4F2020398422ADC57
:1017C00040F21043C4F20203984241D040F2284351
:1017D00039E09F23C4F20203984225DC7023C4F24F
:1017E0000203984234D088232DE040F29F43C4F294
:1017F000020398421FDC40F27043C4F20203984295
:1018000026D040F288431EE04023C4F202039842EF
:101810001ED0582317E040F24043C4F2020398421E
:1018200016D040F258430EE0A023C4F202039842BF
:101830000ED0B82307E040F2A043C4F2020398425E
:1018400006D040F2B843C4F20203984240F06981E6
:1018500003689B0704D5AA60626D42F004026265CA
:10186000102202FA01F131427BD050454FF00802BC
:1018700010DC6F23C4F2020398421CDC3F23C4F245
:101880000203984232DC1023C4F20203984251D082
:1018900028234AE048451ADC40F23F43C4F20203E1
:1018A00098422ADC40F21043C4F20203984241D02D
:1018B00040F2284339E09F23C4F20203984225DC1A
:1018C0007023C4F20203984234D088232DE040F202
:1018D0009F43C4F2020398421FDC40F27043C4F2FB
:1018E0000203984226D040F288431EE04023C4F20F
:1018F000020398421ED0582317E040F24043C4F23E
:101900000203984216D040F258430EE0A023C4F2DE
:10191000020398420ED0B82307E040F2A043C4F27D
:101920000203984206D040F2B843C4F20203984240
:1019300018BF04220368134213D0A9600168490349
:10194000016806D4C90506D4016821F008010160C8
:1019500001E0080301D4216C00E0A16C09B120462C
:101960008847E06D00F01F01202000FA01F23242AA
:1019700000F0A28020681023504510DC6F27C4F2CD
:101980000207B8421CDC3F27C4F20207B84232DC2F
:101990001027C4F20207B84251D028274AE0484530
:1019A0001ADC40F23F47C4F20207B8422ADC40F298
:1019B0001047C4F20207B84241D040F2284739E04C
:1019C0009F27C4F20207B84225DC7027C4F2020741
:1019D000B84234D088272DE040F29F47C4F2020776
:1019E000B8421FDC40F27047C4F20207B84226D06A
:1019F00040F288471EE04027C4F20207B8421ED0DA
:101A0000582717E040F24047C4F20207B84216D008
:101A100040F258470EE0A027C4F20207B8420ED0A9
:101A2000B82707E040F2A047C4F20207B84206D048
:101A300040F2B847C4F20207B84218BF0223076851
:101A40001F4239D0AA6094F83520042A02681BD1BD
:101A500022F016020260426922F080024261226C8A
:101A60000AB9A26C1AB1026822F0080202603F2093
:101A70008840A860012084F83500216D4FF00000F7
:101A800084F83400E9BB41E0510301680CD4C90576
:101A90000ED4016821F010010160012084F83500A6
:101AA000002084F8340003E0080301D4616C00E0F6
:101AB000E16B09B120468847606D38B3606DC0079F
:101AC0001DD0042084F8350020684FEA9821026870
:101AD00022F00102026000BF019A013201928A42A3
:101AE00002D80268D207F7D10068C0074FF00300A0
:101AF00008BF012084F83500002084F83400E16C30
:101B000021B1204602B0BDE8F047084702B0BDE869
:101B1000F087D00301D4616CF2E7E16BF0E7026873
:101B20002FE602689CE600002DE9F041044600F033
:101B3000DEFC002C00F0AA8040F26F4805462068C9
:101B4000C4F20208404515DC9F21C4F2020188421C
:101B50002BDC5721C4F20201884251DC1021C4F26F
:101B6000020188427AD02821C4F20201884275D04D
:101B700040216EE045F22F41C5F60201884227DC84
:101B800040F2B741C4F20201884245DC40F27041A4
:101B9000C4F20201884261D040F28841C4F20201DD
:101BA00088425BD040F2A04153E040F22741C4F2AA
:101BB000020188423FDCA021C4F2020188424DD0DC
:101BC000B821C4F20201884248D040F2104140E0FE
:101BD00045F26B41C5F60201884200F38F8045F261
:101BE0003041C5F60201884200F09A8045F2444136
:101BF000C5F60201884200F0938045F258418BE01F
:101C00005821C4F20201884228D07021C4F2020196
:101C1000884223D088211CE040F2B841C4F202017E
:101C200088421BD045F20841C5F60201884277D0B0
:101C300045F21C4170E040F22841C4F202018842A2
:101C40000CD040F24041C4F20201884206D040F27A
:101C50005841C4F20201884240F0BB80022184F85E
:101C60003510002184F83410016821F00101016071
:101C700020680168C9070CD000F039FC401B062819
:101C8000F6D320206065032084F835000120BDE8EC
:101C9000F08148F23F0204F108060168CFF61062B5
:101CA000114065694CCE1143A2691943E369314380
:101CB000266A0D43616A2B43042943EA060343EA7B
:101CC000020303D1D4E90B652E43334341F20006EE
:101CD000C5F600463668B6F1005F63D36568A5F1C6
:101CE0003F06132E58D80127B74040F20F36C0F2F6
:101CF0000F06374250D043F4801353E045F26C4155
:101D0000C5F6020188420BD045F28041C5F60201BA
:101D1000884205D045F29441C5F60201884258D167
:101D200004F1080E022184F83510002184F83410E3
:101D30000168A3699EE80450A2F18005E769B5FA3D
:101D400085F566696D09402A4FEA853543EA070241
:101D50006FF3101142EA060208BF102541EADC01C8
:101D600042EA0E02236A294341EAD20141EA1311F1
:101D700040F80819C0B2CD2148433C2101EA902027
:101D8000E0652046FEF7AEFBE16D012201F01F0188
:101D900002FA01F1416042E0A5F12906062E38BFA2
:101DA00043F4801303600429436923F0070341EAE5
:101DB000030129D1D4E90A5341EA050123B3B2F55D
:101DC000005F08D09AB9022D14D0012D09D08DB131
:101DD0001AE0402056E7032D16D8DFE805F00E0B79
:101DE0000E02A3F1C072B2FA82F2520904E0032D8E
:101DF00003D309D1C3F3006232B1402060650120F2
:101E000084F83500BDE8F08141612046FEF76AFBA9
:101E1000E16D3F2201F01F0102FA01F181602068AB
:101E2000404517DC9F21C4F2020188422DDC572176
:101E3000C4F20201884250DC1021C4F2020188423F
:101E400000F089802821C4F20201884200F08380DA
:101E500040216BE045F22F41C5F60201884227DCA4
:101E600040F2B741C4F20201884242DC40F27041C4
:101E7000C4F2020188426ED040F28841C4F20201ED
:101E8000884268D040F2A04150E040F22741C4F2BD
:101E9000020188423CDCA021C4F2020188425AD0EF
:101EA000B821C4F20201884255D040F210413DE011
:101EB00045F26B41C5F6020188423ADC45F23041F9
:101EC000C5F60201884246D045F24441C5F60201FA
:101ED000884240D045F2584139E05821C4F202010D
:101EE000884238D07021C4F20201884233D0882160
:101EF0001CE040F2B841C4F2020188422BD045F206
:101F00000841C5F60201884225D045F21C411EE079
:101F100040F22841C4F2020188421CD040F2404104
:101F2000C4F20201884216D040F25841C4F20201C4
:101F30000FE045F26C41C5F6020188420BD045F234
:101F40009441C5F60201884205D045F28041C5F6AC
:101F50000201884220D12046FEF750FBA06880286D
:101F600002D10020606000E06068C1B204F1600747
:101F700001388CCF072811605F6009D82046FEF732
:101F8000B7FB04F16C02002307CA03604A6003E058
:101F900000206067C4E91B0000206065012184F80F
:101FA0003510BDE8F08138B1B0B5054690F8340081
:101FB000012803D10220B0BD01207047012085F81F
:101FC000340095F83500012828D1022085F8350025
:101FD000002068652868046824F00104046028462D
:101FE000FEF7DFFB40F20F422868C4F2020240F223
:101FF0006F419042C4F2020118DC6F23C4F2020365
:10200000984224DC3F23C4F2020398423ADC1023B6
:10201000C4F20203984259D0282352E04FF40060E2
:102020006865002085F834000120B0BD88421ADCC4
:1020300040F23F43C4F2020398422ADC40F21043CC
:10204000C4F20203984241D040F2284339E09F2372
:10205000C4F20203984225DC7023C4F202039842C2
:1020600034D088232DE040F29F43C4F2020398420B
:102070001FDC40F27043C4F20203984226D040F2C3
:1020800088431EE04023C4F2020398421ED0582326
:1020900017E040F24043C4F20203984216D040F2E7
:1020A00058430EE0A023C4F2020398420ED0B82396
:1020B00007E040F2B843C4F20203984206D040F26F
:1020C000A043C4F20203984240F01B8103680B2432
:1020D00064F3440303602B6C1BB10823046823439F
:1020E0000360884217DC9F23C4F2020398422DDC70
:1020F0005723C4F20203984250DC1023C4F20203B7
:10210000984200F089802823C4F20203984200F02C
:10211000838040236BE045F22F43C5F602039842CB
:1021200027DC40F2B743C4F20203984242DC40F29B
:102130007043C4F2020398426ED040F28843C4F266
:102140000203984268D040F2A04350E040F2274397
:10215000C4F2020398423CDCA023C4F2020398427A
:102160005AD0B823C4F20203984255D040F210432B
:102170003DE045F26B43C5F6020398423ADC45F276
:102180003043C5F60203984246D045F24443C5F6B3
:102190000203984240D045F2584339E05823C4F234
:1021A0000203984238D07023C4F20203984233D01D
:1021B00088231CE040F2B843C4F2020398422BD0BB
:1021C00045F20843C5F60203984225D045F21C4368
:1021D0001EE040F22843C4F2020398421CD040F2B1
:1021E0004043C4F20203984216D040F25843C4F26E
:1021F00002030FE045F26C43C5F6020398420BD090
:1022000045F29443C5F60203984205D045F2804357
:10221000C5F6020398426ED12B6E1C68E40303D509
:102220001C6844F480741C60EB6E1BB11D6845F49F
:1022300080751D60904210DC6F21C4F2020188425B
:102240001CDC3F21C4F20201884232DC1021C4F2BE
:10225000020188424FD028214AE088421ADC40F22D
:102260003F41C4F2020188422ADC40F21041C4F22C
:10227000020188423FD040F2284139E09F21C4F258
:102280000201884225DC7021C4F20201884232D06A
:1022900088212DE040F29F41C4F2020188421FDCF8
:1022A00040F27041C4F20201884224D040F28841D9
:1022B0001EE04021C4F2020188421CD0582117E0E0
:1022C00040F24041C4F20201884214D040F2584129
:1022D0000EE0A021C4F2020188420CD0B82107E030
:1022E00040F2B841C4F20201884204D040F2A04159
:1022F000C4F202018842016841F00101016000203E
:10230000B0BD0368052464F3430303602B6C002B0A
:102310003FF4E7AE0423E1E6B0B5044600F0E7F889
:1023200040F209010546C2F20041621C097818BF5B
:102330000C4400BF00F0DBF8401BA042FAD3B0BD54
:102340002DE9F04F82B00D68002D00F0C68000F13D
:10235000264242F2004402F1FF728305C5F60204F0
:102360000A27A04243EA922208BF0927092A40F21D
:10237000040C38BF1746C5F6000C4FF0000E00974E
:1023800000270026012202FA06FB15EA0B0800F0DE
:102390009A80D1F804A003220AF0030502FA07F399
:1023A0006C1E6FEA0309012C10D88368CC6803EA1D
:1023B0000903BC4023438360CAF30014436823EA43
:1023C0000B03B4402343436004E000BF032D01D15D
:1023D000032520E0C3688C6803EA0903BC40022D92
:1023E00043EA0403C36016D16FF003020EF01C052C
:1023F00002EA56030F22034402FA05FBD3F820A099
:102400000C692AEA0B0AAC4044EA0A041C62D1F8BF
:1024100004A00AF00305036805FA07F403EA0903B8
:102420001AF4403F43EA040303604CD044F2F44200
:1024300040F2084AC5F60202C5F6000A136843F0E6
:102440000203136013680F2203F00203019326F0C6
:102450000303019C0EF00C0453F80A9002FA04F5F1
:10246000009A29EA050502FA04F44FF0B0492C431A
:1024700043F80A40D9F800304C6843EA0805E20204
:1024800058BF23EA0805C9F80050A502DCF800206F
:1024900042EA080358BF22EA0803A503CCF800303B
:1024A000DCF8802042EA080358BF22EA0803E4036C
:1024B000CCF88030DCF87C2042EA080358BF22EADE
:1024C0000803CCF87C3001360D6835FA06F207F1C6
:1024D00002070EF1040E7FF455AF02B0BDE8F08F95
:1024E00041F20000C5F600400068000C704740F261
:1024F000A450C2F200400068704790F84120202AA2
:1025000003D190F84020012A01D1022118E02422B1
:1025100080F841200268136823F0010313601368F8
:1025200023F480531360136819431160116841F05C
:1025300001011160202180F84110002180F8401035
:102540000846704790F84120202A03D190F8402097
:10255000012A01D1022117E0242280F841200268DB
:10256000136823F001031360136823F4706343EAD4
:1025700001211160116841F001011160202180F8F2
:102580004110002180F840100846704708B310B58C
:10259000044690F8410028B9002084F84000204605
:1025A00000F049F8242084F8410094E80910E2681A
:1025B0000168012A21F00101016023F070610161CD
:1025C000816821F40041816005D14CF400418160B3
:1025D0000AE001207047022A4CF40441816003D1D3
:1025E000416841F4006102E0416821F4006141600A
:1025F00004F1100C416841F0007141F40041416068
:10260000C16821F40041C1609CE80E10114341EA09
:102610000321C160216A41EA0C010160016841F0B7
:102620000101016000206064202184F841102063D2
:1026300084F8420010BDB0B5B8B002A9044601F15B
:102640000800B821FDF78EFE45F200412068C4F273
:10265000000188422ED10820029002A80024039491
:1026600000F098FA08B1FEF7E5FA44F2E04533A924
:10267000C5F60205286840F002002860286800F0CE
:10268000020033903398C02033901220CDE93404F7
:102690000420379040F200403694C5F60200FFF760
:1026A0004FFEA86840F40010A860A86800F400106D
:1026B0000190019838B0B0BD40F2090040F2A45139
:1026C000C2F20040C2F2004100780A68104408607B
:1026D000704710B5032000F0F0F801F07BF844F2E9
:1026E000184146F27C43C5F60201C0F600030124FE
:1026F0000A68C2F303229A5C096801F00F0102F034
:102700001F02595CD04040F20402C2F2004201F0C4
:102710001F0120FA01F1116040F20001C2F20041F4
:102720000860012000F006F810B900F079F80024E4
:10273000204610BDB0B540F20901C2F2004109784F
:10274000F9B1044640F20000C2F200404FF47A7240
:10275000B2FBF1F10068B0FBF1F001F05DFB0F2C72
:102760004FF001050ED868B94FF0FF300022214626
:10277000002500F075F840F20C00C2F20040046041
:1027800000E001252846B0BD10B54EF6985E4178B0
:10279000CEF2000E90F800C0CEF80010DEF808105F
:1027A00021F00101CEF808104168CEF80410017B39
:1027B000C37A827A447B1B0643EA0171837B41EA38
:1027C000C241C27B41EA8441447A41EA4341007AF2
:1027D00041EA024141EA042141EA400040EA0C009A
:1027E000CEF8080010BD4EF62450CEF20000BFF324
:1027F0005F8F016821F4803101600021016770471B
:102800004EF6245140F00100CEF20001086708683E
:1028100040F480300860BFF34F8FBFF36F8F704775
:1028200081B044F2F440C5F60200016841F00201B3
:102830000160006800F002000090009801B070474D
:1028400000280CD400F01F01012202FA01F14EF21F
:102850000012C0F34A10CEF2000242F82010704776
:1028600070B54EF60C5C4FF0FF36CEF2000C00F166
:10287000604505F56445DCF80030C3F3022E8EF0A8
:102880000703042B28BF0423BEF1030406FA03F355
:1028900021EA030100F00F0338BF0024043B0028A5
:1028A000634406FA04F048BF03F10C05A14022EA94
:1028B000000008430001287070BD4EF60C514FF621
:1028C000FF03CEF200010A681A4060F30A2242F0C8
:1028D000806040F0FD70086070470000B0B544F6BD
:1028E0000C05C5F6020529684907296805D401F0D9
:1028F0000701081A18BF0120B0BD21F007010843E5
:102900002860FFF7F4FD044655F8080C800407D44E
:10291000FFF7EDFD001BB0F57A7FF5D90120B0BDC2
:102920000020B0BD80B500F008FF44F2204146F21F
:102930007C42C5F60201C0F600020968C1F302112B
:10294000515C01F01F01C84080BD000080B544F219
:10295000004EC5F6020EDEF82830DEF82810DEF84C
:102960002C20C1F3053CDEF83C10BCF1000F15D063
:10297000C908D20601EAE2716FF35F3100EE101A66
:1029800003F003010229B8EE400A0BD069B9DEF862
:10299000001089060CD49FED341A17E00021C0E91D
:1029A00000115BE09FED2F1A10E09FED2D1A0DE056
:1029B000DEF8001049F20002C0F2D032C1F3C101CA
:1029C00022FA01F101EE101AB8EE411ADEF83810C1
:1029D0009FED263A6FF35F2102EE101ADEF83810F1
:1029E000C1F34621B8EE422A00EE032A00EE10CAD7
:1029F000B7EE003AB8EE400A81EE000A32EE031A52
:102A000002EE101AB8EE422A20EE010A32EE031A44
:102A100080EE011ABCEEC11A80ED001ADEF8381003
:102A2000C1F3064101EE101AB8EE411A31EE031A55
:102A300080EE011ABCEEC11A80ED011ADEF83810E2
:102A4000C1F3066101EE101AB8EE411A31EE031A15
:102A500080EE010ABCEEC00A10EE101A816080BD43
:102A60000024744A20BCBE4B0024744C0000003982
:102A700080B544F2004EC5F6020EDEF82830DEF8CE
:102A80002810DEF82C20C1F3055CDEF84410BCF100
:102A9000000F15D0C908D20501EAE2716FF35F316A
:102AA00000EE101A03F003010229B8EE400A0BD021
:102AB00069B9DEF8001089060CD49FED341A17E0CE
:102AC0000021C0E900115BE09FED2F1A10E09FED9F
:102AD0002D1A0DE0DEF8001049F20002C0F2D032EB
:102AE000C1F3C10122FA01F101EE101AB8EE411A48
:102AF000DEF840109FED263A6FF35F2102EE101AC8
:102B0000DEF84010C1F34621B8EE422A00EE032A57
:102B100000EE10CAB7EE003AB8EE400A81EE000AA5
:102B200032EE031A02EE101AB8EE422A20EE010A23
:102B300032EE031A80EE011ABCEEC11A80ED001AC3
:102B4000DEF84010C1F3064101EE101AB8EE411A4A
:102B500031EE031A80EE011ABCEEC11A80ED011AA3
:102B6000DEF84010C1F3066101EE101AB8EE411A0A
:102B700031EE031A80EE010ABCEEC00A10EE101A04
:102B8000816080BD0024744A20BCBE4B0024744C7C
:102B9000000000392DE9F0470446C07844F210489F
:102BA0000007C5F6020826D5A06E4FEA305103296A
:102BB0000AD8DFE801F0020B1119D8F81C1041F413
:102BC0000031C8F81C100FE0012615E004F10800E0
:102BD000022102F08DF904E004F12800022102F044
:102BE0000BFA064640B9A06ED8F8401021F4401107
:102BF0000843C8F8400000266078C00701D1354678
:102C00002AE0A06D04280DD83546DFE800F0030E59
:102C1000141A1A00D8F81C00354640F40030C8F8E1
:102C20001C000EE00125012717E004F10800002137
:102C300002F05EF904E004F12800002102F0DCF962
:102C400005462F464DB9D8F84000A16D20F0070089
:102C500000250843C8F840003746607880072AD529
:102C6000E06D4FEAB01004280BD8DFE800F0030D48
:102C700013191900D8F81C0040F40030C8F81C00E3
:102C80000EE00125012617E004F10800002102F002
:102C90002FF904E004F12800002102F0ADF9054607
:102CA0002E464DB9D8F84000E16D20F4E0700025C3
:102CB0000843C8F840003E46607840072DD5D4F858
:102CC000A8004FEA705004280BD8DFE800F0030E8C
:102CD000141A1A00D8F81C0040F40030C8F81C0080
:102CE0000FE001254FF0010918E004F10800002170
:102CF00002F0FEF804E004F12800002102F07CF963
:102D00000546A94655B9D8F84800D4F8A81020F4CB
:102D1000600000250843C8F84800B1466078000705
:102D20002CD5D4F8AC004FEA306004280BD8DFE88B
:102D300000F0030D13191900D8F81C0040F40030FE
:102D4000C8F81C000EE00125012718E004F1080076
:102D5000002102F0CDF804E004F12800002102F087
:102D60004BF905462F4655B9D8F84800D4F8AC10B1
:102D700020F0E06000250843C8F848004F46E0789E
:102D8000800723D5E06C4FEA301003280AD8DFE82B
:102D900000F012020C12D8F81C0040F40030C8F801
:102DA0001C0008E00125012611E004F108000221C1
:102DB00002F09EF805462E464DB9D8F83C00E16C6D
:102DC00020F0300000250843C8F83C003E466078FB
:102DD000C0062AD5206E4FEA303004280BD8DFE831
:102DE00000F0030D13191900D8F81C0040F400304E
:102DF000C8F81C000EE00125012717E004F10800C7
:102E0000002102F075F804E004F12800002102F02E
:102E1000F3F805462F464DB9D8F84000216E20F44E
:102E2000E04000250843C8F8400037466078800637
:102E300023D5606E4FEA304005280AD8DFE800F05D
:102E400012030C12121204F10800012102F050F8D2
:102E500007E00125012611E004F12800012102F01C
:102E6000CBF805462E464DB9D8F84000616E20F4E7
:102E7000E02000250843C8F840003E466078400640
:102E800025D5D4F8B0004FEA307005280AD8DFE81D
:102E900000F012030C12121204F10800012102F0DA
:102EA00027F807E00125012712E004F1280001219D
:102EB00002F0A2F805462F4655B9D8F84800D4F8D4
:102EC000B01020F0E04000250843C8F8480037461D
:102ED000607800061FD5206F90B1B0F1005F09D077
:102EE000B0F1805F29D1D8F81C0040F40030C8F858
:102EF0001C0005E004F10800012101F0F9FF05467E
:102F00002E464DB9D8F84000216F20F040500025E2
:102F10000843C8F840003E46E078C00725D0A06CC2
:102F200003280DD8DFE800F016021016D8F81C00B0
:102F300040F40030C8F81C000CE001250126EBE746
:102F400001254FF0010911E004F10800022101F010
:102F5000CFFF0546A9464DB9D8F83C00A16C20F03A
:102F6000030000250843C8F83C00B146A07840069D
:102F700001D44F4616E0D8F8F00340F48070C8F84A
:102F8000F003FFF7B4FA0646D8F8F003C00507D4FB
:102F9000FFF7ADFA801B6428F6D90325032701E06B
:102FA0002F4695B12078C00753D0E06F4FEAF0006C
:102FB00005283AD8DFE800F042033C42424204F1DF
:102FC0000800012101F094FF37E0D8F86010D4F830
:102FD000B400414011F4407F11D0D8F86010D8F807
:102FE000602042F48032C8F86020D8F8602021F4D4
:102FF000407122F48032C8F86020C8F86010B0F543
:10300000807F40F05A82FFF772FA064641F2883A12
:1030100003250327D8F86000800700F14C82FFF7F2
:1030200066FA801B5045F5D9BCE70125012611E061
:1030300004F12800012101F0DFFF05462E464DB9BD
:10304000D8F84400E16F20F0380000250843C8F8A4
:1030500044003E462078800721D5A06F05280AD875
:10306000DFE800F012030C12121204F10800012133
:1030700001F03EFF07E00125012711E004F12800DF
:10308000012101F0B9FF05462F464DB9D8F844009B
:10309000A16F20F0070000250843C8F84400374618
:1030A0002078400723D5D4F8940005280AD8DFE813
:1030B00000F012030C12121204F10800012101F0B9
:1030C00017FF07E00125012612E004F12800012185
:1030D00001F092FF05462E4655B9D8F84800D4F8BD
:1030E000941020F0070000250843C8F848003E4629
:1030F0002078800625D5D4F890004FEA3070052856
:103100000AD8DFE800F012030C12121204F10800D2
:10311000002101F0EDFE07E00125012712E004F196
:103120002800022101F068FF05462F4655B9D8F85E
:103130004400D4F8901020F0E04000250843C8F87F
:10314000440037462078400625D5D4F89C004FEA45
:10315000B02005280AD8DFE800F012030C12121282
:1031600004F10800002101F0C3FE07E0012501265B
:1031700012E004F12800022101F03EFF05462E4630
:1031800055B9D8F84800D4F89C1020F4E050002538
:103190000843C8F848003E462078000625D5D4F8F4
:1031A000A0004FEA703005280AD8DFE800F01203CB
:1031B0000C12121204F10800002101F099FE07E040
:1031C0000125012712E004F12800022101F014FF7B
:1031D00005462F4655B9D8F84800D4F8A01020F479
:1031E000604000250843C8F84800374620680107BA
:1031F00016D5D4F88400B0F5805F09D104F1280019
:10320000022101F0F9FE002818BF0127D4F884003C
:10321000D8F8441021F440510843C8F8440020680D
:10322000C10616D5D4F89800B0F5807F09D104F115
:103230002800022101F0E0FE002818BF0127D4F881
:103240009800D8F8481021F440710843C8F84800A5
:103250002068000320D5D4F8A400B0F5003F0FD0BB
:10326000B0F5803F06D070BB04F10800002101F0EA
:103270003FFE04E004F12800022101F0BDFE0546F6
:103280002E4655B9D8F84800D4F8A41020F44030A0
:1032900000250843C8F848003E46A078400727D5D7
:1032A000D4F88800B0F5401F16D0B0F5001F0DD03F
:1032B000B0F5801F40F0FA80D8F81C0040F40030D0
:1032C000C8F81C0008E001250126E6E704F1280003
:1032D000012101F091FE05462F4655B9D8F844006A
:1032E000D4F8881020F4401000250843C8F84400A2
:1032F0003746A078C00701D13E461FE0206DB0F5EB
:10330000803F07D0C0B9D8F81C0040F40030C8F89E
:103310001C0005E004F10800022101F0E9FD05466A
:103320002E465DB9D8F83C00216D20F48030002590
:103330000843C8F83C00DFE7012501262168880022
:1033400001D4606809E004F12800022101F054FE74
:10335000002818BF0126D4E900108A031BD5D4F831
:1033600080206FF0010303EB3223022B0BD34FEAD3
:10337000322343B1012B40F09C80D8F81C3043F439
:103380000033C8F81C303DB9D8F8443023F44073FA
:103390001A43C8F844203546CA0207D5D8F8402059
:1033A000636F22F000421A43C8F84020CA0008D5D3
:1033B000D8F80020D4F8B83022F480421A43C8F874
:1033C00000208A0207D5D8F84020E36E22F08072F0
:1033D0001A43C8F840204A000CD5D8F8002022F43F
:1033E0000042C8F80020D4F8BC20D8F800301A43B6
:1033F000C8F80020CA0F07D0D8F83C20636D22F02F
:1034000040521A43C8F83C20090208D5D8F84410A5
:10341000D4F88C2021F440011143C8F84410C107AE
:1034200008D004F10800002101F062FD002818BF57
:1034300005466068810708D504F10800012101F004
:1034400057FD002818BF05466068410708D504F1FC
:103450000800022101F04CFD002818BF05466068F5
:10346000010708D504F12800002101F0C5FD00285E
:1034700018BF05466068C10608D504F1280001217F
:1034800001F0BAFD002818BF05466068800607D520
:1034900004F12800022101F0AFFD002818BF01252A
:1034A000002D18BF01252846BDE8F087012501271A
:1034B0001FE7012570E7D4F8B4004FF6CF73D8F8B2
:1034C0000020C0F2FF0300F4407122F47C5203EAB2
:1034D00010136FF31F30B1F5407F08BF1A4300256A
:1034E000C8F80020D8F860100843C8F8600040E52C
:1034F0002DE9F04381B0002800F01B8142F2000862
:103500000446C5F200288946D8F8000000F00F00F4
:1035100088420ED2D8F8000020F00F0040EA0900DF
:10352000C8F80000D8F8000000F00F00484540F04F
:103530000081206844F200474107C5F602070AD51A
:103540002169BA6902F07002914204D9BA6922F085
:1035500070021143B96101070AD56169FA6902F085
:103560007002914204D9FA6922F070021143F961A4
:10357000C1060AD5A169FA6902F4E062914204D950
:10358000FA6922F4E0621143F96181060AD5E16922
:103590003A6A02F07002914204D93A6A22F070024B
:1035A0001143396210F002010AD0E268BB6903F0EE
:1035B0000F039A4204D9BB6923F00F031A43BA617F
:1035C000C20738D0B969D4E9010221F47061012839
:1035D00041EA0201B96107D0032809D002280BD1C2
:1035E000396889030CD4A4E03968C90508D4A0E07F
:1035F0003968890104D49CE03968490740F1998011
:10360000396921F0070108433861FEF770FF06466B
:1036100041F288353869616800F03800B0EBC10FBD
:1036200006D0FEF764FF801BA842F3D9032081E097
:10363000206800F0020151B1E168BA6902F00F029E
:10364000914204D2BA6922F00F021143B961D8F84D
:10365000001001F00F0149450DD9D8F8001021F0F4
:103660000F0141EA0901C8F80010D8F8001001F074
:103670000F0149455DD141070AD52169BA6902F0B8
:103680007002914204D2BA6922F070021143B9610A
:1036900001070AD56169FA6902F07002914204D209
:1036A000FA6922F070021143F961C1060AD5A169D5
:1036B000FA6902F4E062914204D2FA6922F4E0620B
:1036C0001143F96180060AD5E069396A01F0700199
:1036D000884204D2396A21F070010843386200F050
:1036E00079F8B96946F27C42C0F60002C1F30321C1
:1036F000515CBB6903F00F0301F01F01D25C20FA9B
:1037000001F102F01F0040F20402C2F2004221FA6D
:1037100000F0106040F20C0040F20002C2F20040E3
:10372000C2F200420068116001B0BDE8F043FFF74B
:1037300001B8012001B0BDE8F08380B500F04AF87F
:1037400044F2184146F27C43C5F60201C0F600037C
:103750000A68C2F303229A5C096801F00F0102F0C3
:103760001F02595C20FA02F201F01F0040F204012E
:10377000C2F2004122FA00F0086040F20001C2F2F9
:1037800000410A6080BD80B5FFF7D7FF44F21C41BD
:1037900046F27C42C5F60201C0F600020968C1F398
:1037A0000211515C01F01F01C84080BD80B5FFF7D8
:1037B000C4FF44F21C4146F27C42C5F60201C0F649
:1037C00000020968C1F30221515C01F01F01C840E9
:1037D00080BD000044F20041C5F602010869C0F353
:1037E000C20003280FD002282CD080BB08688006B6
:1037F00049F20000C0F2D03058BF70470968C1F3E9
:10380000C101C84070478A6A886AC0F3051CC86A4B
:10381000BCF1000F4B6B1FD000F0010002F003025F
:103820004042022A00EAD3006FF35F3000EE100A34
:10383000B8EE400A12D0A2B90868800614D49FEDF1
:10384000261A1EE047F64000C0F27D10704740F691
:103850000010C0F23D007047002070479FED1D1A18
:103860000FE09FED1B1A0CE0086849F20002C0F25D
:10387000D032C0F3C10022FA00F001EE100AB8EE17
:10388000411A086B9FED153A6FF35F2002EE100AA4
:10389000086BC0F34620B8EE422A013000EE032A3E
:1038A00000EE10CAB7EE003AB8EE400A81EE000A08
:1038B00032EE031A20EE010A01EE100AB8EE411AA8
:1038C00080EE010ABCEEC00A10EE100A704700BF7D
:1038D0000024744A20BCBE4B0024744C0000003904
:1038E00058B3F0B581B00446007844F20046C007F2
:1038F000C5F6020623D12078800740F1B5803069F3
:1039000010F03801B06A3ED0182908BF5FEA807015
:1039100039D0E068316800285ED021F019010843F1
:103920003060FEF7E4FD05463068400745D4FEF7F9
:10393000DEFD401B0228F7D983E101207047306982
:1039400000F03801B06A102905D018290AD100F01A
:103950000300022806D130688003CCD560680028B7
:10396000C9D144E16068002847D0B0F5A02F5BD0F2
:10397000B0F5803F5CD0306820F480303060306833
:1039800020F4802057E030684007E06802D5002826
:1039900000F02D81316821F0190108433060FEF7F5
:1039A000A6FD05463068400707D4FEF7A0FD401B82
:1039B00002284FF00300F5D944E1FEF791FD41F2F2
:1039C0000301884246D820697168402821F47C317F
:1039D00047D141F4003046E021F001003060FEF7AD
:1039E00086FD0546306840073ED5FEF780FD401B4A
:1039F00002284FF00300F5D924E1306820F480302C
:103A00003060306820F480203060FEF770FD05469D
:103A1000306880037FF56FAFFEF769FD401B6428B7
:103A20004FF00300F4D90DE1306840F4802030609D
:103A3000306840F480303060FEF759FD054600BF25
:103A4000306880033FF557AFFEF751FD401B6428F7
:103A5000F6D9F6E07068216920F0FE4040EA016086
:103A600001E041EA003070602078C00654D530692A
:103A700000F03801B06A082905D0182919D100F0E2
:103A80000300012815D13068C00503D5E0698028FE
:103A900040F0AD80FEF724FD41F2030188421ED8BC
:103AA000206A7168202821F0F84132D141F080402D
:103AB00031E0E0690028306819D040F080003060C3
:103AC000FEF715FD054600BF3068C005E2D4FEF7DD
:103AD0000EFD401B02284FF00300F5D9B2E0F0685C
:103AE000216A20F07C5040EA0160F06014E020F090
:103AF00080003060FEF7FBFC054600BF3068C00563
:103B00000AD5FEF7F4FC401B02284FF00300F5D95C
:103B100098E041EA806070602078000754D42078F3
:103B2000800666D42078400778D4656A002D49D095
:103B3000306900F03800182840F0BA80012DB16AD1
:103B4000306B54D001F00302A36A9A424FD1C1F303
:103B50000511E26A91424AD10146226B6FF35F215F
:103B6000013A914243D1C0F34622616B01398A4246
:103B70003DD1C0F30642A16B01398A4237D1C0F36F
:103B80000660E16B0139884231D1706BA16CC0F3E2
:103B9000CC00814216D0F06A20F00100F062FEF7FE
:103BA000A6FC0546FEF7A3FCA842FBD0706B4FF6BF
:103BB000F871A26C884340EAC2007063F06A40F07A
:103BC0000100F06200203DE060690028706F3BD08A
:103BD00040F001007067FEF78AFC0546706F8007B1
:103BE0009DD4FEF784FC401B0228F7D929E0012070
:103BF00028E0A0690028306847D040F48050306049
:103C0000FEF775FC054600BF306880043FF58AAFBB
:103C1000FEF76DFC401B0228F6D912E0D6F800042E
:103C200040F48070C6F80004FEF761FC054600BF52
:103C3000D6F80004C00519D4FEF759FC401B6428CF
:103C4000F6D9032001B0F0BD20F001007067FEF747
:103C50004EFC0546706F80077FF561AFFEF747FCAD
:103C6000401B02284FF00300F4D9EBE7A0680028BE
:103C700040D0052857D0012859D0306F20F00100DE
:103C80003067306F20F0040054E020F48050306042
:103C9000FEF72DFC054600BF306880047FF542AF7B
:103CA000FEF725FC401B02284FF00300F4D9C9E7BA
:103CB000306820F080703060FEF719FC022D054658
:103CC0000CD100BF3068800146D5FEF710FC401BC8
:103CD00002284FF00300F5D9B4E700BF3068800137
:103CE0007FF570AFFEF703FC401B02284FF0030086
:103CF000F4D9A7E7306F20F001003067306F20F073
:103D000004003067FEF7F3FB054641F28837306F59
:103D100080077FF50AAFFEF7EAFB401BB8424FF081
:103D20000300F4D98EE7306F40F004003067306F45
:103D300040F001003067FEF7DAFB054641F28837B4
:103D4000306F80073FF5F1AEFEF7D1FB401BB84264
:103D50004FF00300F4D975E704F12807B06A40F288
:103D6000F33188438ECF0843591E40EA02104FF4C6
:103D70007E426FF35F21B06202EB47204FF4FE02F8
:103D800080B2E36B0844A16B02EB01414FF0FE42AD
:103D900001F4FE0102EB0362084402F0FE41084414
:103DA0003063F06A4FF6F87120F00100F062706B3A
:103DB000A26C884340EAC2007063F06A216C20F074
:103DC0000C000843F062F06A616C20F002000843C6
:103DD000F062F06A40F48030F062F06A40F4003043
:103DE000F062F06A40F48020F062F06A40F0010076
:103DF000F062306840F080703060FEF778FB044677
:103E0000306880013FF5DEAEFEF771FB001B022833
:103E10004FF00300F4D915E7411E0020B0EB116FFD
:103E200001D0012070474EF21002F023CEF20002C2
:103E300051604EF62351CEF200010B7007219060C5
:103E40001160704790F83C20012A4FF002025CD0CC
:103E5000B0B580F83D2040F2004C0268C4F2010C7D
:103E600042F4806363455368D2F808E002BF23F44C
:103E700070034C68234341F2FF740D68C4F20004E0
:103E800023F07003A24243EA050353600BDC40F2C7
:103E9000FF73C4F200039A4215DCB2F1804F27D0C1
:103EA00040F2004317E040F2FF33C4F201039A42AC
:103EB00016DC41F60003C4F200039A4218D0002336
:103EC000C4F2010309E040F60003C4F200039A4281
:103ED0000ED040F60043C4F200039A4208D00CE032
:103EE00044F20003C4F201039A4201D0624504D1B6
:103EF0002EF080038968194391600022012180F827
:103F00003D1080F83C20BDE8B0401046704760B3DB
:103F100010B5044690F83D0028B9002084F83C0014
:103F2000204600F024F8022084F83D002068211D7E
:103F300001F0FFF9012084F8480084F83E0084F87D
:103F40003F0084F8400084F8410084F8420084F87F
:103F5000430084F8440084F8450084F8460084F85F
:103F6000470084F83D00002010BD0120704782B05A
:103F700041F200010068C4F20001884210D0B0F1A3
:103F8000804F1AD144F2E840C5F60200016841F0C2
:103F900001010160006800F00100019001980CE04F
:103FA00044F2E840C5F60200016841F010010160EA
:103FB000006800F010000090009802B0704790F880
:103FC0003C20012A4FF0020200F0A38080B580F867
:103FD0003D208822D0F800C0CFF6CE72DCF8083041
:103FE0001A40CCF808200B686F2B0CDDB3F1101FC2
:103FF00034DAB3F5005F41DA702B00F08C80B3F552
:10400000805F7DD0CFE02F2B32DD4F2B3BDC302B80
:104010006AD0402B40F0C780D1F804E0C968DCF8D2
:104020002030DCF8202022F00102CCF82020DCF83F
:10403000182022F0F00242EA011123F00A02CCF823
:10404000181042EA0E01CCF820104FF68872DCF806
:104050000810CFF6CF72114047314FE02F21C0F248
:1040600010018B4236DCB3F1101F3DD0202137E028
:10407000D3B3102B38D0202B36D094E05ED0B3F5DC
:10408000801F31D08FE0502B6BD0602B40F08B80A5
:10409000D1F804E0C968DCF82030DCF8202022F0F8
:1040A0001002CCF82020DCF8182022F4704242EAFA
:1040B000013123F0A002CCF8181042EA0E11CCF81E
:1040C00020104FF68872DCF80810CFF6CF7211403E
:1040D000673113E03021C0F210018B4204D040213F
:1040E000C0F210018B425ED14FF68872DCF80810E6
:1040F000CFF6CF721140194341F00701CCF80810F8
:104100000022012180F83D10002180F83C10BDE81C
:10411000804010467047D1E901E3C968DCF8082007
:1041200043EA0E0322F47F4243EA01211143CCF813
:104130000810DCF8081041F07701DFE7D1E901E36E
:10414000C968DCF8082043EA0E0322F47F4243EA00
:1041500001211143CCF80810DCF8081041F480412B
:10416000CCE7D1F804E0C968DCF82030DCF8202086
:1041700022F00102CCF82020DCF8182022F0F00216
:1041800042EA011123F00A02CCF8181042EA0E01AB
:10419000CCF820104FF68872DCF80810CFF6CF72FA
:1041A00011405731AAE70122ABE70068B0F1804F18
:1041B00018BF70472DE9F04186B044F2E04000247A
:1041C000C5F60200C5F6020401AD4FF00208016811
:1041D000002741F0010101600168012601F00101A1
:1041E00001910199016841F00201016000682946CE
:1041F00000F00200019001982C2001902046CDF89B
:104200000880CDE903770596FEF79AF8082029463D
:10421000CDE9010804F580600596CDE90377FEF746
:104220008FF806B0BDE8F04170470000B0B5044615
:1042300090F83C00012801D10220B0BD0D464FEAA4
:10424000B20105294FF0010084F83C0048D8DFE8AE
:1042500001F0030B131B23332068294601F00BF9EF
:10426000206850F8181F1EE02068294601F064F904
:10427000206850F8181F26E02068294601F0B1F99F
:10428000206850F81C1F0EE02068294601F0FEF956
:10429000206850F81C1F16E02068294601F038FA03
:1042A000206850F8541F41F008010160016821F0B6
:1042B0000401016029690FE02068294601F069FACC
:1042C000206850F8541F41F400610160016821F436
:1042D00080610160296909020268114301600020C0
:1042E000002184F83C10B0BD60B310B5044690F8CE
:1042F0003D0028B9002084F83C00204600F024F856
:10430000022084F83D002068211D01F012F80120F0
:1043100084F8480084F83E0084F83F0084F84000A8
:1043200084F8410084F8420084F8430084F8440093
:1043300084F8450084F8460084F8470084F83D007E
:10434000002010BD01207047704790F884100129AB
:1043500001D1022112E02421C0F8881002681368FC
:10436000116823F0005321F0010111600021416622
:1043700013602022C0F8882080F884100846704717
:1043800010B50446D0F88C0020280BD14FF0010066
:1043900039B132B1E06600202067204601F0B2FD5D
:1043A00010B110BD022010BDE06E01280ED12068B2
:1043B00010210162206850E8000F216840F01000D1
:1043C00041E80002002AF5D1002010BD012010BDF7
:1043D00070477047B0B5044690F88400012801D1B9
:1043E0000220B0BD012084F884002420C4F8880095
:1043F00020680568026822F001020260826822F0EB
:10440000606211438160204601F00BFA206805606C
:104410002020C4F88800002084F88400B0BDB0B526
:10442000044690F88400012801D10220B0BD01208B
:1044300084F884002420C4F8880020680568026895
:1044400022F001020260826822F060421143816022
:10445000204601F0E6F9206805602020C4F88800B5
:10446000002084F88400B0BD7047704741F2000C12
:104470000068C4F2010C604518BF704740F2342058
:1044800040F2A051C2F20040C2F2004101220823D2
:10449000CCF8203000F0FEBA70B50446006840F653
:1044A0002F01C26911402029016886680DD101F0F1
:1044B000200306F080555B1919D0616F002900F0C8
:1044C000EE812046BDE87040084740F60F031A42CF
:1044D0000DD0012340F22015C1F20003C0F20045C7
:1044E00006EA030C01EA050313EB0C0355D1D306CE
:1044F000E36E43D5012B41D111F010033ED01021C2
:1045000001628068400600F1B080B4F85C00B4F845
:104510005E10B4F85E20002A00F0C181884200F0ED
:10452000BE81401A216851E8001F226821F4907171
:1045300042E80013002BF5D14FF6FE71CEF6FF7165
:10454000226852E8022F23680A4043E80226002E20
:10455000F6D12021C4F88C100021E166616700BF0C
:10456000216851E8001F226821F0100142E8001381
:10457000002BF5D181B2022020678BE1D30240F1FC
:10458000908016F4800300F08C804FF4801101625B
:104590002046BDE87040FFF768BFD30718BF11F48D
:1045A000807307D001230362D4F8903043F00103F5
:1045B000C4F89030930706F0010E0AD5BEF1000F43
:1045C00007D002230362D4F8903043F00403C4F808
:1045D000903053070AD5BEF1000F07D004230362C1
:1045E000D4F8903043F00203C4F8903013070CD590
:1045F00001F0200353EA0C0307D008230362D4F828
:10460000903043F00803C4F8903013050BD511F037
:10461000806308D04FF400630362D4F8903043F015
:104620002003C4F89030D4F89030002B00F037818C
:1046300092060AD501F0200106F08052891804D0B4
:10464000616F11B1204688472068D4F890108068C7
:1046500000F0400001F02801401862D12046FFF729
:1046600005FF0020C4F8900019E1D4F8800040F262
:104670000F42C4F202020168914233DC6F22C4F29D
:10468000020291426FDC3F22C4F20202914200F327
:1046900096801022C4F20202914200F0B2802822D9
:1046A000ACE0100605D501F0800006F40003C01848
:1046B00065D150062BD511F0400028D0206850E875
:1046C000000F216820F0400041E80002002AF5D1E7
:1046D0002020C4F888000020A0672046BDE8704074
:1046E00000F066BA40F26F42C4F20202914248DC26
:1046F00040F23F42C4F20202914267DC40F21042B3
:10470000C4F2020291427CD040F2284276E01002CC
:104710004BD511F0804048D02046BDE87040FFF7EF
:10472000A3BE204601F01CFA20688068400637D5F9
:10473000206850E8020F216820F0400041E80202A2
:10474000002AF5D1D4F8800050B345F6F511C0F633
:1047500000010165FCF7D8FC002800F0A080D4F827
:104760008000016DAEE69F22C4F20202914236DC67
:104770007022C4F20202914243D088223EE0A16F2F
:104780009CE640F29F42C4F2020291422EDC40F2CB
:104790007042C4F20202914233D040F288422DE0CE
:1047A0002046BDE87040FFF761BED00177D5B1F17A
:1047B000FF3F74DC2046BDE87040FFF70ABE402290
:1047C000C4F2020291421CD0582217E040F240424B
:1047D000C4F20202914214D040F258420EE0A022EC
:1047E000C4F2020291420CD0B82207E040F2B84273
:1047F000C4F20202914204D040F2A042C4F202028A
:10480000914249688AB2002A49D0B4F85C309A4291
:1048100045D2A4F85E10C069B0F5807F32D000BFE9
:10482000206850E8000F216820F4807041E8000201
:10483000002AF5D1206850E8020F216820F001001D
:1048400041E80202002AF5D1206850E8020F2168F1
:1048500020F0400041E80202002AF5D12020C4F8EF
:104860008C000020E06600BF206850E8000F21683F
:1048700020F0100041E80002002AF5D1D4F88000B1
:10488000FCF7DEF902202067B4F85C00B4F85E1093
:10489000401A81B22046BDE87040FFF799BD70BD57
:1048A00010B5D8B10446D0F8880028B9002084F8A3
:1048B0008400204600F026F82420C4F888002068F0
:1048C000A16A0268002922F00101016002D020469D
:1048D00000F0D0FF204601F071F908B1012010BDB1
:1048E0002068416821F490414160816821F02A01EB
:1048F0008160016841F0010101602046BDE810407F
:1049000001F01CB82DE9F047B8B0044633A81421D3
:10491000FBF728FD02A8C021FBF724FD41F20001AE
:104920002068C4F20101884238D044F60041C4F244
:104930000001884240F0AB8002A8002403940225C5
:104940000295FEF727F908B1FCF774F944F2E0404C
:10495000C5F60200816841F400218160816801F49C
:10496000002101910199016841F001010160006895
:1049700033A900F00100019001980320CDE933052F
:10498000082037900020C5F60200CDE93544FDF738
:10499000D7FC342005210022342473E0012002904A
:1049A00002A800260396FEF7F5F808B1FCF742F9D5
:1049B00044F2E04040F21008C5F60200C4F20208DA
:1049C000016941F010010161016901F010010191DB
:1049D0000199016841F0020101600068002100F0C6
:1049E00002000190C5F6020101984FF44040339057
:1049F00002203690CDE934060420379001F580601E
:104A000033A9FDF79DFC40F258052920C2F200456C
:104A10004FF4806A4FF480794FF48037C5E901067E
:104A20002846C5F80080EE60C5E904A6C5E9066918
:104A3000C5E90876FDF778F808B1FCF7FBF8C4F88B
:104A4000805008F11800AC6340F2D005C2F2004576
:104A500028602A2068604020A8600020C5E9030A79
:104A6000C5E90500C5E908702846C5F81C90FDF7A2
:104A70005BF808B1FCF7DEF8E5672520AC6302219E
:104A800000222524FDF7ECFE2046FDF7D9FE38B0C4
:104A9000BDE8F087D0F88C30202B23D14FF00103F4
:104AA00009B302B30023C36640F60043D0F800C048
:104AB000C5F600039C4513D080B5DCF804301B021A
:104AC0000CD500BF036853E800CFD0F800E04CF0ED
:104AD00080634EE8003CBCF1000FF3D1BDE880409C
:104AE00001F010BA02231846704740F23421C2F296
:104AF0000041884218BF704710B540F2A054C2F27E
:104B00000044207801F0CEFA40F234200122C2F2B3
:104B100000402146BDE81040FFF732BC704700005E
:104B200010B50446D0F8880020282FD14FF001009E
:104B3000E9B31346DAB321654FF0000EA4F8543000
:104B40002120A4F85630C4F890E0C4F88800E06F43
:104B5000F0B145F61D3C45F65B32C0F6000CC0F6E0
:104B60000002C0E90FC245F60522C0F60002C0E906
:104B7000132E22682832FDF716FA48B11020C4F827
:104B800090002020C4F88800012010BD022010BD34
:104B900020684021016200BF206850E8020F2168B0
:104BA00040F0800041E80202002AF5D1002010BD4B
:104BB00070477047FEE780B582B044F2D8400022CB
:104BC000C5F60200016841F00101016000680021A2
:104BD00000F00100019001980B20FDF741FE0B2031
:104BE000FDF72EFE0C2000210022FDF739FE0C20DF
:104BF00002B0BDE88040FDF723BE83B044F2E04040
:104C0000C5F60200016841F080010160016801F011
:104C1000800102910299016841F00101016001687F
:104C200001F0010101910199016841F00201016067
:104C3000006800F002000090009803B0704710B5C3
:104C400040F2481445F20040C2F2004447F2B1512C
:104C5000C4F20000C3F27001C4E900010020A060AA
:104C60000120E06004F110001421FBF77BFB2046DB
:104C7000FDF78CFC08B1FBF7DDFF40F24810002186
:104C8000C2F20040FDF739FC08B1FBF7D3FF40F258
:104C900048100021C2F20040FDF754FC18B1BDE8F5
:104CA0001040FBF7C7BF10BD10B58EB068461C2181
:104CB00000240D94CDE90B440994CDE90744FBF79A
:104CC00051FB40F29C104FF08041C2F20040C0E91D
:104CD000001484604FF0FF31C0E90314802181612A
:104CE000FFF715F908B1FBF7A5FF4FF480500A90C4
:104CF00040F29C100AA9C2F20040FFF760F908B127
:104D0000FBF798FF40F29C10C2F20040FFF7ECFA6C
:104D100008B1FBF78FFF40F29C1007A9C2F20040D8
:104D2000002407940994FFF78DF808B1FBF782FF80
:104D300060206946CDE9000440F29C100022C2F2D6
:104D4000004002940494FFF771FA08B1FBF772FF78
:104D500040F29C106946C2F200400422FFF766FA56
:104D600008B1FBF767FF40F29C106946C2F20040B1
:104D70000822FFF75BFA08B1FBF75CFF40F29C10DA
:104D80006946C2F200400C22FFF750FA08B1FBF767
:104D900051FF40F29C10C2F20040FFF706FA0EB03D
:104DA00010BD10B584B040F2E81041F20001C2F22B
:104DB000004000240294C4F20001C0E900148460A1
:104DC0004FF6FF71C16080218161FFF7A0F808B143
:104DD000FBF730FF40F2E81001A9C2F20040019455
:104DE0000394FFF72FF808B1FBF724FF04B010BDC0
:104DF00010B540F2C82444F60040C2F20044C4F2A8
:104E00000000142120604FF4E13060600020C4E90C
:104E1000020020610C20606104F11800FBF7A2FA87
:104E20002046FFF73DFD08B1FBF704FF40F2C82024
:104E30000021C2F20040FFF7F2FA08B1FBF7FAFED8
:104E400040F2C8200021C2F20040FFF7C3FA08B1C7
:104E5000FBF7F0FE40F2C820C2F20040FFF775FAFF
:104E600018B1BDE81040FBF7E5BE10BD10B540F22B
:104E7000342441F20000C2F20044C4F201001421C3
:104E800020604FF4E13060600020C4E9020020613E
:104E90000C20606104F11800FBF764FA2046FFF76C
:104EA000FFFC08B1FBF7C6FE40F234200021C2F23D
:104EB0000040FFF7B4FA08B1FBF7BCFE40F2342023
:104EC0000021C2F20040FFF785FA08B1FBF7B2FEFD
:104ED00040F23420C2F20040FFF737FA18B1BDE8C3
:104EE0001040FBF7A7BE10BDFEE70000FEE77047CD
:104EF000F0B581B044F20047C5F60207BA6A02F085
:104F00000302032A01D1012073E0054638680C46EC
:104F100020F080603860FDF7EAFA06463868000144
:104F200005D5FDF7E4FA801B0228F7D95EE0B86AE0
:104F3000EE6895E80E0020F47C30012C40EA013048
:104F4000A2F101016FF35F214FF47E4202EB432295
:104F5000B86292B24FF0FE4302EB01004FF4FE0143
:104F60002A6901EB064101F4FE0103EB02620844E9
:104F700002F0FE410844B863F86A696920F0C00095
:104F800040EA0100F862F86AA96920F0200040EACE
:104F90000100F862F86A4FF6F87120F01000F8622C
:104FA000F86BEA6920EA01004FF4001140EAC20000
:104FB000F863F86A08BF4FF4801140F01000002C2D
:104FC000F86208BF4FF40021F86A0843F8623868B5
:104FD00040F080603860FDF78AFA044638680001C6
:104FE00006D4FDF784FA001B0328F7D3032000E062
:104FF000002001B0F0BD0000F0B581B044F20047E0
:10500000C5F60207BA6A02F00302032A01D10120A1
:1050100073E0054638680C4620F080503860FDF794
:1050200066FA06463868800005D5FDF760FA801BF1
:105030000228F7D95EE0B86AEE6895E80E0020F025
:105040007C70012C40EA0150A2F101016FF35F2155
:105050004FF47E4202EB4322B86292B24FF0FE431D
:1050600002EB01004FF4FE012A6901EB064101F455
:10507000FE0103EB0262084402F0FE41084438647A
:10508000F86A696920F4406040EA0100F862F86A51
:10509000A96920F4007040EA0100F862F86A4FF64E
:1050A000F87120F48070F862786CEA6920EA0100F7
:1050B0004FF0807140EAC2007864F86A08BF4FF48C
:1050C000000140F48070002CF86208BF4FF48001AA
:1050D000F86A0843F862386840F080503860FDF79D
:1050E00006FA04463868800006D4FDF700FA001B73
:1050F0000328F7D3032000E0002001B0F0BD704783
:10510000D9B180B540F2904E36380FF2300CC2F271
:10511000004E00BF092803D81CF8002001E000BFA2
:1051200080229EF80030013900F1010042EA0302BA
:105130008EF80020EED1BDE88040704701808002EB
:1051400080800880800400008AB240F23421C2F2DC
:105150000041034608461946FFF7E2BCFDF7ACBA2A
:10516000B0B59CB044F6180440F22C4509A84C2177
:10517000C5F60204C5F60005FBF7F4F801A82021E6
:10518000FBF7F0F80220FDF7A9FB0020009028684B
:1051900020F001002860286800F0010000902068DD
:1051A00040F440402060206800F4404000900098A7
:1051B00020688004FCD54FF6DC40CFF6FF70215804
:1051C00041F002012150205800F0020000900098A8
:1051D00000200090206840F440402060206800F4E7
:1051E00040400090286840F001002860286800F0E6
:1051F00001000090009800BF20688004FCD50220C8
:10520000099001210C9112900025042114913C2158
:105210004024CDE91510CDE917000C200D94CDE9FF
:10522000190509A813951B95FEF75AFB18B1EFF362
:10523000108072B6FEE73F20019003200421CDE9E3
:10524000020508200694CDE904044FF48060CDE9FE
:10525000070401A8FEF74CF918B1EFF3108072B6FD
:10526000FEE71CB0B0BD4EF6885042F2000CCEF204
:105270000000C5F2002C016841F470010160DCF807
:10528000000000F00F00062806D8DCF80000072117
:1052900061F30300CCF8000044F200404EF67F5268
:1052A000C5F60200CEF6F622016841F00101016068
:1052B0000021016103681A400260DCF80020120737
:1052C00006D5DCF80020072363F30302CCF80020A6
:1052D00040F200228161C161C0F202220162826259
:1052E0000022C0F2FF12C26240F28022C0F201121C
:1052F000026341638263C16302644164026822F411
:1053000080220260016641F20000C5F6004000689C
:10531000B1EB507F05D148F208100121C5F2001011
:10532000016044F2000043F2D201C5F200200160A6
:10533000704740F6FF32C4F20002904202680DDC72
:10534000B0F1804F1BD040F20043C4F200039842FA
:1053500015D040F60003C4F200030EE040F600430F
:10536000C4F2000398420AD040F20043C4F20103A1
:10537000984204D00023C4F20103984203D122F0E2
:1053800070024B681A434FF6FF7343F6FF7CC4F27A
:105390000003C4F2010C984210DD60451ADD44F2AE
:1053A0000003C4F2010398422AD044F60003C4F279
:1053B0000103984224D044F2004312E040F2FF730C
:1053C000C4F2000398420FDCB0F1804F18D040F2D5
:1053D000004311E00023C4F20103984210D040F2D0
:1053E0000043C4F2010309E040F60003C4F20003E5
:1053F000984205D040F60043C4F20003984203D11E
:1054000022F44072CB681A4310B522F08002D1F822
:1054100000E04C698B6822430260C3626045C0F8BB
:1054200028E0BDE810400EDD44F20002C4F20102A3
:10543000904213D044F60002C4F2010290420DD013
:1054400044F2004206E00022C4F20102904205D07C
:1054500040F20042C4F20102904201D109690163A5
:10546000012141610169C90708BF7047016921F045
:1054700001010161704770B5036A43F6FF75026A66
:1054800023F0020322F0010202624268D0F818E021
:105490008C68C4F20105234344F20004D1F800C033
:1054A000A842C4F201040ADDA04213D044F600066B
:1054B000C4F20106B0420DD044F2004606E00026D8
:1054C000C4F20106B04205D040F20046C4F2010623
:1054D000B04205D1CE6823F00C0326F00406334316
:1054E000A8420ADDA04213D044F60004C4F201042D
:1054F000A0420DD044F2004406E00024C4F20104AE
:10550000A04205D040F20044C4F20104A04205D1FB
:1055100022F44072D1E9054522432A434FF68C74A8
:105520004260CFF6FE740EEA040646EA0C0282617F
:1055300049684163036270BD70B5036A40F200467A
:10554000026A40F4806522F0100202624268D0F8DC
:1055500018C08C68C4F2010623F02003B54243EA68
:10556000041307D1CD686FF0400423F0C00304EAB0
:1055700005152B4343F6FF75D1F800E0C4F2010591
:10558000A84212DD44F20004C4F20104A04213D088
:1055900044F60004C4F20104A0420DD044F20044D9
:1055A000C4F20104A04207D00DE00024C4F20104BB
:1055B000A04201D0B04206D1D1E905452C4322F4E6
:1055C000406242EA840248F6FF444260CFF6FF643C
:1055D0000CEA040646EA0E2282614968816303628E
:1055E00070BD70B5036A40F20046026A40F48065FF
:1055F00022F4807202624268C4F20106D0F81CC034
:105600008C6823F40073B54243EA042307D1CD68C4
:1056100040F2FF442D0223F44063A5432B4343F69D
:10562000FF75D1F800E0C4F20105A84212DD44F292
:105630000004C4F20104A04213D044F60004C4F2F2
:105640000104A0420DD044F20044C4F20104A0427F
:1056500007D00DE00024C4F20104A04201D0B04202
:1056600006D1D1E905452C4322F4405242EA041206
:105670004FF68C744260CFF6FE740CEA040646EADC
:105680000E02C2614968C163036270BDB0B5D0F853
:1056900020C0026A22F48052026243F6FF7243681D
:1056A000C4F20102C46990420A68D1F808E00EDD34
:1056B00044F20005C4F20105A84213D044F60005E7
:1056C000C4F20105A8420DD044F2004506E00025D1
:1056D000C4F20105A84205D040F20045C4F201051C
:1056E000A84204D14D6923F4804343EA851348F668
:1056F000FF454360CFF6FF652C402CF4005544EA8B
:105700000222C2614968016445EA0E310162B0BDFE
:10571000B0B5D0F820C0026A22F48032026243F6AB
:10572000FF724368C4F20102446D90420A68D1F8E6
:1057300008E00EDD44F20005C4F20105A84213D0D2
:1057400044F60005C4F20105A8420DD044F200451C
:1057500006E00025C4F20105A84205D040F200454C
:10576000C4F20105A84204D14D6923F4803343EA11
:1057700005234FF68F754360CFF6FE752C402CF451
:105780000035224342654968816545EA0E41016260
:10579000B0BDB0B5D0F820C0026A22F48012026217
:1057A00043F6FF724368C4F20102446D90420A68F6
:1057B000D1F808E00EDD44F20005C4F20105A8426C
:1057C00013D044F60005C4F20105A8420DD044F2FE
:1057D000004506E00025C4F20105A84205D040F2CC
:1057E0000045C4F20105A84204D14D6923F4802389
:1057F00043EA852348F6FF754360CFF6FF652C40EA
:105800002CF4001544EA022242654968C16545EA64
:105810000E510162B0BD40F2C820C2F20040FEF756
:105820003BBE416EF9B180B5016846F2A46CC0F68A
:10583000000C46F2AC6E8A68C0F6000E8968490F0B
:10584000C2F342621CF801301EF801101B01B3FBC9
:10585000F1F11CF802301EF802201B01B3FBF2F23A
:10586000BDE8804001E001210122A0F86A10A0F803
:1058700068207047816A0A0708D50268D0F838C0E6
:10588000536823F4004343EA0C035360CA0708D06B
:105890000268D0F82CC0536823F4003343EA0C03A9
:1058A00053608A0708D50268D0F830C0536823F4E3
:1058B000803343EA0C0353604A0708D50268D0F8E6
:1058C00034C0536823F4802343EA0C035360CA06B0
:1058D00008D50268D0F83CC0936823F4805343EAAB
:1058E0000C0393608A0608D50268D0F840C093681C
:1058F00023F4005343EA0C0393604A0612D502686E
:10590000D0F844C0BCF5801F536823F4801343EAE9
:105910000C03536006D1536823F4C00C836C43EA34
:105920000C035360090658BF70470168C06C4A6891
:1059300022F400221043486070470000B0B582B0E6
:1059400004460020C4F89000FCF7D1FD216805460C
:105950000A68120719D54FF4001100226FF07E403B
:10596000009020462B4600F01DFB68B1206850E8EF
:10597000000F216820F0800041E80002002AF5D1E4
:105980002020C4F8880026E021680868400724D554
:105990004FF4800100226FF07E40009020462B469D
:1059A00000F000FBC8B100BF206850E8000F21687C
:1059B00020F4907041E80002002AF5D1206850E8F8
:1059C000020F216820F0010041E80202002AF5D10F
:1059D0002020C4F88C00032007E02020C4F88800B1
:1059E000C4F88C000020E0662067002184F8841051
:1059F00002B0B0BD806B0021A0F85E10A0F8561078
:105A0000FEF734BD10B5846B2168D4F88820D4F833
:105A10008C008B681B061DD5212A1BD10021A4F800
:105A2000561000BF216851E8001F226821F0C00114
:105A300042E80013002BF5D1216851E8021F2268CB
:105A400021F4000142E80213002BF5D12021C4F813
:105A5000881021688968490607D5222805D10020C9
:105A6000A4F85E00204600F07BF8D4F8900040F0E7
:105A70001000C4F890002046BDE81040FEF7F6BCC8
:105A8000C169806BB1F5807F30D00021A0F85E1035
:105A9000016851E8001F026821F4807142E8001398
:105AA000002BF5D1016851E8021F026821F00101C5
:105AB00042E80213002BF5D1016851E8021F026889
:105AC00021F0400142E80213002BF5D12021C0F85B
:105AD0008C10C16E012909D1016851E8001F0268CC
