:020000040800F2
:10000000580D0024AD0200082D5C000819580008A6
:10001000C55B0008E9030008A16D000800000000AE
:100020000000000000000000000000003F5E00082B
:10003000AB130008000000002F5C00089D5E000864
:10004000C7020008C7020008C7020008C70200086C
:10005000C7020008C7020008C7020008C70200085C
:10006000C7020008C7020008C7020008310C0008D8
:100070003D0C0008490C0008550C0008C702000898
:10008000C7020008C7020008C7020008C70200082C
:10009000C7020008C7020008C7020008C70200081C
:1000A000C7020008C7020008C7020008C70200080C
:1000B000C7020008C7020008C7020008C7020008FC
:1000C000C7020008C7020008C7020008C7020008EC
:1000D000C7020008956D0008C7020008C7020008A3
:1000E000C7020008C702000800000000C70200089D
:1000F000C7020008C7020008C7020008C7020008BC
:10010000C7020008C7020008C7020008C7020008AB
:100110006F650008C7020008736000087F60000870
:10012000C7020008C7020008C7020008C70200088B
:10013000C7020008C7020008C7020008C70200087B
:1001400000000000000000000000000000000000AF
:10015000C7020008C7020008C7020008C70200085B
:10016000C7020008C7020008C7020008C70200084B
:10017000C7020008C7020008C7020008C70200083B
:10018000C7020008C7020008C7020008C70200082B
:10019000C7020008C7020008C7020008C70200081B
:1001A000C7020008C7020008C7020008C70200080B
:1001B000C7020008C7020008C7020008C7020008FB
:1001C000C7020008C7020008C7020008C7020008EB
:1001D000C7020008C7020008C7020008C7020008DB
:1001E000C7020008C7020008C7020008C7020008CB
:1001F000C7020008C7020008C7020008C7020008BB
:10020000C7020008C7020008C7020008C7020008AA
:10021000C7020008C7020008C7020008C70200089A
:10022000C7020008C7020008C7020008000000005B
:10023000C7020008C702000800000000C70200084B
:10024000C7020008C7020008C7020008C70200086A
:10025000C7020008C7020008C7020008C70200085A
:10026000C7020008C7020008C7020008C70200084A
:10027000C7020008C7020008C7020008000000000B
:10028000C7020008C7020008C702000800000000FB
:1002900000000000C7020008DFF80CD000F08CF866
:1002A0000048004741710008580D00240648804767
:1002B00006480047FEE7FEE7FEE7FEE7FEE7FEE74B
:1002C000FEE7FEE7FEE7FEE7A75F000899020008E9
:1002D0002DE9F05F0546002092469B46884606467B
:1002E000814640241BE0284641464746224600F00E
:1002F00053F853465A46C01A914110D31146184636
:10030000224600F03AF82D1A67EB01084F462246C4
:100310000120002100F031F817EB00094E41201EAA
:10032000A4F10104DFDC484631462A464346BDE8D5
:10033000F09F40EA01039B0703D009E008C9121FA0
:1003400008C0042AFAD203E011F8013B00F8013B8F
:10035000521EF9D27047D2B201E000F8012B491EBB
:10036000FBD270470022F6E710B513460A46044652
:100370001946FFF7F0FF204610BD202A04DB203A83
:1003800000FA02F1002070479140C2F1200320FAE8
:1003900003F3194390407047202A04DB203A21FAE6
:1003A00002F00021704721FA02F3D040C2F120028E
:1003B00091400843194670471CB509480090094808
:1003C00001900546009C06E0E06840F0010394E8D7
:1003D000070098471034AC42F6D3FFF761FF0000E6
:1003E0007C7400089C740008FEE700000000000018
:1003F0002DE9F04F81B02DED068B96B040F64810F8
:1004000040F24027C2F20040C2F200479FEDEA8B63
:1004100007F1180EFC6A90ED002B40F22800C2F2A2
:10042000004087ED022B9EE8404290ED003BD7E96B
:1004300009C551EC120BCDE90854B0EE419BCDF843
:100440001490CDF818E087ED041BCDF81CC053ECD8
:10045000132BB0EE40AB5AEC11BB8DE80308B0EEA5
:10046000480B0AA8CDE903A6B0EE481BB0EE482B16
:1004700087ED003B06F0A1FE40F25009129AC2F24D
:1004800000493A62139A7A62149ABA62159AFA6229
:1004900097ED0A0B40F2F0060C9A99ED001BC2F2A0
:1004A0000046BA60DDE90A01796058EC113B38601A
:1004B0000D9852EC101BF8600E9886ED001B386109
:1004C0000F9886ED020B78611098B0EE480BB8617A
:1004D0001198F861B0EE481BD6E90A40B0EE482BFF
:1004E000CDE908408DE806080AA81A46434686ED7D
:1004F000049BD6E90675D6E908ECCDE903A7CDE95A
:10050000055ECDF81CC006F058FE0AAA129B3362A5
:10051000139B07CA306040F28000C2F20040736251
:10052000149BB362159BF36296ED0A0B716040F267
:10053000280180ED000B40F64010C2F20041C2F2EB
:10054000004040F2B01791ED021BC2F20047B260CA
:1005500090ED000B0D98F0600E9830610F9870616F
:100560001098B0611198F06151EC100B07F1180E62
:10057000FD6A53EC112B8DE8030887ED001B0AA8D8
:10058000CDF80CA087ED020B9EE840419FED8C0B4F
:10059000D7E909C49FED8C1BCDE908459FED8C2B55
:1005A000049687ED049BCDF81480CDF818E0CDF8C3
:1005B0001CC006F002FE12993962139979621499EF
:1005C000B9621599F96297ED0A0B40F220160A9864
:1005D00099ED021B0B9938600C9879600D99B86001
:1005E000F960C2F200460E9838610F987861109851
:1005F000B8611198F86151EC100B06F1180EF56A0C
:1006000053EC112B8DE8030886ED001B0AA8CDF8EA
:100610000CA086ED020B9EE880419FED6F0BD6E9A2
:1006200009C49FED6F1BCDE908459FED6F2B049723
:1006300086ED049BCDF81480CDF818E0CDF81CC0F1
:1006400006F0BBFDDDE90A01306040F27800716020
:1006500040F22801C2F20040C2F20041129A326216
:10066000139A7262149AB262159AF26240F270277B
:100670000C9A96ED0A0BC2F20047B26080ED000BB7
:100680000D98F06091ED040B0E9830610F98706139
:100690001098B0611198F06151EC1A0B07F1180E27
:1006A000FD6A87ED000B8DE8030853EC102B0AA8B8
:1006B000B0EE480B9EE84041B0EE481BD7E909C4B4
:1006C000B0EE482BCDF81CC0CDE9084587ED02AB54
:1006D000CDE903A687ED049BCDE9058E06F06DFDFF
:1006E00012993962139979621499B9621599F9626C
:1006F00097ED0A0B40F250160A9899ED041BC2F2CE
:1007000000460B9938600C9879600D99B8600E9886
:10071000F96006F1180E38610F9878611098B86189
:100720001198F861F56A51EC100B9EE8804186ED56
:10073000001B8DE8030886ED020B0AA853EC112B71
:10074000D6E909C4B0EE480BCDF81CC0CDE9084588
:10075000B0EE481BCDE903A7B0EE482BCDE9058EDE
:1007600086ED049B06F029FD40F288011298C2F242
:1007700000413062139870621498B0621598F0626C
:100780000A9830600B9870600C98B0600D98F0601B
:100790000E9830610F9870611098B0611198F061F7
:1007A00096ED0A0B012081ED000B16B0BDEC068B17
:1007B00001B0BDE8F08F00BF0000000000000000A5
:1007C000F6285C8FC2F508409A9999999999B93F92
:1007D0007B14AE47E17A943F666666666666EE3FD6
:1007E0007B14AE47E17AD43FA4703D0AD7A3C03F43
:1007F0002DE9F04F81B02DED068B96B040F2400010
:1008000040F29006C2F20040C2F20046B0EE428BC7
:10081000D6E9067E90ED003BD6E9089C51EC100B22
:10082000D6E90A4553EC132BCDE9084586ED020BBA
:10083000049786ED042BCDF814E0B0EE419BCDF883
:100840001890CDF81CC05AEC12BB8DE803089FED40
:100850008A0B0AA8CDF80CA09FED891B9FED8A2B6F
:1008600086ED003B06F0A9FC40F2A029129AC2F2E4
:1008700000493262139A7262149AB262159AF26255
:1008800096ED0A0B40F2E0170C9A99ED001BC2F2AC
:100890000047B2609FED7EABDDE90A01716058EC64
:1008A000113B30600D9852EC101BF0600E9887EDF4
:1008B000001B30610F9887ED020B70611098B0EE4D
:1008C0004A0BB0611198F061B0EE4A1BD7E90A40BB
:1008D000B0EE4A2BCDE908408DE806080AA81A4672
:1008E000434687ED048BD7E90665D7E908ECCDE9E7
:1008F00003A60595CDF818E0CDF81CC006F05DFC08
:10090000DDE90A01386040F64010796040F24001AC
:10091000C2F20040C2F20041129A3A62139A7A621D
:10092000149ABA62159AFA6240F2C0060C9A97EDD0
:100930000A0BC2F20046BA6080ED000B0D98F86019
:1009400091ED020B0E9838610F9878611098B8619C
:100950001198F86151EC190B06F1180EF56A86ED45
:10096000000B8DE8030853EC102B0AA8B0EE4A0BDD
:100970009EE88041B0EE4A1BD6E909C4B0EE4A2B8E
:10098000CDF81CC0CDE9084586ED029BCDE903A753
:1009900086ED048BCDE9058E06F00FFC12993162CD
:1009A000139971621499B1621599F16296ED0A0B6F
:1009B00040F210270A9899ED021BC2F200470B99EA
:1009C00030600C9871600D99B0600E98F16007F17D
:1009D000180E30610F9870611098B0611198F06135
:1009E000FD6A51EC100B9EE8404187ED001B8DE83D
:1009F000030887ED020B0AA853EC112BD7E909C4B1
:100A0000B0EE4A0BCDF81CC0CDE90845B0EE4A1B4C
:100A1000CDE903A6B0EE4A2BCDE9058E87ED048B18
:100A200006F0CBFB40F648111298C2F20041386242
:100A3000139878621498B8621598F8620A9838602A
:100A40000B9878600C98B8600D98F8600E98386133
:100A50000F9878611098B8611198F86197ED0A0BBA
:100A6000012081ED000B16B0BDEC068B01B0BDE896
:100A7000F08F00BF00BF00BF666666666666EE3F29
:100A80007B14AE47E17AD43FA4703D0AD7A3C03FA0
:100A900000000000000000002DE9F04796B040F291
:100AA000904040F28014C2F20040C2F200445EEC7A
:100AB00011CB04F1180AE76A90ED002B9AE82006A2
:100AC00084ED041BD4E909869FED1F1BCDE908675F
:100AD00051EC100B049584ED002B8DE8035084ED50
:100AE000020B0AA8CDF8149053EC122BCDF818A0E5
:100AF000B1EE0A0BCDF81C80B0EE412B06F05DFB89
:100B000040F270011298C2F20041206213986062B4
:100B10001498A0621598E0620A9820600B986060B3
:100B20000C98A0600D98E0600E9820610F986061AD
:100B30001098A0611198E06194ED0A0B012081EDFD
:100B4000000B16B0BDE8F0870000000000000000B8
:100B50002DE9F04F81B050380F2800F266808846AA
:100B600092464FF0340B4FF0000903274024DFE892
:100B700000F008350B1014191C1F2225285C5C5C42
:100B80005C2B4FF0300B25E04FF0030A4FF0370B92
:100B900020E04FF03D0B2E2420E04FF0030A4FF0F1
:100BA0003A0B17E04FF0410B14E04FF0450B11E00A
:100BB0004FF0490B0EE04FF04D0B0BE04FF0510B97
:100BC00008E04FF0550B05E040F63410C2F200404B
:100BD000D0F800B04FF0010904270024BAF1030F48
:100BE00040F20C7508BF5746C2F20045414605EB7E
:100BF0004B007A00FFF79DFB40F204765846C2F2A4
:100C00000046394632689047B9F1000F0DD1BAF16C
:100C1000030F0AD0B8F806003268012125F8140045
:100C2000204601B0BDE8F04F104701B0BDE8F08F9D
:100C300040F2A030C2F2004000F072BF40F2184013
:100C4000C2F2004000F06CBF40F2B020C2F200409F
:100C500000F066BF40F22830C2F2004000F060BFF2
:100C600040F20F42D0F800C0C4F20202944510DCFA
:100C70006F22C4F20202944520DC3F22C4F2020239
:100C8000944536DC1022C4F20202944554D0282246
:100C90004EE040F26F42C4F2020294451ADC40F288
:100CA0003F42C4F2020294452ADC40F21042C4F2F0
:100CB0000202944540D040F2284239E09F22C4F21B
:100CC0000202944525DC7022C4F20202944533D01E
:100CD00088222DE040F29F42C4F2020294451FDCBC
:100CE00040F27042C4F20202944525D040F288429C
:100CF0001EE04022C4F2020294451DD0582217E0A3
:100D000040F24042C4F20202944515D040F25842EB
:100D10000EE0A022C4F2020294450DD0B82207E0F2
:100D200040F2B842C4F20202944505D040F2A0421B
:100D3000C4F20202944517D10CF0F8024AF6AB2334
:100D4000103ACAF6AA23A2FB033109A35F2AC1F312
:100D500002115B5C40F2FF312CEA0101C36588BFE0
:100D600004318165084670472CF0FF01F9E700BFA8
:100D7000000610160006101645F257420168C5F627
:100D8000020291420EDC45F22F42C5F60202914268
:100D900017DC45F20842C5F60202914226D045F220
:100DA0001C421FE045F27F42C5F60202914211DC6F
:100DB00045F25842C5F60202914217D045F26C4204
:100DC00010E045F23042C5F6020291420ED045F2E3
:100DD000444207E045F29442C5F60202914205D032
:100DE00045F28042C5F6020291421AD101F0FC019F
:100DF0004CF6CD420839CCF6CC42A1FB021245F6A6
:100E00000003C5F60203120903F1800103EB82031C
:100E100002F01F0203660123416603FA02F18166B4
:100E2000704710B501F0F8024AF6AB23103ACAF643
:100E3000AA23A2FB032340F20F42C4F202024FF0A6
:100E4000080E4FEA131C914202F1AA04624688BFC1
:100E50000EEB131240F60003A142C4F2020303F1A9
:100E6000800128BF6246BDE81040CFE70279511EDD
:100E7000072988BF704710B545F2574C45F6FC0E60
:100E80000368C5F6020CC5F6020E63450EF1440C6C
:100E90000EDC45F22F44C5F60204A34217DC45F2EE
:100EA0000844C5F60204A34226D045F21C441FE0C4
:100EB00045F27F44C5F60204A34211DC45F25844D2
:100EC000C5F60204A34217D045F26C4410E045F287
:100ED0003044C5F60204A3420ED045F2444407E074
:100EE00045F28044C5F60204A34205D045F294447D
:100EF000C5F60204A3420BD10EEB8202C2660122A8
:100F0000C0F870C002FA01F14167BDE810407047B7
:100F100040F6FC0EC4F2020E0EF1440CECE770B584
:100F200040F26F44D0F800C0C4F20204D0F858E098
:100F3000A44517DC9F25C4F20205AC452DDC5725DE
:100F4000C4F20205AC4550DC1025C4F20205AC45E4
:100F500000F08A802825C4F20205AC4500F08480A8
:100F600040256BE045F22F45C5F60205AC4527DC70
:100F700040F2B745C4F20205AC4542DC40F2704590
:100F8000C4F20205AC456FD040F28845C4F20205B8
:100F9000AC4569D040F2A04550E040F22745C4F28C
:100FA0000205AC453CDCA025C4F20205AC455BD093
:100FB000B825C4F20205AC4556D040F210453DE0DC
:100FC00045F26B45C5F60205AC453ADC45F23045C5
:100FD000C5F60205AC4547D045F24445C5F60205C5
:100FE000AC4541D045F2584539E05825C4F20205D8
:100FF000AC4539D07025C4F20205AC4534D0882503
:101000001CE040F2B845C4F20205AC452CD045F2D4
:101010000845C5F60205AC4526D045F21C451EE044
:1010200040F22845C4F20205AC451DD040F24045CF
:10103000C4F20205AC4517D040F25845C4F202058F
:101040000FE045F26C45C5F60205AC450CD045F203
:101050009445C5F60205AC4506D045F28045C5F677
:101060000205AC4540F0CA80456EC66E002E866E05
:101070006E601CBFD0E91C566E60A44515DC9F2431
:10108000C4F20204A4452BDC5724C4F20204A44594
:101090004EDC1024C4F20204A44576D02824C4F205
:1010A0000204A44571D040246BE045F22F44C5F6FC
:1010B0000204A44527DC40F2B744C4F20204A4456C
:1010C00042DC40F27044C4F20204A4455DD040F218
:1010D0008844C4F20204A44557D040F2A04450E032
:1010E00040F22744C4F20204A4453CDCA024C4F22C
:1010F0000204A44549D0B824C4F20204A44544D053
:1011000040F210443DE045F26B44C5F60204A445AC
:101110004CDC45F23044C5F60204A44558D045F2F3
:101120004444C5F60204A44552D045F258444BE06D
:101130005824C4F20204A44527D07024C4F2020447
:10114000A44522D088241CE040F2B844C4F2020432
:10115000A4451AD045F20844C5F60204A44537D088
:1011600045F21C4430E040F22844C4F20204A44595
:101170000BD040F24044C4F20204A44505D040F232
:101180005844C4F20204A44538D18468C06D00F00C
:101190001F003F2505FA00F0CEF80800DCF800003B
:1011A000402C20F48020CCF800001BE045F26C4479
:1011B000C5F60204A4450BD045F28044C5F60204EE
:1011C000A44505D045F29444C5F60204A44515D1C2
:1011D000C46D012504F01F04806805FA04F4CEF8FC
:1011E00004404028CCF8043004D1CCF80820CCF8D6
:1011F0000C1070BDCCF80810CCF80C2070BD0000AD
:1012000070B589B040F62C0CC2F2004C9CF800007E
:10121000002842D0B3EE000A40F20C7E002106AA5C
:1012200003AB6846C2F2004E9FED4D1A9FED4D2A6A
:101230009FED4D3A0EEB010402310629B4F96850D6
:10124000B4F96E60B4F97A4004EE105A05EE106AF3
:1012500006EE104AB8EEC44AB8EEC55AB8EEC66AF1
:1012600024EE014A25EE015A26EE016A24EE004AD8
:10127000A2EC014A25EE024AA3EC014A26EE034AFB
:10128000A0EC014AD6D19CF80000C00705D09CF81C
:10129000000000F0FE008CF800009CF800008007C1
:1012A00005D59CF8000000F0FD008CF800009CF8CB
:1012B0000000400705D59CF8000000F0FB008CF80A
:1012C00000009CF80000000705D59CF8000000F025
:1012D000F7008CF8000040F210009DED060AC2F203
:1012E0000040B7EEC00A9DED071A40F2280180EDDC
:1012F000000B9DED080AB7EEC11AB7EEC00AC2F2A4
:10130000004180ED021B9DED041A80ED040B40F2BC
:1013100050009DED030AC2F20040B7EEC00AB7EEDE
:10132000C11A80ED000B9DED050AB7EEC00A80EDF5
:10133000040B9DED000AB7EEC00A80ED021B9DED87
:10134000011A012081ED000B9DED020AB7EEC11AD2
:10135000B7EEC00A81ED021B81ED040B09B070BD30
:10136000000000380000FA440000344380B500203B
:10137000502105F021FD41F2AD30C0F6000005F02E
:1013800010FD45F68960C0F6000005F0BCFD45F68D
:101390004160C0F6000005F025FD062005F0ECFDDB
:1013A0000B2005F0BBFD012080BD704701F072BB32
:1013B000EFF3108072B600BFFEE700002DE9F041A8
:1013C000044601F052FC14B3054694F83500022897
:1013D00020D140F20F462768C4F2020640F26F485F
:1013E000B7426FF00E00C4F2020816DC6F21C4F29F
:1013F00002018F4222DC3F21C4F202018F4238DC1D
:101400001021C4F202018F4257D0282150E0012060
:10141000BDE8F081802060650DE147451ADC40F2AF
:101420003F41C4F202018F422ADC40F21041C4F273
:1014300002018F4241D040F2284139E09F21C4F29D
:1014400002018F4225DC7021C4F202018F4234D0A8
:1014500088212DE040F29F41C4F202018F421FDC3F
:1014600040F27041C4F202018F4226D040F288411E
:101470001EE04021C4F202018F421ED0582117E025
:1014800040F24041C4F202018F4216D040F258416E
:101490000EE0A021C4F202018F420ED0B82107E075
:1014A00040F2B841C4F202018F4206D040F2A0419E
:1014B000C4F202018F42394607D13946386820F01C
:1014C0001E0041F8140B6FF080000A68474500EADF
:1014D0000200086017DC9F20C4F2020087422DDC66
:1014E0005720C4F20200874250DC1020C4F20200F0
:1014F000874200F089802820C4F20200874200F071
:10150000838040206BE045F22F40C5F60200874201
:1015100027DC40F2B740C4F20200874242DC40F2CE
:101520007040C4F2020087426ED040F28840C4F29C
:101530000200874268D040F2A04050E040F22740CD
:10154000C4F2020087423CDCA020C4F202008742C1
:101550005AD0B820C4F20200874255D040F2104061
:101560003DE045F26B40C5F6020087423ADC45F2A9
:101570003040C5F60200874246D045F24440C5F6E9
:101580000200874240D045F2584039E05820C4F26A
:101590000200874238D07020C4F20200874233D064
:1015A00088201CE040F2B840C4F2020087422BD0F1
:1015B00045F20840C5F60200874225D045F21C409E
:1015C0001EE040F22840C4F2020087421CD040F2E4
:1015D0004040C4F20200874216D040F25840C4F2A4
:1015E00002000FE045F26C40C5F6020087420BD0C6
:1015F00045F29440C5F60200874205D045F280408E
:10160000C5F60200874204D1206E016821F4807182
:101610000160386820F00100386000BF3868C007FA
:101620000BD001F022FB401B0628F7D32020606579
:10163000032084F83500012016E12068B04210DC58
:101640006F21C4F2020188421CDC3F21C4F2020176
:10165000884232DC1021C4F20201884251D0282194
:101660004AE040451ADC40F23F41C4F202018842A0
:101670002ADC40F21041C4F20201884241D040F21B
:10168000284139E09F21C4F20201884225DC702103
:10169000C4F20201884234D088212DE040F29F41FB
:1016A000C4F2020188421FDC40F27041C4F2020120
:1016B000884226D040F288411EE04021C4F2020157
:1016C00088421ED0582117E040F24041C4F2020186
:1016D000884216D040F258410EE0A021C4F2020127
:1016E00088420ED0B82107E040F2B841C4F20201AE
:1016F000884206D040F2A041C4F20201884240F084
:10170000B880D4E9161202F01F023F2303FA02F256
:101710008A60404517DC9F21C4F2020188422DDC1B
:101720005721C4F20201884250DC1021C4F20201A8
:10173000884200F089802821C4F20201884200F02A
:10174000838040216BE045F22F41C5F602018842BB
:1017500027DC40F2B741C4F20201884242DC40F289
:101760007041C4F2020188426ED040F28841C4F256
:101770000201884268D040F2A04150E040F2274187
:10178000C4F2020188423CDCA021C4F2020188427A
:101790005AD0B821C4F20201884255D040F210411B
:1017A0003DE045F26B41C5F6020188423ADC45F264
:1017B0003041C5F60201884246D045F24441C5F6A3
:1017C0000201884240D045F2584139E05821C4F224
:1017D0000201884238D07021C4F20201884233D01D
:1017E00088211CE040F2B841C4F2020188422BD0AB
:1017F00045F20841C5F60201884225D045F21C4158
:101800001EE040F22841C4F2020188421CD040F29E
:101810004041C4F20201884216D040F25841C4F25D
:1018200002010FE045F26C41C5F6020188420BD07F
:1018300045F29441C5F60201884205D045F2804147
:10184000C5F6020188420BD1616EA26EE06E4A605D
:1018500030B1016821F480710160D4E91C0141605C
:10186000012084F835000020002184F83410BDE800
:10187000F081D4E9161202F01F02012303FA02F2EA
:101880004A6046E7F0B190F83510022918D180B5CA
:1018900040F20F420168C4F20202914214DC6F234D
:1018A000C4F20203994224DC3F23C4F202039942AA
:1018B0003ADC1023C4F20203994258D0282352E0A4
:1018C000802141650121C2E040F26F43C4F202036E
:1018D00099421ADC40F23F43C4F2020399422ADCE7
:1018E00040F21043C4F20203994240D040F2284330
:1018F00039E09F23C4F20203994225DC7023C4F22D
:101900000203994233D088232DE040F29F43C4F272
:10191000020399421FDC40F27043C4F20203994271
:1019200025D040F288431EE04023C4F202039942CE
:101930001DD0582317E040F24043C4F202039942FD
:1019400015D040F258430EE0A023C4F2020399429E
:101950000DD0B82307E040F2B843C4F20203994225
:1019600005D040F2A043C4F20203994271D19142E2
:101970004FF0040280F8352010DC6F20C4F2020022
:10198000814220DC3F20C4F20200814236DC10207C
:10199000C4F20200814253D028204EE040F26F4052
:1019A000C4F2020081421ADC40F23F40C4F202005D
:1019B00081422ADC40F21040C4F2020081423FD052
:1019C00040F2284039E09F20C4F20200814225DC29
:1019D0007020C4F20200814232D088202DE040F213
:1019E0009F40C4F2020081421FDC40F27040C4F20A
:1019F0000200814224D040F288401EE04020C4F220
:101A0000020081421CD0582017E040F24040C4F24E
:101A10000200814214D040F258400EE0A020C4F2EF
:101A2000020081420CD0B82007E040F2B840C4F276
:101A30000200814204D040F2A040C4F20200814280
:101A4000086820F0010008600021BDE880400846D9
:101A500070470A6822F00E020A6045F25742C5F646
:101A6000020291420A6822F001020A600EDC45F28D
:101A70002F42C5F60202914217DC45F20842C5F634
:101A80000202914226D045F21C421FE045F27F42FD
:101A9000C5F60202914211DC45F25842C5F6020237
:101AA000914217D045F26C4210E045F23042C5F643
:101AB000020291420ED045F2444207E045F29442C0
:101AC000C5F60202914205D045F28042C5F60202F7
:101AD00091421AD1D0E9181CD0E916E30A6822F421
:101AE00080720A6003F01F01012202FA01F1CEF8B0
:101AF0000410816ECCF80410C16E31B10A6822F472
:101B000080720A60D0E91C124A60012180F8351009
:101B1000026D0021002A80F8341096D0904793E798
:101B20002DE9F04782B00021019140F20001044606
:101B3000C2F2004148F2B512C1F64E32A56D0968F5
:101B400040F26F490068C4F20209A1FB021848453F
:101B50002E68296815DC9F21C4F2020188422BDC23
:101B60005721C4F2020188424FDC1021C4F2020165
:101B7000884278D02821C4F20201884273D04021E3
:101B80006CE045F22F42C5F60202904227DC40F29B
:101B9000B742C4F20202904243DC40F27041C4F208
:101BA000020188425FD040F28841C4F202018842BB
:101BB00059D040F2A04151E040F22741C4F2020165
:101BC00088423DDCA021C4F2020188424BD0B821FA
:101BD000C4F20201884246D040F210413EE045F294
:101BE0006B42C5F60202904273DC45F23042C5F604
:101BF0000202904200F0808045F24442C5F60202A3
:101C0000904279D045F2584271E05821C4F2020165
:101C1000884228D07021C4F20201884223D0882152
:101C20001CE040F2B842C4F2020290421BD045F2DE
:101C30000842C5F6020290425ED045F21C4256E0D0
:101C400040F22841C4F2020188420CD040F24041E7
:101C5000C4F20201884206D040F25841C4F20201A7
:101C6000884240F01183E16D082201F01F0140F22B
:101C70000F4A8A40C4F2020A324200F0D180504535
:101C80004FF0040312DC6F27C4F20207B84264DC91
:101C90003F27C4F20207B84200F392801027C4F233
:101CA0000207B84200F0B0802827A8E0484560DC71
:101CB00040F23F47C4F20207B84200F3888040F286
:101CC0001047C4F20207B84200F09E8040F2284755
:101CD00095E045F26C42C5F6020290420CD045F206
:101CE0008042C5F60202904206D045F29442C5F603
:101CF0000202904240F0C8820268E36D03F01F03C5
:101D000004279F400F4218BF12F004061BD1022780
:101D10009F400F4218BF12F0020639D1D94009077F
:101D200040F1B28212F0080100F0AE82016821F0A9
:101D30000E010160012000FA03F16960606584F81A
:101D40003500E16C58E211046F6033D4910635D44C
:101D5000016821F00401016030E09F27C4F202070E
:101D6000B8423DDC7027C4F20207B8424CD0882745
:101D700045E040F29F47C4F20207B84237DC40F228
:101D80007047C4F20207B8423ED040F2884736E0BE
:101D900011046F6000F17B82910600F17C82016882
:101DA00021F00A010160012084F83500002084F848
:101DB000340070E2D00301D4A16C5FE2216C5DE2DB
:101DC0004027C4F20207B8421ED0582717E040F25D
:101DD0004047C4F20207B84216D040F258470EE01E
:101DE000A027C4F20207B8420ED0B82707E040F29D
:101DF000A047C4F20207B84206D040F2B847C4F286
:101E00000207B84218BF082307681F4208D00368BA
:101E100023F004030360AA60626D42F00102626570
:101E200001228A4032426AD0504510DC6F23C4F24E
:101E3000020398421CDC3F23C4F20203984232DCC6
:101E40001023C4F20203984251D028234AE04845A7
:101E50001ADC40F23F43C4F2020398422ADC40F20B
:101E60001043C4F20203984241D040F2284339E0C3
:101E70009F23C4F20203984225DC7023C4F20203BC
:101E8000984234D088232DE040F29F43C4F20203ED
:101E900098421FDC40F27043C4F20203984226D0FD
:101EA00040F288431EE04023C4F2020398421ED051
:101EB000582317E040F24043C4F20203984216D080
:101EC00040F258430EE0A023C4F2020398420ED021
:101ED000B82307E040F2A043C4F20203984206D0C0
:101EE00040F2B843C4F20203984240F0D6814369FD
:101EF0001B0604D5AA60626D42F0020262650422EC
:101F00008A4032426AD0504510DC6F23C4F202038B
:101F100098421CDC3F23C4F20203984232DC1023B7
:101F2000C4F20203984251D028234AE048451ADC03
:101F300040F23F43C4F2020398422ADC40F21043CD
:101F4000C4F20203984241D040F2284339E09F2373
:101F5000C4F20203984225DC7023C4F202039842C3
:101F600034D088232DE040F29F43C4F2020398420C
:101F70001FDC40F27043C4F20203984226D040F2C4
:101F800088431EE04023C4F2020398421ED0582327
:101F900017E040F24043C4F20203984216D040F2E8
:101FA00058430EE0A023C4F2020398420ED0B82397
:101FB00007E040F2A043C4F20203984206D040F288
:101FC000B843C4F20203984240F0698103689B075A
:101FD00004D5AA60626D42F004026265102202FA22
:101FE00001F131427BD050454FF0080210DC6F23E5
:101FF000C4F2020398421CDC3F23C4F2020398425D
:1020000032DC1023C4F20203984251D028234AE064
:1020100048451ADC40F23F43C4F2020398422ADCEE
:1020200040F21043C4F20203984241D040F22843E8
:1020300039E09F23C4F20203984225DC7023C4F2E6
:102040000203984234D088232DE040F29F43C4F22B
:10205000020398421FDC40F27043C4F2020398422C
:1020600026D040F288431EE04023C4F20203984287
:102070001ED0582317E040F24043C4F202039842B6
:1020800016D040F258430EE0A023C4F20203984257
:102090000ED0B82307E040F2A043C4F202039842F6
:1020A00006D040F2B843C4F20203984218BF04229B
:1020B0000368134213D0A96001684903016806D47C
:1020C000C90506D4016821F00801016001E0080398
:1020D00001D4216C00E0A16C09B120468847E06D75
:1020E00000F01F01202000FA01F2324200F0A2802D
:1020F00020681023504510DC6F27C4F20207B84255
:102100001CDC3F27C4F20207B84232DC1027C4F2BD
:102110000207B84251D028274AE048451ADC40F26D
:102120003F47C4F20207B8422ADC40F21047C4F22B
:102130000207B84241D040F2284739E09F27C4F255
:102140000207B84225DC7027C4F20207B84234D037
:1021500088272DE040F29F47C4F20207B8421FDCF7
:1021600040F27047C4F20207B84226D040F28847D6
:102170001EE04027C4F20207B8421ED0582717E0DD
:1021800040F24047C4F20207B84216D040F2584726
:102190000EE0A027C4F20207B8420ED0B82707E02D
:1021A00040F2A047C4F20207B84206D040F2B84756
:1021B000C4F20207B84218BF022307681F4239D091
:1021C000AA6094F83520042A02681BD122F0160276
:1021D0000260426922F080024261226C0AB9A26C5C
:1021E0001AB1026822F0080202603F208840A8600D
:1021F000012084F83500216D4FF0000084F8340090
:10220000E9BB41E0510301680CD4C9050ED4016853
:1022100021F010010160012084F83500002084F8CD
:10222000340003E0080301D4616C00E0E16B09B104
:1022300020468847606D38B3606DC0071DD004200C
:1022400084F8350020684FEA9821026822F00102E4
:10225000026000BF019A013201928A4202D80268EC
:10226000D207F7D10068C0074FF0030008BF012074
:1022700084F83500002084F83400E16C21B1204658
:1022800002B0BDE8F047084702B0BDE8F087D003D0
:1022900001D4616CF2E7E16BF0E702682FE60268B7
:1022A0009CE600002DE9F041044600F0DEFC002C25
:1022B00000F0AA8040F26F4805462068C4F2020888
:1022C000404515DC9F21C4F2020188422BDC5721D6
:1022D000C4F20201884251DC1021C4F2020188429A
:1022E0007AD02821C4F20201884275D040216EE0E4
:1022F00045F22F41C5F60201884227DC40F2B74182
:10230000C4F20201884245DC40F27041C4F202018D
:10231000884261D040F28841C4F2020188425BD019
:1023200040F2A04153E040F22741C4F2020188424A
:102330003FDCA021C4F2020188424DD0B821C4F292
:102340000201884248D040F2104140E045F26B4122
:10235000C5F60201884200F38F8045F23041C5F690
:102360000201884200F09A8045F24441C5F602011C
:10237000884200F0938045F258418BE05821C4F226
:102380000201884228D07021C4F20201884223D081
:1023900088211CE040F2B841C4F2020188421BD0FF
:1023A00045F20841C5F60201884277D045F21C414A
:1023B00070E040F22841C4F2020188420CD040F2A1
:1023C0004041C4F20201884206D040F25841C4F2B2
:1023D0000201884240F0BB80022184F835100021C0
:1023E00084F83410016821F001010160206801685F
:1023F000C9070CD000F039FC401B0628F6D320207A
:102400006065032084F835000120BDE8F08148F2C2
:102410003F0204F108060168CFF6106211406569B9
:102420004CCE1143A2691943E3693143266A0D4337
:10243000616A2B43042943EA060343EA020303D1FA
:10244000D4E90B652E43334341F20006C5F600463E
:102450003668B6F1005F63D36568A5F13F06132EB9
:1024600058D80127B74040F20F36C0F20F06374266
:1024700050D043F4801353E045F26C41C5F602019D
:1024800088420BD045F28041C5F60201884205D052
:1024900045F29441C5F60201884258D104F1080E74
:1024A000022184F83510002184F834100168A369F2
:1024B0009EE80450A2F18005E769B5FA85F56669E2
:1024C0006D09402A4FEA853543EA07026FF3101180
:1024D00042EA060208BF102541EADC0142EA0E0288
:1024E000236A294341EAD20141EA131140F808194D
:1024F000C0B2CD2148433C2101EA9020E06520464E
:10250000FEF7AEFBE16D012201F01F0102FA01F1BD
:10251000416042E0A5F12906062E38BF43F480133E
:1025200003600429436923F0070341EA030129D129
:10253000D4E90A5341EA050123B3B2F5005F08D09C
:102540009AB9022D14D0012D09D08DB11AE0402086
:1025500056E7032D16D8DFE805F00E0B0E02A3F1A7
:10256000C072B2FA82F2520904E0032D03D309D1FA
:10257000C3F3006232B140206065012084F8350069
:10258000BDE8F08141612046FEF76AFBE16D3F2224
:1025900001F01F0102FA01F181602068404517DC5B
:1025A0009F21C4F2020188422DDC5721C4F20201AE
:1025B000884250DC1021C4F20201884200F0898078
:1025C0002821C4F20201884200F0838040216BE0A0
:1025D00045F22F41C5F60201884227DC40F2B7419F
:1025E000C4F20201884242DC40F27041C4F20201AE
:1025F00088426ED040F28841C4F20201884268D01D
:1026000040F2A04150E040F22741C4F2020188426A
:102610003CDCA021C4F2020188425AD0B821C4F2A5
:102620000201884255D040F210413DE045F26B4135
:10263000C5F6020188423ADC45F23041C5F6020196
:10264000884246D045F24441C5F60201884240D056
:1026500045F2584139E05821C4F20201884238D08D
:102660007021C4F20201884233D088211CE040F27C
:10267000B841C4F2020188422BD045F20841C5F6A8
:102680000201884225D045F21C411EE040F228415B
:10269000C4F2020188421CD040F24041C4F202015F
:1026A000884216D040F25841C4F202010FE045F2D0
:1026B0006C41C5F6020188420BD045F29441C5F643
:1026C0000201884205D045F28041C5F602018842E8
:1026D00020D12046FEF750FBA068802802D10020C0
:1026E000606000E06068C1B204F1600701388CCF1F
:1026F000072811605F6009D82046FEF7B7FB04F198
:102700006C02002307CA03604A6003E00020606790
:10271000C4E91B0000206065012184F83510BDE884
:10272000F08138B1B0B5054690F83400012803D1E6
:102730000220B0BD01207047012085F8340095F8D3
:102740003500012828D1022085F835000020686571
:102750002868046824F0010404602846FEF7DFFBC3
:1027600040F20F422868C4F2020240F26F419042E8
:10277000C4F2020118DC6F23C4F20203984224DC85
:102780003F23C4F2020398423ADC1023C4F202034E
:10279000984259D0282352E04FF400606865002029
:1027A00085F834000120B0BD88421ADC40F23F4376
:1027B000C4F2020398422ADC40F21043C4F202033E
:1027C000984241D040F2284339E09F23C4F20203EB
:1027D000984225DC7023C4F20203984234D0882347
:1027E0002DE040F29F43C4F2020398421FDC40F206
:1027F0007043C4F20203984226D040F288431EE0A0
:102800004023C4F2020398421ED0582317E040F23E
:102810004043C4F20203984216D040F258430EE0FF
:10282000A023C4F2020398420ED0B82307E040F27E
:10283000B843C4F20203984206D040F2A043C4F267
:102840000203984240F01B8103680B2464F34403A5
:1028500003602B6C1BB10823046823430360884288
:1028600017DC9F23C4F2020398422DDC5723C4F2E5
:102870000203984250DC1023C4F20203984200F095
:1028800089802823C4F20203984200F08380402309
:102890006BE045F22F43C5F60203984227DC40F275
:1028A000B743C4F20203984242DC40F27043C4F2E0
:1028B000020398426ED040F28843C4F20203984269
:1028C00068D040F2A04350E040F22743C4F2020334
:1028D00098423CDCA023C4F2020398425AD0B823A9
:1028E000C4F20203984255D040F210433DE045F255
:1028F0006B43C5F6020398423ADC45F23043C5F615
:102900000203984246D045F24443C5F6020398427A
:1029100040D045F2584339E05823C4F202039842AC
:1029200038D07023C4F20203984233D088231CE0CD
:1029300040F2B843C4F2020398422BD045F2084358
:10294000C5F60203984225D045F21C431EE040F232
:102950002843C4F2020398421CD040F24043C4F220
:102960000203984216D040F25843C4F202030FE02B
:1029700045F26C43C5F6020398420BD045F29443EE
:10298000C5F60203984205D045F28043C5F602031E
:1029900098426ED12B6E1C68E40303D51C6844F486
:1029A00080741C60EB6E1BB11D6845F480751D6062
:1029B000904210DC6F21C4F2020188421CDC3F21EE
:1029C000C4F20201884232DC1021C4F202018842C2
:1029D0004FD028214AE088421ADC40F23F41C4F23D
:1029E000020188422ADC40F21041C4F2020188420E
:1029F0003FD040F2284139E09F21C4F202018842D1
:102A000025DC7021C4F20201884232D088212DE0F9
:102A100040F29F41C4F2020188421FDC40F2704143
:102A2000C4F20201884224D040F288411EE04021D5
:102A3000C4F2020188421CD0582117E040F2404104
:102A4000C4F20201884214D040F258410EE0A021A5
:102A5000C4F2020188420CD0B82107E040F2B8412C
:102A6000C4F20201884204D040F2A041C4F2020143
:102A70008842016841F0010101600020B0BD036897
:102A8000052464F3430303602B6C002B3FF4E7AE93
:102A90000423E1E6B0B5044600F0E7F840F209018E
:102AA0000546C2F20041621C097818BF0C4400BF01
:102AB00000F0DBF8401BA042FAD3B0BD2DE9F04F87
:102AC00082B00D68002D00F0C68000F1264242F26F
:102AD000004402F1FF728305C5F602040A27A042F2
:102AE00043EA922208BF0927092A40F2040C38BFA2
:102AF0001746C5F6000C4FF0000E00970027002681
:102B0000012202FA06FB15EA0B0800F09A80D1F8C0
:102B100004A003220AF0030502FA07F36C1E6FEA11
:102B20000309012C10D88368CC6803EA0903BC4070
:102B300023438360CAF30014436823EA0B03B440C1
:102B40002343436004E000BF032D01D1032520E0AF
:102B5000C3688C6803EA0903BC40022D43EA0403FE
:102B6000C36016D16FF003020EF01C0502EA560393
:102B70000F22034402FA05FBD3F820A00C692AEACD
:102B80000B0AAC4044EA0A041C62D1F804A00AF023
:102B90000305036805FA07F403EA09031AF4403F42
:102BA00043EA040303604CD044F2F44240F2084A82
:102BB000C5F60202C5F6000A136843F0020313606B
:102BC00013680F2203F00203019326F00303019C14
:102BD0000EF00C0453F80A9002FA04F5009A29EA60
:102BE000050502FA04F44FF0B0492C4343F80A40BB
:102BF000D9F800304C6843EA0805E20258BF23EADE
:102C00000805C9F80050A502DCF8002042EA0803D4
:102C100058BF22EA0803A503CCF80030DCF8802076
:102C200042EA080358BF22EA0803E403CCF88030E4
:102C3000DCF87C2042EA080358BF22EA0803CCF8FB
:102C40007C3001360D6835FA06F207F102070EF105
:102C5000040E7FF455AF02B0BDE8F08F41F20000E2
:102C6000C5F600400068000C704740F65410C2F2F0
:102C700000400068704790F84120202A03D190F866
:102C80004020012A01D1022118E0242280F84120AD
:102C90000268136823F001031360136823F4805360
:102CA0001360136819431160116841F0010111604C
:102CB000202180F84110002180F84010084670471C
:102CC00090F84120202A03D190F84020012A01D118
:102CD000022117E0242280F841200268136823F0C3
:102CE00001031360136823F4706343EA0121116048
:102CF000116841F001011160202180F8411000218C
:102D000080F840100846704708B310B5044690F8A4
:102D1000410028B9002084F84000204600F049F81E
:102D2000242084F8410094E80910E2680168012A2F
:102D300021F00101016023F070610161816821F4DB
:102D40000041816005D14CF4004181600AE001201E
:102D50007047022A4CF40441816003D1416841F478
:102D6000006102E0416821F40061416004F1100C4F
:102D7000416841F0007141F400414160C16821F4B3
:102D80000041C1609CE80E10114341EA0321C1607B
:102D9000216A41EA0C010160016841F00101016012
:102DA00000206064202184F84110206384F84200F0
:102DB00010BDB0B5B8B002A9044601F10800B821B1
:102DC000FDF7D0FA45F200412068C4F200018842C4
:102DD0002ED10820029002A80024039400F09AFA51
:102DE00008B1FEF7E5FA44F2E04533A9C5F602055D
:102DF000286840F002002860286800F00200339044
:102E00003398C02033901220CDE934040420379049
:102E100040F200403694C5F60200FFF74FFEA86866
:102E200040F40010A860A86800F400100190019818
:102E300038B0B0BD40F2090040F65411C2F2004073
:102E4000C2F2004100780A6810440860704780B5FB
:102E5000032000F0F2F801F07DF844F2184147F247
:102E60004223C5F60201C0F600030A68C2F303223A
:102E70009A5C096801F00F0102F01F02595CD04012
:102E800040F20402C2F2004201F01F0120FA01F1F7
:102E9000116040F20001C2F200410860032000F01E
:102EA00007F808B1012080BD00F078F8002080BD4F
:102EB000B0B540F20901C2F200410978F9B1044607
:102EC00040F20000C2F200404FF47A72B2FBF1F11E
:102ED0000068B0FBF1F001F05FFB0F2C4FF0010533
:102EE0000ED868B94FF0FF3000222146002500F0CF
:102EF00077F840F20C00C2F20040046000E00125C7
:102F00002846B0BD10B54EF6985E4178CEF2000E60
:102F100090F800C0CEF80010DEF8081021F0010192
:102F2000CEF808104168CEF80410017BC37A827A8B
:102F3000447B1B0643EA0171837B41EAC241C27BA9
:102F400041EA8441447A41EA4341007A41EA02413C
:102F500041EA042141EA400040EA0C00CEF80800B2
:102F600010BD4EF62450CEF20000BFF35F8F016813
:102F700021F4803101600021016770474EF6245131
:102F800040F00100CEF200010867086840F480308C
:102F90000860BFF34F8FBFF36F8F704781B044F26B
:102FA000F440C5F60200016841F0020101600068CA
:102FB00000F0020000900520009901B000F03DB83B
:102FC00000280CD400F01F01012202FA01F14EF298
:102FD0000012C0F34A10CEF2000242F820107047EF
:102FE00070B54EF60C5C4FF0FF36CEF2000C00F1DF
:102FF000604505F56445DCF80030C3F3022E8EF021
:103000000703042B28BF0423BEF1030406FA03F3CD
:1030100021EA030100F00F0338BF0024043B00281D
:10302000634406FA04F048BF03F10C05A14022EA0C
:10303000000008430001287070BD4EF60C514FF699
:10304000FF03CEF200010A681A4060F30A2242F040
:10305000806040F0FD70086070470000B0B544F635
:103060000C05C5F6020529684907296805D401F051
:103070000701081A18BF0120B0BD21F0070108435D
:103080002860FFF7F2FD044655F8080C800407D4C9
:10309000FFF7EBFD001BB0F57A7FF5D90120B0BD3D
:1030A0000020B0BD80B500F008FF44F2204147F297
:1030B0004222C5F60201C0F600020968C1F30211FE
:1030C000515C01F01F01C84080BD000080B544F292
:1030D000004EC5F6020EDEF82830DEF82810DEF8C5
:1030E0002C20C1F3053CDEF83C10BCF1000F15D0DC
:1030F000C908D20601EAE2716FF35F3100EE101ADF
:1031000003F003010229B8EE400A0BD069B9DEF8DA
:10311000001089060CD49FED341A17E00021C0E995
:1031200000115BE09FED2F1A10E09FED2D1A0DE0CE
:10313000DEF8001049F20002C0F2D032C1F3C10142
:1031400022FA01F101EE101AB8EE411ADEF8381039
:103150009FED263A6FF35F2102EE101ADEF8381069
:10316000C1F34621B8EE422A00EE032A00EE10CA4F
:10317000B7EE003AB8EE400A81EE000A32EE031ACA
:1031800002EE101AB8EE422A20EE010A32EE031ABD
:1031900080EE011ABCEEC11A80ED001ADEF838107C
:1031A000C1F3064101EE101AB8EE411A31EE031ACE
:1031B00080EE011ABCEEC11A80ED011ADEF838105B
:1031C000C1F3066101EE101AB8EE411A31EE031A8E
:1031D00080EE010ABCEEC00A10EE101A816080BDBC
:1031E0000024744A20BCBE4B0024744C00000039FB
:1031F00080B544F2004EC5F6020EDEF82830DEF847
:103200002810DEF82C20C1F3055CDEF84410BCF178
:10321000000F15D0C908D20501EAE2716FF35F31E2
:1032200000EE101A03F003010229B8EE400A0BD099
:1032300069B9DEF8001089060CD49FED341A17E046
:103240000021C0E900115BE09FED2F1A10E09FED17
:103250002D1A0DE0DEF8001049F20002C0F2D03263
:10326000C1F3C10122FA01F101EE101AB8EE411AC0
:10327000DEF840109FED263A6FF35F2102EE101A40
:10328000DEF84010C1F34621B8EE422A00EE032AD0
:1032900000EE10CAB7EE003AB8EE400A81EE000A1E
:1032A00032EE031A02EE101AB8EE422A20EE010A9C
:1032B00032EE031A80EE011ABCEEC11A80ED001A3C
:1032C000DEF84010C1F3064101EE101AB8EE411AC3
:1032D00031EE031A80EE011ABCEEC11A80ED011A1C
:1032E000DEF84010C1F3066101EE101AB8EE411A83
:1032F00031EE031A80EE010ABCEEC00A10EE101A7D
:10330000816080BD0024744A20BCBE4B0024744CF4
:10331000000000392DE9F0470446C07844F2104817
:103320000007C5F6020826D5A06E4FEA30510329E2
:103330000AD8DFE801F0020B1119D8F81C1041F48B
:103340000031C8F81C100FE0012615E004F1080058
:10335000022102F06DFC04E004F12800022102F0D9
:10336000EBFC064640B9A06ED8F8401021F440119D
:103370000843C8F8400000266078C00701D13546F0
:103380002AE0A06D04280DD83546DFE800F0030ED2
:10339000141A1A00D8F81C00354640F40030C8F85A
:1033A0001C000EE00125012717E004F108000021B0
:1033B00002F03EFC04E004F12800002102F0BCFC15
:1033C00005462F464DB9D8F84000A16D20F0070002
:1033D00000250843C8F840003746607880072AD5A2
:1033E000E06D4FEAB01004280BD8DFE800F0030DC1
:1033F00013191900D8F81C0040F40030C8F81C005C
:103400000EE00125012617E004F10800002102F07A
:103410000FFC04E004F12800002102F08DFC0546B9
:103420002E464DB9D8F84000E16D20F4E07000253B
:103430000843C8F840003E46607840072DD5D4F8D0
:10344000A8004FEA705004280BD8DFE800F0030E04
:10345000141A1A00D8F81C0040F40030C8F81C00F8
:103460000FE001254FF0010918E004F108000021E8
:1034700002F0DEFB04E004F12800002102F05CFC15
:103480000546A94655B9D8F84800D4F8A81020F444
:10349000600000250843C8F84800B146607800077E
:1034A0002CD5D4F8AC004FEA306004280BD8DFE804
:1034B00000F0030D13191900D8F81C0040F4003077
:1034C000C8F81C000EE00125012718E004F10800EF
:1034D000002102F0ADFB04E004F12800002102F01D
:1034E0002BFC05462F4655B9D8F84800D4F8AC1047
:1034F00020F0E06000250843C8F848004F46E07817
:10350000800723D5E06C4FEA301003280AD8DFE8A3
:1035100000F012020C12D8F81C0040F40030C8F879
:103520001C0008E00125012611E004F10800022139
:1035300002F07EFB05462E464DB9D8F83C00E16C02
:1035400020F0300000250843C8F83C003E46607873
:10355000C0062AD5206E4FEA303004280BD8DFE8A9
:1035600000F0030D13191900D8F81C0040F40030C6
:10357000C8F81C000EE00125012717E004F108003F
:10358000002102F055FB04E004F12800002102F0C4
:10359000D3FB05462F464DB9D8F84000216E20F4E4
:1035A000E04000250843C8F84000374660788006B0
:1035B00023D5606E4FEA304005280AD8DFE800F0D6
:1035C00012030C12121204F10800012102F030FB68
:1035D00007E00125012611E004F12800012102F095
:1035E000ABFB05462E464DB9D8F84000616E20F47D
:1035F000E02000250843C8F840003E4660784006B9
:1036000025D5D4F8B0004FEA307005280AD8DFE895
:1036100000F012030C12121204F10800012102F052
:1036200007FB07E00125012712E004F12800012132
:1036300002F082FB05462F4655B9D8F84800D4F869
:10364000B01020F0E04000250843C8F84800374695
:10365000607800061FD5206F90B1B0F1005F09D0EF
:10366000B0F1805F29D1D8F81C0040F40030C8F8D0
:103670001C0005E004F10800012102F0D9FA05461A
:103680002E464DB9D8F84000216F20F0405000255B
:103690000843C8F840003E46E078C00725D0A06C3B
:1036A00003280DD8DFE800F016021016D8F81C0029
:1036B00040F40030C8F81C000CE001250126EBE7BF
:1036C00001254FF0010911E004F10800022102F088
:1036D000AFFA0546A9464DB9D8F83C00A16C20F0D8
:1036E000030000250843C8F83C00B146A078400616
:1036F00001D44F4616E0D8F8F00340F48070C8F8C3
:10370000F003FFF7B2FA0646D8F8F003C00507D475
:10371000FFF7ABFA801B6428F6D90325032701E0E5
:103720002F4695B12078C00753D0E06F4FEAF000E4
:1037300005283AD8DFE800F042033C42424204F157
:103740000800012102F074FA37E0D8F86010D4F8CC
:10375000B400414011F4407F11D0D8F86010D8F87F
:10376000602042F48032C8F86020D8F8602021F44C
:10377000407122F48032C8F86020C8F86010B0F5BB
:10378000807F40F05A82FFF770FA064641F2883A8D
:1037900003250327D8F86000800700F14C82FFF76B
:1037A00064FA801B5045F5D9BCE70125012611E0DC
:1037B00004F12800012102F0BFFA05462E464DB95A
:1037C000D8F84400E16F20F0380000250843C8F81D
:1037D00044003E462078800721D5A06F05280AD8EE
:1037E000DFE800F012030C12121204F108000121AC
:1037F00002F01EFA07E00125012711E004F128007C
:10380000012102F099FA05462F464DB9D8F8440037
:10381000A16F20F0070000250843C8F84400374690
:103820002078400723D5D4F8940005280AD8DFE88B
:1038300000F012030C12121204F10800012102F030
:10384000F7F907E00125012612E004F12800012123
:1038500002F072FA05462E4655B9D8F84800D4F859
:10386000941020F0070000250843C8F848003E46A1
:103870002078800625D5D4F890004FEA30700528CE
:103880000AD8DFE800F012030C12121204F108004B
:10389000002102F0CDF907E00125012712E004F133
:1038A0002800022102F048FA05462F4655B9D8F8FB
:1038B0004400D4F8901020F0E04000250843C8F8F8
:1038C000440037462078400625D5D4F89C004FEABE
:1038D000B02005280AD8DFE800F012030C121212FB
:1038E00004F10800002102F0A3F907E001250126F8
:1038F00012E004F12800022102F01EFA05462E46CD
:1039000055B9D8F84800D4F89C1020F4E0500025B0
:103910000843C8F848003E462078000625D5D4F86C
:10392000A0004FEA703005280AD8DFE800F0120343
:103930000C12121204F10800002102F079F907E0DC
:103940000125012712E004F12800022102F0F4F918
:1039500005462F4655B9D8F84800D4F8A01020F4F1
:10396000604000250843C8F8480037462068010732
:1039700016D5D4F88400B0F5805F09D104F1280091
:10398000022102F0D9F9002818BF0127D4F88400D9
:10399000D8F8441021F440510843C8F84400206886
:1039A000C10616D5D4F89800B0F5807F09D104F18E
:1039B0002800022102F0C0F9002818BF0127D4F81E
:1039C0009800D8F8481021F440710843C8F848001E
:1039D0002068000320D5D4F8A400B0F5003F0FD034
:1039E000B0F5803F06D070BB04F10800002102F062
:1039F0001FF904E004F12800022102F09DF90546B8
:103A00002E4655B9D8F84800D4F8A41020F4403018
:103A100000250843C8F848003E46A078400727D54F
:103A2000D4F88800B0F5401F16D0B0F5001F0DD0B7
:103A3000B0F5801F40F0FA80D8F81C0040F4003048
:103A4000C8F81C0008E001250126E6E704F128007B
:103A5000012102F071F905462F4655B9D8F8440006
:103A6000D4F8881020F4401000250843C8F844001A
:103A70003746A078C00701D13E461FE0206DB0F563
:103A8000803F07D0C0B9D8F81C0040F40030C8F817
:103A90001C0005E004F10800022102F0C9F8054607
:103AA0002E465DB9D8F83C00216D20F48030002509
:103AB0000843C8F83C00DFE701250126216888009B
:103AC00001D4606809E004F12800022102F034F911
:103AD000002818BF0126D4E900108A031BD5D4F8AA
:103AE00080206FF0010303EB3223022B0BD34FEA4C
:103AF000322343B1012B40F09C80D8F81C3043F4B2
:103B00000033C8F81C303DB9D8F8443023F4407372
:103B10001A43C8F844203546CA0207D5D8F84020D1
:103B2000636F22F000421A43C8F84020CA0008D54B
:103B3000D8F80020D4F8B83022F480421A43C8F8EC
:103B400000208A0207D5D8F84020E36E22F0807268
:103B50001A43C8F840204A000CD5D8F8002022F4B7
:103B60000042C8F80020D4F8BC20D8F800301A432E
:103B7000C8F80020CA0F07D0D8F83C20636D22F0A7
:103B800040521A43C8F83C20090208D5D8F844101E
:103B9000D4F88C2021F440011143C8F84410C10727
:103BA00008D004F10800002102F042F8002818BFF4
:103BB00005466068810708D504F10800012102F07C
:103BC00037F8002818BF05466068410708D504F19A
:103BD0000800022102F02CF8002818BF0546606892
:103BE000010708D504F12800002102F0A5F80028FB
:103BF00018BF05466068C10608D504F128000121F8
:103C000002F09AF8002818BF05466068800607D5BC
:103C100004F12800022102F08FF8002818BF0125C6
:103C2000002D18BF01252846BDE8F0870125012792
:103C30001FE7012570E7D4F8B4004FF6CF73D8F82A
:103C40000020C0F2FF0300F4407122F47C5203EA2A
:103C500010136FF31F30B1F5407F08BF1A430025E2
:103C6000C8F80020D8F860100843C8F8600040E5A4
:103C70002DE9F04381B0002800F01B8142F20008DA
:103C80000446C5F200288946D8F8000000F00F006D
:103C900088420ED2D8F8000020F00F0040EA090058
:103CA000C8F80000D8F8000000F00F00484540F0C8
:103CB0000081206844F200474107C5F602070AD593
:103CC0002169BA6902F07002914204D9BA6922F0FE
:103CD00070021143B96101070AD56169FA6902F0FE
:103CE0007002914204D9FA6922F070021143F9611D
:103CF000C1060AD5A169FA6902F4E062914204D9C9
:103D0000FA6922F4E0621143F96181060AD5E1699A
:103D10003A6A02F07002914204D93A6A22F07002C3
:103D20001143396210F002010AD0E268BB6903F066
:103D30000F039A4204D9BB6923F00F031A43BA61F7
:103D4000C20738D0B969D4E9010221F470610128B1
:103D500041EA0201B96107D0032809D002280BD13A
:103D6000396889030CD4A4E03968C90508D4A0E0F7
:103D70003968890104D49CE03968490740F1998089
:103D8000396921F0070108433861FEF76EFF0646E6
:103D900041F288353869616800F03800B0EBC10F36
:103DA00006D0FEF762FF801BA842F3D9032081E012
:103DB000206800F0020151B1E168BA6902F00F0217
:103DC000914204D2BA6922F00F021143B961D8F8C6
:103DD000001001F00F0149450DD9D8F8001021F06D
:103DE0000F0141EA0901C8F80010D8F8001001F0ED
:103DF0000F0149455DD141070AD52169BA6902F031
:103E00007002914204D2BA6922F070021143B96182
:103E100001070AD56169FA6902F07002914204D281
:103E2000FA6922F070021143F961C1060AD5A1694D
:103E3000FA6902F4E062914204D2FA6922F4E06283
:103E40001143F96180060AD5E069396A01F0700111
:103E5000884204D2396A21F070010843386200F0C8
:103E600079F8B96947F24222C0F60002C1F3032192
:103E7000515CBB6903F00F0301F01F01D25C20FA13
:103E800001F102F01F0040F20402C2F2004221FAE6
:103E900000F0106040F20C0040F20002C2F200405C
:103EA000C2F200420068116001B0BDE8F043FEF7C5
:103EB000FFBF012001B0BDE8F08380B500F04AF8F3
:103EC00044F2184147F24223C5F60201C0F600034E
:103ED0000A68C2F303229A5C096801F00F0102F03C
:103EE0001F02595C20FA02F201F01F0040F20401A7
:103EF000C2F2004122FA00F0086040F20001C2F272
:103F000000410A6080BD80B5FFF7D7FF44F21C4135
:103F100047F24222C5F60201C0F600020968C1F369
:103F20000211515C01F01F01C84080BD80B5FFF750
:103F3000C4FF44F21C4147F24222C5F60201C0F61A
:103F400000020968C1F30221515C01F01F01C84061
:103F500080BD000044F20041C5F602010869C0F3CB
:103F6000C20003280FD002282CD080BB086880062E
:103F700049F20000C0F2D03058BF70470968C1F361
:103F8000C101C84070478A6A886AC0F3051CC86AC4
:103F9000BCF1000F4B6B1FD000F0010002F00302D8
:103FA0004042022A00EAD3006FF35F3000EE100AAD
:103FB000B8EE400A12D0A2B90868800614D49FED6A
:103FC000261A1EE047F64000C0F27D10704740F60A
:103FD0000010C0F23D007047002070479FED1D1A91
:103FE0000FE09FED1B1A0CE0086849F20002C0F2D6
:103FF000D032C0F3C10022FA00F001EE100AB8EE90
:10400000411A086B9FED153A6FF35F2002EE100A1C
:10401000086BC0F34620B8EE422A013000EE032AB6
:1040200000EE10CAB7EE003AB8EE400A81EE000A80
:1040300032EE031A20EE010A01EE100AB8EE411A20
:1040400080EE010ABCEEC00A10EE100A704700BFF5
:104050000024744A20BCBE4B0024744C000000397C
:1040600058B3F0B581B00446007844F20046C0076A
:10407000C5F6020623D12078800740F1B58030696B
:1040800010F03801B06A3ED0182908BF5FEA80708E
:1040900039D0E068316800285ED021F0190108436A
:1040A0003060FEF7E2FD05463068400745D4FEF774
:1040B000DCFD401B0228F7D983E1012070473069FD
:1040C00000F03801B06A102905D018290AD100F093
:1040D0000300022806D130688003CCD56068002830
:1040E000C9D144E16068002847D0B0F5A02F5BD06B
:1040F000B0F5803F5CD0306820F4803030603068AC
:1041000020F4802057E030684007E06802D500289E
:1041100000F02D81316821F0190108433060FEF76D
:10412000A4FD05463068400707D4FEF79EFD401BFE
:1041300002284FF00300F5D944E1FEF78FFD41F26C
:104140000301884246D820697168402821F47C31F7
:1041500047D141F4003046E021F001003060FEF725
:1041600084FD0546306840073ED5FEF77EFD401BC6
:1041700002284FF00300F5D924E1306820F48030A4
:104180003060306820F480203060FEF76EFD054618
:10419000306880037FF56FAFFEF767FD401B642832
:1041A0004FF00300F4D90DE1306840F48020306016
:1041B000306840F480303060FEF757FD054600BFA0
:1041C000306880033FF557AFFEF74FFD401B642872
:1041D000F6D9F6E07068216920F0FE4040EA0160FF
:1041E00001E041EA003070602078C00654D53069A3
:1041F00000F03801B06A082905D0182919D100F05B
:104200000300012815D13068C00503D5E069802876
:1042100040F0AD80FEF722FD41F2030188421ED836
:10422000206A7168202821F0F84132D141F08040A5
:1042300031E0E0690028306819D040F0800030603B
:10424000FEF713FD054600BF3068C005E2D4FEF757
:104250000CFD401B02284FF00300F5D9B2E0F068D6
:10426000216A20F07C5040EA0160F06014E020F008
:1042700080003060FEF7F9FC054600BF3068C005DD
:104280000AD5FEF7F2FC401B02284FF00300F5D9D7
:1042900098E041EA806070602078000754D420786C
:1042A000800666D42078400778D4656A002D49D00E
:1042B000306900F03800182840F0BA80012DB16A4A
:1042C000306B54D001F00302A36A9A424FD1C1F37C
:1042D0000511E26A91424AD10146226B6FF35F21D8
:1042E000013A914243D1C0F34622616B01398A42BF
:1042F0003DD1C0F30642A16B01398A4237D1C0F3E8
:104300000660E16B0139884231D1706BA16CC0F35A
:10431000CC00814216D0F06A20F00100F062FEF776
:10432000A4FC0546FEF7A1FCA842FBD0706B4FF63B
:10433000F871A26C884340EAC2007063F06A40F0F2
:104340000100F06200203DE060690028706F3BD002
:1043500040F001007067FEF788FC0546706F80072B
:104360009DD4FEF782FC401B0228F7D929E00120EA
:1043700028E0A0690028306847D040F480503060C1
:10438000FEF773FC054600BF306880043FF58AAF36
:10439000FEF76BFC401B0228F6D912E0D6F80004A9
:1043A00040F48070C6F80004FEF75FFC054600BFCD
:1043B000D6F80004C00519D4FEF757FC401B64284A
:1043C000F6D9032001B0F0BD20F001007067FEF7C0
:1043D0004CFC0546706F80077FF561AFFEF745FC2A
:1043E000401B02284FF00300F4D9EBE7A068002837
:1043F00040D0052857D0012859D0306F20F0010057
:104400003067306F20F0040054E020F480503060BA
:10441000FEF72BFC054600BF306880047FF542AFF5
:10442000FEF723FC401B02284FF00300F4D9C9E734
:10443000306820F080703060FEF717FC022D0546D2
:104440000CD100BF3068800146D5FEF70EFC401B42
:1044500002284FF00300F5D9B4E700BF30688001AF
:104460007FF570AFFEF701FC401B02284FF0030000
:10447000F4D9A7E7306F20F001003067306F20F0EB
:1044800004003067FEF7F1FB054641F28837306FD4
:1044900080077FF50AAFFEF7E8FB401BB8424FF0FC
:1044A0000300F4D98EE7306F40F004003067306FBE
:1044B00040F001003067FEF7D8FB054641F288372F
:1044C000306F80073FF5F1AEFEF7CFFB401BB842DF
:1044D0004FF00300F4D975E704F12807B06A40F201
:1044E000F33188438ECF0843591E40EA02104FF43F
:1044F0007E426FF35F21B06202EB47204FF4FE0271
:1045000080B2E36B0844A16B02EB01414FF0FE4225
:1045100001F4FE0102EB0362084402F0FE4108448C
:104520003063F06A4FF6F87120F00100F062706BB2
:10453000A26C884340EAC2007063F06A216C20F0EC
:104540000C000843F062F06A616C20F0020008433E
:10455000F062F06A40F48030F062F06A40F40030BB
:10456000F062F06A40F48020F062F06A40F00100EE
:10457000F062306840F080703060FEF776FB0446F1
:10458000306880013FF5DEAEFEF76FFB001B0228AE
:104590004FF00300F4D915E7411E0020B0EB116F76
:1045A00001D0012070474EF21002F023CEF200023B
:1045B00051604EF62351CEF200010B70072190603E
:1045C0001160704770477047704790F83C20012A8F
:1045D0004FF002025CD0B0B580F83D2040F2004CB4
:1045E0000268C4F2010C42F4806363455368D2F858
:1045F00008E002BF23F470034C68234341F2FF74C8
:104600000D68C4F2000423F07003A24243EA0503DC
:1046100053600BDC40F2FF73C4F200039A4215DCD6
:10462000B2F1804F27D040F2004317E040F2FF3351
:10463000C4F201039A4216DC41F60003C4F20003FF
:104640009A4218D00023C4F2010309E040F60003A7
:10465000C4F200039A420ED040F60043C4F20003B5
:104660009A4208D00CE044F20003C4F201039A42DB
:1046700001D0624504D12EF080038968194391600E
:104680000022012180F83D1080F83C20BDE8B040B8
:104690001046704760B310B5044690F83D0028B945
:1046A000002084F83C00204600F024F8022084F822
:1046B0003D002068211D01F0E8FC012084F848003D
:1046C00084F83E0084F83F0084F8400084F84100FC
:1046D00084F8420084F8430084F8440084F84500DC
:1046E00084F8460084F8470084F83D00002010BD9F
:1046F0000120704780B584B041F200410068C4F2E7
:104700000001884217D041F20001C4F20001884242
:1047100025D0B0F1804F0CD144F2E840C5F602003C
:10472000016841F001010160006800F001000390A0
:10473000039804B080BD44F2E8400022C5F60200B0
:10474000016841F0200101600068022100F02000B2
:10475000019001983720FEF743FC372012E044F225
:10476000E8400122C5F60200016841F01001016035
:104770000068022100F01000029002983620FEF737
:104780002FFC362004B0BDE88040FEF719BC90F83D
:104790003D10012919D1022180F83D10016841F234
:1047A000FF70C4F200008142C86840F00100C86098
:1047B0000DDC40F2FF70C4F20000814215DCB1F163
:1047C000804F29D040F2004017E00120704740F2AE
:1047D000FF30C4F20100814212DC41F60000C4F255
:1047E0000000814218D0002012E040F60000C4F220
:1047F0000000814210D040F60040C4F2000009E001
:1048000044F20000C4F20100814205D040F20040B1
:10481000C4F2010081420BD107228868C0F2010274
:1048200002400020062A18BFB2F5803F00D1704731
:10483000086840F0010008600020704790F83C20B4
:10484000012A4FF0020200F0A38080B580F83D20DD
:104850008822D0F800C0CFF6CE72DCF808301A40BB
:10486000CCF808200B686F2B0CDDB3F1101F34DA85
:10487000B3F5005F41DA702B00F08C80B3F5805FF8
:104880007DD0CFE02F2B32DD4F2B3BDC302B6AD09D
:10489000402B40F0C780D1F804E0C968DCF8203034
:1048A000DCF8202022F00102CCF82020DCF81820CF
:1048B00022F0F00242EA011123F00A02CCF81810AB
:1048C00042EA0E01CCF820104FF68872DCF808108E
:1048D000CFF6CF72114047314FE02F21C0F21001C7
:1048E0008B4236DCB3F1101F3DD0202137E0D3B32B
:1048F000102B38D0202B36D094E05ED0B3F5801F3B
:1049000031D08FE0502B6BD0602B40F08B80D1F8F2
:1049100004E0C968DCF82030DCF8202022F0100226
:10492000CCF82020DCF8182022F4704242EA013151
:1049300023F0A002CCF8181042EA0E11CCF8201097
:104940004FF68872DCF80810CFF6CF72114067314D
:1049500013E03021C0F210018B4204D04021C0F29C
:1049600010018B425ED14FF68872DCF80810CFF64A
:10497000CF721140194341F00701CCF80810002212
:10498000012180F83D10002180F83C10BDE88040F6
:1049900010467047D1E901E3C968DCF8082043EA12
:1049A0000E0322F47F4243EA01211143CCF80810A0
:1049B000DCF8081041F07701DFE7D1E901E3C968CD
:1049C000DCF8082043EA0E0322F47F4243EA012187
:1049D0001143CCF80810DCF8081041F48041CCE712
:1049E000D1F804E0C968DCF82030DCF8202022F09F
:1049F0000102CCF82020DCF8182022F0F00242EA74
:104A0000011123F00A02CCF8181042EA0E01CCF88A
:104A100020104FF68872DCF80810CFF6CF721140E4
:104A20005731AAE70122ABE77047F0B581B00446E1
:104A30000068C5680669B10716D515F0020113D0E4
:104A40006FF002010161012121778069800703D0A5
:104A50002046FFF7E9FF05E0204600F0D6F82046A3
:104A600000F063F900202077700718D515F00400D6
:104A700015D020686FF0040101610221217780695F
:104A800010F4407F03D02046FFF7CEFF05E020461C
:104A900000F0BBF8204600F048F9002020773007EE
:104AA00017D515F0080014D020686FF008010161D7
:104AB00004212177C069800703D02046FFF7B4FFA7
:104AC00005E0204600F0A1F8204600F02EF9002075
:104AD0002077F00618D515F0100015D020686FF07B
:104AE0001001016108212177C06910F4407F03D0D3
:104AF0002046FFF799FF05E0204600F086F82046A3
:104B000000F013F900202077F00718BF15F001001E
:104B100006D020686FF001010161204600F0B8F96D
:104B200005F0800716F4025F18BF002F06D020683A
:104B30006FF4025101612046FFF745FDF00507D5EE
:104B400037B120686FF4807101612046FFF73AFDAC
:104B5000700609D515F0400006D020686FF04001BE
:104B60000161204600F0E4F9B0060CD515F02000F4
:104B700009D020686FF020010161204601B0BDE836
:104B8000F040FFF721BD01B0F0BD0068B0F1804FEB
:104B900018BF70472DE9F04186B044F2E040002490
:104BA000C5F60200C5F6020401AD4FF00208016827
:104BB000002741F0010101600168012601F00101B7
:104BC00001910199016841F00201016000682946E4
:104BD00000F00200019001982C2001902046CDF8B1
:104BE0000880CDE903770596FDF768FF0820294680
:104BF000CDE9010804F580600596CDE90377FDF75E
:104C00005DFF06B0BDE8F04170477047B0B504469F
:104C100090F83C00012801D10220B0BD0D464FEABA
:104C2000B20105294FF0010084F83C0048D8DFE8C4
:104C300001F0030B131B23332068294601F0C7FA48
:104C4000206850F8181F1EE02068294601F020FB5C
:104C5000206850F8181F26E02068294601F06DFBF7
:104C6000206850F81C1F0EE02068294601F0BAFBAE
:104C7000206850F81C1F16E02068294601F0F4FB5C
:104C8000206850F8541F41F008010160016821F0CC
:104C90000401016029690FE02068294601F025FC24
:104CA000206850F8541F41F400610160016821F44C
:104CB00080610160296909020268114301600020D6
:104CC000002184F83C10B0BD60B310B5044690F8E4
:104CD0003D0028B9002084F83C00204600F024F86C
:104CE000022084F83D002068211D01F0CEF901204A
:104CF00084F8480084F83E0084F83F0084F84000BF
:104D000084F8410084F8420084F8430084F84400A9
:104D100084F8450084F8460084F8470084F83D0094
:104D2000002010BD012070477047704761B10A1F15
:104D30008B0743EA9202032A0ED8DFE802F0021042
:104D4000131600F13F0312E090F83E20012A1BD118
:104D5000022280F83E2028E000F1430307E000F142
:104D6000400304E000F1410301E000F142031B783D
:104D7000012B09D1032A09D8DFE802F0020C101434
:104D8000022280F83F2010E001207047022280F8C4
:104D900043200AE0022280F8402006E0022280F848
:104DA000412002E0022280F84220026801F01F0048
:104DB000012101FA00F0116A814311624FF6FF717F
:104DC000C4F200018A42116A40EA0100106214DC58
:104DD00040F2FF70C4F20000824226DD40F600007F
:104DE000C4F2000082423ED040F60040C4F200000F
:104DF000824238D041F600001CE043F6FF700021EB
:104E0000C4F20100C4F20101824244F20000C4F283
:104E1000010012DD824218D044F60003C4F20103FF
:104E20009A4212D044F200430BE0B2F1804F1AD004
:104E300040F20040C4F2000013E08A4205D040F284
:104E40000043C4F201039A4219D1536C8A4243F4DD
:104E50000041516418BF824205D040F20040C4F2C4
:104E6000010082420BD107219068C0F2010101408C
:104E70000020062918BFB1F5803F00D170471068A7
:104E800040F00100106000207047000000000000AA
:104E9000B0B52DED048B40F23851C2F2004188428A
:104EA00026D040F28451C2F2004188422FD140F214
:104EB0006904C2F200449FED180B94F900509FED75
:104EC000181BFBF795FA0A2D1CDD9FED138B9FED48
:104ED000169BB0EE480BB0EE491BFBF7DDFDB0EEC4
:104EE000480BB0EE481BB0EE492BFBF781FC0CE001
:104EF00040F26804C2F2004494F90050FCF780F9D3
:104F0000042D02DC2078013000E000202070BDEC90
:104F1000048BB0BD00BF00BF000000000000000017
:104F200079E9263108AC7C3F79E9263108ACAC3F01
:104F3000704790F88410012901D1022112E0242148
:104F4000C0F8881002681368116823F0005321F03C
:104F5000010111600021416613602022C0F8882001
:104F600080F884100846704710B50446D0F88C00CD
:104F700020280BD14FF0010039B132B1E06600209A
:104F80002067204601F06AFE10B110BD022010BD5E
:104F9000E06E01280ED1206810210162206850E8DF
:104FA000000F216840F0100041E80002002AF5D10E
:104FB000002010BD012010BD70477047B0B50446F9
:104FC00090F88400012801D10220B0BD012084F8AE
:104FD00084002420C4F8880020680568026822F054
:104FE00001020260826822F0606211438160204603
:104FF00001F0C3FA206805602020C4F88800002072
:1050000084F88400B0BDB0B5044690F8840001284F
:1050100001D10220B0BD012084F884002420C4F80E
:10502000880020680568026822F001020260826838
:1050300022F0604211438160204601F09EFA206810
:1050400005602020C4F88800002084F88400B0BDEA
:105050007047704741F2000C0068C4F2010C6045D3
:1050600018BF704740F2D05040F65011C2F20040D5
:10507000C2F2004101220823CCF8203000F03CBBF2
:1050800070B50446006840F62F01C269114020291E
:10509000016886680DD101F0200306F080555B1988
:1050A00019D0616F002900F0EE812046BDE8704004
:1050B000084740F60F031A420DD0012340F2201595
:1050C000C1F20003C0F2004506EA030C01EA050341
:1050D00013EB0C0355D1D306E36E43D5012B41D11D
:1050E00011F010033ED0102101628068400600F1EB
:1050F000B080B4F85C00B4F85E10B4F85E20002A0A
:1051000000F0C181884200F0BE81401A216851E858
:10511000001F226821F4907142E80013002BF5D1A2
:105120004FF6FE71CEF6FF71226852E8022F236817
:105130000A4043E80226002EF6D12021C4F88C1044
:105140000021E166616700BF216851E8001F226805
:1051500021F0100142E80013002BF5D181B20220AA
:1051600020678BE1D30240F1908016F4800300F0B9
:105170008C804FF4801101622046BDE87040FFF73B
:1051800068BFD30718BF11F4807307D001230362EF
:10519000D4F8903043F00103C4F89030930706F040
:1051A000010E0AD5BEF1000F07D002230362D4F826
:1051B000903043F00403C4F8903053070AD5BEF191
:1051C000000F07D004230362D4F8903043F00203A9
:1051D000C4F8903013070CD501F0200353EA0C03F8
:1051E00007D008230362D4F8903043F00803C4F8D2
:1051F000903013050BD511F0806308D04FF4006395
:105200000362D4F8903043F02003C4F89030D4F80F
:105210009030002B00F0378192060AD501F0200172
:1052200006F08052891804D0616F11B1204688477A
:105230002068D4F89010806800F0400001F0280148
:10524000401862D12046FFF705FF0020C4F8900007
:1052500019E1D4F8800040F20F42C4F20202016862
:10526000914233DC6F22C4F2020291426FDC3F2292
:10527000C4F20202914200F396801022C4F20202AC
:10528000914200F0B2802822ACE0100605D501F072
:10529000800006F40003C01865D150062BD511F02C
:1052A000400028D0206850E8000F216820F040001E
:1052B00041E80002002AF5D12020C4F8880000202F
:1052C000A0672046BDE8704000F0A4BA40F26F42EB
:1052D000C4F20202914248DC40F23F42C4F20202B0
:1052E000914267DC40F21042C4F2020291427CD04B
:1052F00040F2284276E010024BD511F0804048D0B1
:105300002046BDE87040FFF7A3BE204601F0D4FA66
:1053100020688068400637D5206850E8020F216871
:1053200020F0400041E80202002AF5D1D4F88000C4
:1053300050B346F24D71C0F600010165FCF7A2FAC8
:10534000002800F0A080D4F88000016DAEE69F2216
:10535000C4F20202914236DC7022C4F2020291428F
:1053600043D088223EE0A16F9CE640F29F42C4F207
:10537000020291422EDC40F27042C4F202029142DB
:1053800033D040F288422DE02046BDE87040FFF760
:1053900061BED00177D5B1F1FF3F74DC2046BDE896
:1053A0007040FFF70ABE4022C4F2020291421CD0B4
:1053B000582217E040F24042C4F20202914214D057
:1053C00040F258420EE0A022C4F2020291420CD0F8
:1053D000B82207E040F2B842C4F20202914204D07F
:1053E00040F2A042C4F20202914249688AB2002A05
:1053F00049D0B4F85C309A4245D2A4F85E10C06936
:10540000B0F5807F32D000BF206850E8000F2168DF
:1054100020F4807041E80002002AF5D1206850E8AD
:10542000020F216820F0010041E80202002AF5D1B4
:10543000206850E8020F216820F0400041E8020295
:10544000002AF5D12020C4F88C000020E06600BFBF
:10545000206850E8000F216820F0100041E80002A9
:10546000002AF5D1D4F88000FBF7A8FF02202067BE
:10547000B4F85C00B4F85E10401A81B22046BDE872
:105480007040FFF799BD70BD10B5D8B10446D0F893
:10549000880028B9002084F88400204600F026F80F
:1054A0002420C4F888002068A16A0268002922F03C
:1054B0000101016002D0204601F088F8204601F089
:1054C00029FA08B1012010BD2068416821F49041FB
:1054D0004160816821F02A018160016841F0010189
:1054E00001602046BDE8104001F0D4B82DE9F04736
:1054F000B8B0044633A81421FAF734FF02A8C0213B
:10550000FAF730FF41F200012068C4F2010188423D
:1055100075D044F60041C4F20001884240F0E880B2
:1055200002A80026039602250295FDF7F3FE08B1B6
:10553000FBF73EFF44F2E04040F21008C5F60200DF
:10554000C4F20208816841F400218160816801F49D
:10555000002101910199016841F001010160006899
:1055600033A900F0010001900198032061C10820D7
:105570003790002033A9C5F602003696FDF79EFA53
:1055800040F2B02508F13000C2F200454FF48069C6
:105590004FF4803728603F20C5E901064FF4807042
:1055A000EE60C5E906602846C5E90496C5E90876B7
:1055B000FCF778FE08B1FBF7FBFEC4F8805008F159
:1055C0004800AC6340F22835C2F200452860402014
:1055D000C5E901000020E861C5E90309C5E9050046
:1055E000C5E908702846FCF75DFE08B1FBF7E0FE50
:1055F000E5673420AC6301210122342473E00120EB
:10560000029002A800260396FDF784FE08B1FBF77E
:10561000CFFE44F2E04040F21008C5F60200C4F2AA
:105620000208016941F010010161016901F01001F6
:1056300001910199016841F00201016000680021B7
:1056400000F002000190C5F6020101984FF44040BD
:10565000339002203690CDE934060420379001F5CE
:10566000806033A9FDF72AFA40F2A0352920C2F262
:1056700000454FF4806A4FF480794FF48037C5E9D4
:1056800001062846C5F80080EE60C5E904A6C5E914
:105690000669C5E90876FCF705FE08B1FBF788FE48
:1056A000C4F8805008F11800AC6340F21845C2F20B
:1056B000004528602A2068604020A8600020C5E9D5
:1056C000030AC5E90500C5E908702846C5F81C901D
:1056D000FCF7E8FD08B1FBF76BFEE5672520AC633E
:1056E000012100222524FDF77BFC2046FDF768FC04
:1056F00038B0BDE8F0870000D0F88C30202B23D1E3
:105700004FF0010309B302B30023C36640F6004320
:10571000D0F800C0C5F600039C4513D080B5DCF876
:1057200004301B020CD500BF036853E800CFD0F84B
:1057300000E04CF080634EE8003CBCF1000FF3D178
:10574000BDE8804001F08ABA02231846704741F252
:1057500000010068C4F20101884218BF704710B50B
:1057600040F65014C2F20044207801F047FB40F2AA
:10577000D0500122C2F200402146BDE81040FFF7A0
:10578000F3BB704710B50446D0F8880020282FD10D
:105790004FF00100E9B31346DAB321654FF0000E74
:1057A000A4F854302120A4F85630C4F890E0C4F88E
:1057B0008800E06FF0B146F6750C46F6B302C0F60D
:1057C000000CC0F60002C0E90FC246F25D72C0F6DE
:1057D0000002C0E9132E22682832FCF7A2FF48B16C
:1057E0001020C4F890002020C4F88800012010BDCB
:1057F000022010BD20684021016200BF206850E8EF
:10580000020F216840F0800041E80202002AF5D131
:10581000002010BD70477047FEE780B582B044F2AB
:10582000D8400022C5F60200016841F00101016084
:105830000068002100F00100019001980B20FDF7A5
:10584000CFFB0B20FDF7BCFB0C2000210022FDF755
:10585000C7FB0C20FDF7B4FB0D2000210022FDF753
:10586000BFFB0D20FDF7ACFB0E2000210022FDF751
:10587000B7FB0E2002B0BDE88040FDF7A1BB83B0AE
:1058800044F2E040C5F60200016841F08001016089
:10589000016801F0800102910299016841F0010163
:1058A0000160016801F0010101910199016841F075
:1058B00002010160006800F002000090009803B04F
:1058C000704710B540F2984445F20040C2F20044DF
:1058D00047F2B151C4F20000C3F27001C4E9000103
:1058E0000020A0600120E06004F110001421FAF70C
:1058F00039FD2046FDF708FA08B1FBF759FD40F2E3
:1059000098400021C2F20040FDF7B5F908B1FBF75D
:105910004FFD40F298400021C2F20040FDF7D0F95F
:1059200018B1BDE81040FBF743BD10BD10B58EB0F7
:1059300068461C2100240D94CDE90B440994CDE95F
:105940000744FAF70FFD40F2EC404FF08041C2F2FD
:1059500000400160EF21C0E9011444F61F61C0E975
:10596000031480218161FEF795FE08B1FBF720FD4D
:105970004FF480500A9040F2EC400AA9C2F2004075
:10598000FEF75CFF08B1FBF713FD40F2EC40C2F2FA
:105990000040FFF799F908B1FBF70AFD40F2EC402F
:1059A00007A9C2F20040002407940994FEF70DFEF7
:1059B00008B1FBF7FDFC60206946CDE9000440F228
:1059C000EC400022C2F2004002940494FFF71EF95A
:1059D00008B1FBF7EDFC40F2EC406946C2F2004032
:1059E0000422FFF713F908B1FBF7E2FC40F2EC40A8
:1059F0006946C2F200400822FFF708F908B1FBF738
:105A0000D7FC40F2EC406946C2F200400C22FFF79E
:105A1000FDF808B1FBF7CCFC40F2EC40C2F20040CC
:105A2000FFF7B3F80EB010BD10B584B040F2385097
:105A300041F20001C2F2004000240294C4F20001CD
:105A4000016040F2AF41C0E9011440F2CF71C16082
:105A500080218161FEF71EFE08B1FBF7A9FC40F230
:105A6000385001A9C2F2004001940394FEF7ADFD45
:105A700008B1FBF79DFC04B010BD10B584B040F236
:105A8000845041F20041C2F2004000240294C4F26A
:105A90000001016040F2AF41C0E9011440F27751CA
:105AA000C16080218161FEF7F5FD08B1FBF780FC44
:105AB00040F2845001A9C2F2004001940394FEF721
:105AC00084FD08B1FBF774FC04B010BD10B540F2C2
:105AD000646444F60040C2F20044C4F200001421A1
